{"contracts/OrderCalculator.sol":{"OrderCalculator":{"abi":[{"inputs":[],"name":"calculateDiscountedAmount","outputs":[{"internalType":"uint256","name":"","type":"uint256"}],"stateMutability":"view","type":"function"},{"inputs":[],"name":"calculateTotalAmount","outputs":[{"internalType":"uint256","name":"","type":"uint256"}],"stateMutability":"view","type":"function"},{"inputs":[],"name":"couponValue","outputs":[{"internalType":"uint256","name":"","type":"uint256"}],"stateMutability":"view","type":"function"},{"inputs":[],"name":"orderAmount","outputs":[{"internalType":"uint256","name":"","type":"uint256"}],"stateMutability":"view","type":"function"},{"inputs":[{"internalType":"uint256","name":"_orderAmount","type":"uint256"},{"internalType":"uint256","name":"_taxAmount","type":"uint256"},{"internalType":"uint256","name":"_couponValue","type":"uint256"}],"name":"setOrderDetails","outputs":[],"stateMutability":"nonpayable","type":"function"},{"inputs":[],"name":"taxAmount","outputs":[{"internalType":"uint256","name":"","type":"uint256"}],"stateMutability":"view","type":"function"}],"evm":{"bytecode":{"linkReferences":{},"object":"6080604052348015600f57600080fd5b506103188061001f6000396000f3fe608060405234801561001057600080fd5b50600436106100625760003560e01c80632064f50e1461006757806336819267146100855780634f9a7f2e146100a3578063ac3b92e5146100c1578063ad5ea36f146100dd578063b95d95a6146100fb575b600080fd5b61006f610119565b60405161007c91906101ac565b60405180910390f35b61008d61013a565b60405161009a91906101ac565b60405180910390f35b6100ab610167565b6040516100b891906101ac565b60405180910390f35b6100db60048036038101906100d691906101f8565b61016d565b005b6100e5610187565b6040516100f291906101ac565b60405180910390f35b61010361018d565b60405161011091906101ac565b60405180910390f35b60008061012461013a565b905060015481610134919061027a565b91505090565b6000600254600054111561015f5760025460005461015891906102ae565b9050610164565b600090505b90565b60005481565b826000819055508160018190555080600281905550505050565b60015481565b60025481565b6000819050919050565b6101a681610193565b82525050565b60006020820190506101c1600083018461019d565b92915050565b600080fd5b6101d581610193565b81146101e057600080fd5b50565b6000813590506101f2816101cc565b92915050565b600080600060608486031215610211576102106101c7565b5b600061021f868287016101e3565b9350506020610230868287016101e3565b9250506040610241868287016101e3565b9150509250925092565b7f4e487b7100000000000000000000000000000000000000000000000000000000600052601160045260246000fd5b600061028582610193565b915061029083610193565b92508282019050808211156102a8576102a761024b565b5b92915050565b60006102b982610193565b91506102c483610193565b92508282039050818111156102dc576102db61024b565b5b9291505056fea264697066735822122041ef183c06a877ab3da68b2c98d0e8a3bee79dffc2866bbefeb534bcc171c4a064736f6c634300081c0033","opcodes":"PUSH1 0x80 PUSH1 0x40 MSTORE CALLVALUE DUP1 ISZERO PUSH1 0xF JUMPI PUSH1 0x0 DUP1 REVERT JUMPDEST POP PUSH2 0x318 DUP1 PUSH2 0x1F PUSH1 0x0 CODECOPY PUSH1 0x0 RETURN INVALID PUSH1 0x80 PUSH1 0x40 MSTORE CALLVALUE DUP1 ISZERO PUSH2 0x10 JUMPI PUSH1 0x0 DUP1 REVERT JUMPDEST POP PUSH1 0x4 CALLDATASIZE LT PUSH2 0x62 JUMPI PUSH1 0x0 CALLDATALOAD PUSH1 0xE0 SHR DUP1 PUSH4 0x2064F50E EQ PUSH2 0x67 JUMPI DUP1 PUSH4 0x36819267 EQ PUSH2 0x85 JUMPI DUP1 PUSH4 0x4F9A7F2E EQ PUSH2 0xA3 JUMPI DUP1 PUSH4 0xAC3B92E5 EQ PUSH2 0xC1 JUMPI DUP1 PUSH4 0xAD5EA36F EQ PUSH2 0xDD JUMPI DUP1 PUSH4 0xB95D95A6 EQ PUSH2 0xFB JUMPI JUMPDEST PUSH1 0x0 DUP1 REVERT JUMPDEST PUSH2 0x6F PUSH2 0x119 JUMP JUMPDEST PUSH1 0x40 MLOAD PUSH2 0x7C SWAP2 SWAP1 PUSH2 0x1AC JUMP JUMPDEST PUSH1 0x40 MLOAD DUP1 SWAP2 SUB SWAP1 RETURN JUMPDEST PUSH2 0x8D PUSH2 0x13A JUMP JUMPDEST PUSH1 0x40 MLOAD PUSH2 0x9A SWAP2 SWAP1 PUSH2 0x1AC JUMP JUMPDEST PUSH1 0x40 MLOAD DUP1 SWAP2 SUB SWAP1 RETURN JUMPDEST PUSH2 0xAB PUSH2 0x167 JUMP JUMPDEST PUSH1 0x40 MLOAD PUSH2 0xB8 SWAP2 SWAP1 PUSH2 0x1AC JUMP JUMPDEST PUSH1 0x40 MLOAD DUP1 SWAP2 SUB SWAP1 RETURN JUMPDEST PUSH2 0xDB PUSH1 0x4 DUP1 CALLDATASIZE SUB DUP2 ADD SWAP1 PUSH2 0xD6 SWAP2 SWAP1 PUSH2 0x1F8 JUMP JUMPDEST PUSH2 0x16D JUMP JUMPDEST STOP JUMPDEST PUSH2 0xE5 PUSH2 0x187 JUMP JUMPDEST PUSH1 0x40 MLOAD PUSH2 0xF2 SWAP2 SWAP1 PUSH2 0x1AC JUMP JUMPDEST PUSH1 0x40 MLOAD DUP1 SWAP2 SUB SWAP1 RETURN JUMPDEST PUSH2 0x103 PUSH2 0x18D JUMP JUMPDEST PUSH1 0x40 MLOAD PUSH2 0x110 SWAP2 SWAP1 PUSH2 0x1AC JUMP JUMPDEST PUSH1 0x40 MLOAD DUP1 SWAP2 SUB SWAP1 RETURN JUMPDEST PUSH1 0x0 DUP1 PUSH2 0x124 PUSH2 0x13A JUMP JUMPDEST SWAP1 POP PUSH1 0x1 SLOAD DUP2 PUSH2 0x134 SWAP2 SWAP1 PUSH2 0x27A JUMP JUMPDEST SWAP2 POP POP SWAP1 JUMP JUMPDEST PUSH1 0x0 PUSH1 0x2 SLOAD PUSH1 0x0 SLOAD GT ISZERO PUSH2 0x15F JUMPI PUSH1 0x2 SLOAD PUSH1 0x0 SLOAD PUSH2 0x158 SWAP2 SWAP1 PUSH2 0x2AE JUMP JUMPDEST SWAP1 POP PUSH2 0x164 JUMP JUMPDEST PUSH1 0x0 SWAP1 POP JUMPDEST SWAP1 JUMP JUMPDEST PUSH1 0x0 SLOAD DUP2 JUMP JUMPDEST DUP3 PUSH1 0x0 DUP2 SWAP1 SSTORE POP DUP2 PUSH1 0x1 DUP2 SWAP1 SSTORE POP DUP1 PUSH1 0x2 DUP2 SWAP1 SSTORE POP POP POP POP JUMP JUMPDEST PUSH1 0x1 SLOAD DUP2 JUMP JUMPDEST PUSH1 0x2 SLOAD DUP2 JUMP JUMPDEST PUSH1 0x0 DUP2 SWAP1 POP SWAP2 SWAP1 POP JUMP JUMPDEST PUSH2 0x1A6 DUP2 PUSH2 0x193 JUMP JUMPDEST DUP3 MSTORE POP POP JUMP JUMPDEST PUSH1 0x0 PUSH1 0x20 DUP3 ADD SWAP1 POP PUSH2 0x1C1 PUSH1 0x0 DUP4 ADD DUP5 PUSH2 0x19D JUMP JUMPDEST SWAP3 SWAP2 POP POP JUMP JUMPDEST PUSH1 0x0 DUP1 REVERT JUMPDEST PUSH2 0x1D5 DUP2 PUSH2 0x193 JUMP JUMPDEST DUP2 EQ PUSH2 0x1E0 JUMPI PUSH1 0x0 DUP1 REVERT JUMPDEST POP JUMP JUMPDEST PUSH1 0x0 DUP2 CALLDATALOAD SWAP1 POP PUSH2 0x1F2 DUP2 PUSH2 0x1CC JUMP JUMPDEST SWAP3 SWAP2 POP POP JUMP JUMPDEST PUSH1 0x0 DUP1 PUSH1 0x0 PUSH1 0x60 DUP5 DUP7 SUB SLT ISZERO PUSH2 0x211 JUMPI PUSH2 0x210 PUSH2 0x1C7 JUMP JUMPDEST JUMPDEST PUSH1 0x0 PUSH2 0x21F DUP7 DUP3 DUP8 ADD PUSH2 0x1E3 JUMP JUMPDEST SWAP4 POP POP PUSH1 0x20 PUSH2 0x230 DUP7 DUP3 DUP8 ADD PUSH2 0x1E3 JUMP JUMPDEST SWAP3 POP POP PUSH1 0x40 PUSH2 0x241 DUP7 DUP3 DUP8 ADD PUSH2 0x1E3 JUMP JUMPDEST SWAP2 POP POP SWAP3 POP SWAP3 POP SWAP3 JUMP JUMPDEST PUSH32 0x4E487B7100000000000000000000000000000000000000000000000000000000 PUSH1 0x0 MSTORE PUSH1 0x11 PUSH1 0x4 MSTORE PUSH1 0x24 PUSH1 0x0 REVERT JUMPDEST PUSH1 0x0 PUSH2 0x285 DUP3 PUSH2 0x193 JUMP JUMPDEST SWAP2 POP PUSH2 0x290 DUP4 PUSH2 0x193 JUMP JUMPDEST SWAP3 POP DUP3 DUP3 ADD SWAP1 POP DUP1 DUP3 GT ISZERO PUSH2 0x2A8 JUMPI PUSH2 0x2A7 PUSH2 0x24B JUMP JUMPDEST JUMPDEST SWAP3 SWAP2 POP POP JUMP JUMPDEST PUSH1 0x0 PUSH2 0x2B9 DUP3 PUSH2 0x193 JUMP JUMPDEST SWAP2 POP PUSH2 0x2C4 DUP4 PUSH2 0x193 JUMP JUMPDEST SWAP3 POP DUP3 DUP3 SUB SWAP1 POP DUP2 DUP2 GT ISZERO PUSH2 0x2DC JUMPI PUSH2 0x2DB PUSH2 0x24B JUMP JUMPDEST JUMPDEST SWAP3 SWAP2 POP POP JUMP INVALID LOG2 PUSH5 0x6970667358 0x22 SLT KECCAK256 COINBASE 0xEF XOR EXTCODECOPY MOD 0xA8 PUSH24 0xAB3DA68B2C98D0E8A3BEE79DFFC2866BBEFEB534BCC171C4 LOG0 PUSH5 0x736F6C6343 STOP ADDMOD SHR STOP CALLER "},"methodIdentifiers":{"calculateDiscountedAmount()":"36819267","calculateTotalAmount()":"2064f50e","couponValue()":"b95d95a6","orderAmount()":"4f9a7f2e","setOrderDetails(uint256,uint256,uint256)":"ac3b92e5","taxAmount()":"ad5ea36f"}}}}}