{
	"voting_system.sol": {
		"SecureVotingSystem": {
			"abi": [
				{
					"inputs": [],
					"stateMutability": "nonpayable",
					"type": "constructor"
				},
				{
					"anonymous": false,
					"inputs": [
						{
							"indexed": true,
							"internalType": "address",
							"name": "candidate",
							"type": "address"
						},
						{
							"indexed": false,
							"internalType": "string",
							"name": "name",
							"type": "string"
						}
					],
					"name": "CandidateRegistered",
					"type": "event"
				},
				{
					"anonymous": false,
					"inputs": [
						{
							"indexed": false,
							"internalType": "enum SecureVotingSystem.VotingPhase",
							"name": "newPhase",
							"type": "uint8"
						}
					],
					"name": "PhaseChanged",
					"type": "event"
				},
				{
					"anonymous": false,
					"inputs": [
						{
							"indexed": true,
							"internalType": "address",
							"name": "voter",
							"type": "address"
						},
						{
							"indexed": true,
							"internalType": "address",
							"name": "candidate",
							"type": "address"
						}
					],
					"name": "VoteCast",
					"type": "event"
				},
				{
					"anonymous": false,
					"inputs": [
						{
							"indexed": true,
							"internalType": "address",
							"name": "voter",
							"type": "address"
						}
					],
					"name": "VoterRegistered",
					"type": "event"
				},
				{
					"inputs": [],
					"name": "admin",
					"outputs": [
						{
							"internalType": "address",
							"name": "",
							"type": "address"
						}
					],
					"stateMutability": "view",
					"type": "function"
				},
				{
					"inputs": [
						{
							"internalType": "uint256",
							"name": "",
							"type": "uint256"
						}
					],
					"name": "candidateList",
					"outputs": [
						{
							"internalType": "address",
							"name": "",
							"type": "address"
						}
					],
					"stateMutability": "view",
					"type": "function"
				},
				{
					"inputs": [
						{
							"internalType": "address",
							"name": "",
							"type": "address"
						}
					],
					"name": "candidates",
					"outputs": [
						{
							"internalType": "string",
							"name": "name",
							"type": "string"
						},
						{
							"internalType": "uint256",
							"name": "voteCount",
							"type": "uint256"
						},
						{
							"internalType": "bool",
							"name": "exists",
							"type": "bool"
						}
					],
					"stateMutability": "view",
					"type": "function"
				},
				{
					"inputs": [],
					"name": "currentPhase",
					"outputs": [
						{
							"internalType": "enum SecureVotingSystem.VotingPhase",
							"name": "",
							"type": "uint8"
						}
					],
					"stateMutability": "view",
					"type": "function"
				},
				{
					"inputs": [],
					"name": "endVoting",
					"outputs": [],
					"stateMutability": "nonpayable",
					"type": "function"
				},
				{
					"inputs": [],
					"name": "getWinner",
					"outputs": [
						{
							"internalType": "address",
							"name": "winner",
							"type": "address"
						},
						{
							"internalType": "string",
							"name": "name",
							"type": "string"
						},
						{
							"internalType": "uint256",
							"name": "votes",
							"type": "uint256"
						}
					],
					"stateMutability": "view",
					"type": "function"
				},
				{
					"inputs": [
						{
							"internalType": "address",
							"name": "_candidate",
							"type": "address"
						},
						{
							"internalType": "string",
							"name": "_name",
							"type": "string"
						}
					],
					"name": "registerCandidate",
					"outputs": [],
					"stateMutability": "nonpayable",
					"type": "function"
				},
				{
					"inputs": [
						{
							"internalType": "address",
							"name": "_voter",
							"type": "address"
						}
					],
					"name": "registerVoter",
					"outputs": [],
					"stateMutability": "nonpayable",
					"type": "function"
				},
				{
					"inputs": [],
					"name": "startVoting",
					"outputs": [],
					"stateMutability": "nonpayable",
					"type": "function"
				},
				{
					"inputs": [],
					"name": "totalVotes",
					"outputs": [
						{
							"internalType": "uint256",
							"name": "",
							"type": "uint256"
						}
					],
					"stateMutability": "view",
					"type": "function"
				},
				{
					"inputs": [
						{
							"internalType": "address",
							"name": "_candidate",
							"type": "address"
						}
					],
					"name": "vote",
					"outputs": [],
					"stateMutability": "nonpayable",
					"type": "function"
				},
				{
					"inputs": [
						{
							"internalType": "address",
							"name": "",
							"type": "address"
						}
					],
					"name": "voters",
					"outputs": [
						{
							"internalType": "bool",
							"name": "isRegistered",
							"type": "bool"
						},
						{
							"internalType": "bool",
							"name": "hasVoted",
							"type": "bool"
						},
						{
							"internalType": "address",
							"name": "votedCandidate",
							"type": "address"
						}
					],
					"stateMutability": "view",
					"type": "function"
				}
			],
			"devdoc": {
				"kind": "dev",
				"methods": {},
				"version": 1
			},
			"evm": {
				"assembly": "    /* \"voting_system.sol\":127:3994  contract SecureVotingSystem is ReentrancyGuard {... */\n  mstore(0x40, 0x80)\n    /* \"voting_system.sol\":1432:1533  constructor() {... */\n  callvalue\n  dup1\n  iszero\n  tag_1\n  jumpi\n  0x00\n  dup1\n  revert\ntag_1:\n  pop\n    /* \"@openzeppelin/contracts/security/ReentrancyGuard.sol\":1716:1717  1 */\n  0x01\n    /* \"@openzeppelin/contracts/security/ReentrancyGuard.sol\":1821:1828  _status */\n  0x00\n    /* \"@openzeppelin/contracts/security/ReentrancyGuard.sol\":1821:1843  _status = _NOT_ENTERED */\n  dup2\n  swap1\n  sstore\n  pop\n    /* \"voting_system.sol\":1465:1475  msg.sender */\n  caller\n    /* \"voting_system.sol\":1457:1462  admin */\n  0x01\n  0x00\n    /* \"voting_system.sol\":1457:1475  admin = msg.sender */\n  0x0100\n  exp\n  dup2\n  sload\n  dup2\n  0xffffffffffffffffffffffffffffffffffffffff\n  mul\n  not\n  and\n  swap1\n  dup4\n  0xffffffffffffffffffffffffffffffffffffffff\n  and\n  mul\n  or\n  swap1\n  sstore\n  pop\n    /* \"voting_system.sol\":1501:1525  VotingPhase.Registration */\n  0x00\n    /* \"voting_system.sol\":1486:1498  currentPhase */\n  0x01\n  0x14\n    /* \"voting_system.sol\":1486:1525  currentPhase = VotingPhase.Registration */\n  0x0100\n  exp\n  dup2\n  sload\n  dup2\n  0xff\n  mul\n  not\n  and\n  swap1\n  dup4\n  0x02\n  dup2\n  gt\n  iszero\n  tag_6\n  jumpi\n  tag_7\n  tag_8\n  jump\t// in\ntag_7:\ntag_6:\n  mul\n  or\n  swap1\n  sstore\n  pop\n    /* \"voting_system.sol\":127:3994  contract SecureVotingSystem is ReentrancyGuard {... */\n  jump(tag_9)\n    /* \"#utility.yul\":7:187   */\ntag_8:\n    /* \"#utility.yul\":55:132   */\n  0x4e487b7100000000000000000000000000000000000000000000000000000000\n    /* \"#utility.yul\":52:53   */\n  0x00\n    /* \"#utility.yul\":45:133   */\n  mstore\n    /* \"#utility.yul\":152:156   */\n  0x21\n    /* \"#utility.yul\":149:150   */\n  0x04\n    /* \"#utility.yul\":142:157   */\n  mstore\n    /* \"#utility.yul\":176:180   */\n  0x24\n    /* \"#utility.yul\":173:174   */\n  0x00\n    /* \"#utility.yul\":166:181   */\n  revert\n    /* \"voting_system.sol\":127:3994  contract SecureVotingSystem is ReentrancyGuard {... */\ntag_9:\n  dataSize(sub_0)\n  dup1\n  dataOffset(sub_0)\n  0x00\n  codecopy\n  0x00\n  return\nstop\n\nsub_0: assembly {\n        /* \"voting_system.sol\":127:3994  contract SecureVotingSystem is ReentrancyGuard {... */\n      mstore(0x40, 0x80)\n      callvalue\n      dup1\n      iszero\n      tag_1\n      jumpi\n      0x00\n      dup1\n      revert\n    tag_1:\n      pop\n      jumpi(tag_2, lt(calldatasize, 0x04))\n      shr(0xe0, calldataload(0x00))\n      dup1\n      0x8e7ea5b2\n      gt\n      tag_15\n      jumpi\n      dup1\n      0x8e7ea5b2\n      eq\n      tag_9\n      jumpi\n      dup1\n      0xa3ec138d\n      eq\n      tag_10\n      jumpi\n      dup1\n      0xb0d30d2f\n      eq\n      tag_11\n      jumpi\n      dup1\n      0xb13c744b\n      eq\n      tag_12\n      jumpi\n      dup1\n      0xc3403ddf\n      eq\n      tag_13\n      jumpi\n      dup1\n      0xf851a440\n      eq\n      tag_14\n      jumpi\n      jump(tag_2)\n    tag_15:\n      dup1\n      0x055ad42e\n      eq\n      tag_3\n      jumpi\n      dup1\n      0x0d15fd77\n      eq\n      tag_4\n      jumpi\n      dup1\n      0x1ec6b60a\n      eq\n      tag_5\n      jumpi\n      dup1\n      0x38db6dd3\n      eq\n      tag_6\n      jumpi\n      dup1\n      0x6dd7d8ea\n      eq\n      tag_7\n      jumpi\n      dup1\n      0x8ab66a90\n      eq\n      tag_8\n      jumpi\n    tag_2:\n      0x00\n      dup1\n      revert\n        /* \"voting_system.sol\":321:352  VotingPhase public currentPhase */\n    tag_3:\n      tag_16\n      tag_17\n      jump\t// in\n    tag_16:\n      mload(0x40)\n      tag_18\n      swap2\n      swap1\n      tag_19\n      jump\t// in\n    tag_18:\n      mload(0x40)\n      dup1\n      swap2\n      sub\n      swap1\n      return\n        /* \"voting_system.sol\":873:898  uint256 public totalVotes */\n    tag_4:\n      tag_20\n      tag_21\n      jump\t// in\n    tag_20:\n      mload(0x40)\n      tag_22\n      swap2\n      swap1\n      tag_23\n      jump\t// in\n    tag_22:\n      mload(0x40)\n      dup1\n      swap2\n      sub\n      swap1\n      return\n        /* \"voting_system.sol\":2301:2556  function startVoting() external onlyAdmin inPhase(VotingPhase.Registration) {... */\n    tag_5:\n      tag_24\n      tag_25\n      jump\t// in\n    tag_24:\n      stop\n        /* \"voting_system.sol\":1984:2259  function registerVoter(address _voter) external onlyAdmin inPhase(VotingPhase.Registration) {... */\n    tag_6:\n      tag_26\n      0x04\n      dup1\n      calldatasize\n      sub\n      dup2\n      add\n      swap1\n      tag_27\n      swap2\n      swap1\n      tag_28\n      jump\t// in\n    tag_27:\n      tag_29\n      jump\t// in\n    tag_26:\n      stop\n        /* \"voting_system.sol\":2624:3167  function vote(address _candidate) external nonReentrant inPhase(VotingPhase.Voting) {... */\n    tag_7:\n      tag_30\n      0x04\n      dup1\n      calldatasize\n      sub\n      dup2\n      add\n      swap1\n      tag_31\n      swap2\n      swap1\n      tag_28\n      jump\t// in\n    tag_31:\n      tag_32\n      jump\t// in\n    tag_30:\n      stop\n        /* \"voting_system.sol\":636:683  mapping(address => Candidate) public candidates */\n    tag_8:\n      tag_33\n      0x04\n      dup1\n      calldatasize\n      sub\n      dup2\n      add\n      swap1\n      tag_34\n      swap2\n      swap1\n      tag_28\n      jump\t// in\n    tag_34:\n      tag_35\n      jump\t// in\n    tag_33:\n      mload(0x40)\n      tag_36\n      swap4\n      swap3\n      swap2\n      swap1\n      tag_37\n      jump\t// in\n    tag_36:\n      mload(0x40)\n      dup1\n      swap2\n      sub\n      swap1\n      return\n        /* \"voting_system.sol\":3444:3991  function getWinner() external view inPhase(VotingPhase.Ended) returns (address winner, string memory name, uint256 votes) {... */\n    tag_9:\n      tag_38\n      tag_39\n      jump\t// in\n    tag_38:\n      mload(0x40)\n      tag_40\n      swap4\n      swap3\n      swap2\n      swap1\n      tag_41\n      jump\t// in\n    tag_40:\n      mload(0x40)\n      dup1\n      swap2\n      sub\n      swap1\n      return\n        /* \"voting_system.sol\":725:764  mapping(address => Voter) public voters */\n    tag_10:\n      tag_42\n      0x04\n      dup1\n      calldatasize\n      sub\n      dup2\n      add\n      swap1\n      tag_43\n      swap2\n      swap1\n      tag_28\n      jump\t// in\n    tag_43:\n      tag_44\n      jump\t// in\n    tag_42:\n      mload(0x40)\n      tag_45\n      swap4\n      swap3\n      swap2\n      swap1\n      tag_46\n      jump\t// in\n    tag_45:\n      mload(0x40)\n      dup1\n      swap2\n      sub\n      swap1\n      return\n        /* \"voting_system.sol\":1576:1945  function registerCandidate(address _candidate, string memory _name) external onlyAdmin inPhase(VotingPhase.Registration) {... */\n    tag_11:\n      tag_47\n      0x04\n      dup1\n      calldatasize\n      sub\n      dup2\n      add\n      swap1\n      tag_48\n      swap2\n      swap1\n      tag_49\n      jump\t// in\n    tag_48:\n      tag_50\n      jump\t// in\n    tag_47:\n      stop\n        /* \"voting_system.sol\":811:841  address[] public candidateList */\n    tag_12:\n      tag_51\n      0x04\n      dup1\n      calldatasize\n      sub\n      dup2\n      add\n      swap1\n      tag_52\n      swap2\n      swap1\n      tag_53\n      jump\t// in\n    tag_52:\n      tag_54\n      jump\t// in\n    tag_51:\n      mload(0x40)\n      tag_55\n      swap2\n      swap1\n      tag_56\n      jump\t// in\n    tag_55:\n      mload(0x40)\n      dup1\n      swap2\n      sub\n      swap1\n      return\n        /* \"voting_system.sol\":3224:3390  function endVoting() external onlyAdmin inPhase(VotingPhase.Voting) {... */\n    tag_13:\n      tag_57\n      tag_58\n      jump\t// in\n    tag_57:\n      stop\n        /* \"voting_system.sol\":216:236  address public admin */\n    tag_14:\n      tag_59\n      tag_60\n      jump\t// in\n    tag_59:\n      mload(0x40)\n      tag_61\n      swap2\n      swap1\n      tag_56\n      jump\t// in\n    tag_61:\n      mload(0x40)\n      dup1\n      swap2\n      sub\n      swap1\n      return\n        /* \"voting_system.sol\":321:352  VotingPhase public currentPhase */\n    tag_17:\n      0x01\n      0x14\n      swap1\n      sload\n      swap1\n      0x0100\n      exp\n      swap1\n      div\n      0xff\n      and\n      dup2\n      jump\t// out\n        /* \"voting_system.sol\":873:898  uint256 public totalVotes */\n    tag_21:\n      sload(0x05)\n      dup2\n      jump\t// out\n        /* \"voting_system.sol\":2301:2556  function startVoting() external onlyAdmin inPhase(VotingPhase.Registration) {... */\n    tag_25:\n        /* \"voting_system.sol\":1219:1224  admin */\n      0x01\n      0x00\n      swap1\n      sload\n      swap1\n      0x0100\n      exp\n      swap1\n      div\n      0xffffffffffffffffffffffffffffffffffffffff\n      and\n        /* \"voting_system.sol\":1205:1224  msg.sender == admin */\n      0xffffffffffffffffffffffffffffffffffffffff\n      and\n        /* \"voting_system.sol\":1205:1215  msg.sender */\n      caller\n        /* \"voting_system.sol\":1205:1224  msg.sender == admin */\n      0xffffffffffffffffffffffffffffffffffffffff\n      and\n      eq\n        /* \"voting_system.sol\":1197:1263  require(msg.sender == admin, \"Only admin can perform this action\") */\n      tag_63\n      jumpi\n      mload(0x40)\n      0x08c379a000000000000000000000000000000000000000000000000000000000\n      dup2\n      mstore\n      0x04\n      add\n      tag_64\n      swap1\n      tag_65\n      jump\t// in\n    tag_64:\n      mload(0x40)\n      dup1\n      swap2\n      sub\n      swap1\n      revert\n    tag_63:\n        /* \"voting_system.sol\":2351:2375  VotingPhase.Registration */\n      0x00\n        /* \"voting_system.sol\":1362:1367  phase */\n      dup1\n        /* \"voting_system.sol\":1346:1367  currentPhase == phase */\n      0x02\n      dup2\n      gt\n      iszero\n      tag_67\n      jumpi\n      tag_68\n      tag_69\n      jump\t// in\n    tag_68:\n    tag_67:\n        /* \"voting_system.sol\":1346:1358  currentPhase */\n      0x01\n      0x14\n      swap1\n      sload\n      swap1\n      0x0100\n      exp\n      swap1\n      div\n      0xff\n      and\n        /* \"voting_system.sol\":1346:1367  currentPhase == phase */\n      0x02\n      dup2\n      gt\n      iszero\n      tag_70\n      jumpi\n      tag_71\n      tag_69\n      jump\t// in\n    tag_71:\n    tag_70:\n      eq\n        /* \"voting_system.sol\":1338:1404  require(currentPhase == phase, \"Action not allowed in this phase\") */\n      tag_72\n      jumpi\n      mload(0x40)\n      0x08c379a000000000000000000000000000000000000000000000000000000000\n      dup2\n      mstore\n      0x04\n      add\n      tag_73\n      swap1\n      tag_74\n      jump\t// in\n    tag_73:\n      mload(0x40)\n      dup1\n      swap2\n      sub\n      swap1\n      revert\n    tag_72:\n        /* \"voting_system.sol\":2419:2420  0 */\n      0x00\n        /* \"voting_system.sol\":2396:2409  candidateList */\n      0x04\n        /* \"voting_system.sol\":2396:2416  candidateList.length */\n      dup1\n      sload\n      swap1\n      pop\n        /* \"voting_system.sol\":2396:2420  candidateList.length > 0 */\n      gt\n        /* \"voting_system.sol\":2388:2456  require(candidateList.length > 0, \"At least one candidate required\") */\n      tag_76\n      jumpi\n      mload(0x40)\n      0x08c379a000000000000000000000000000000000000000000000000000000000\n      dup2\n      mstore\n      0x04\n      add\n      tag_77\n      swap1\n      tag_78\n      jump\t// in\n    tag_77:\n      mload(0x40)\n      dup1\n      swap2\n      sub\n      swap1\n      revert\n    tag_76:\n        /* \"voting_system.sol\":2482:2500  VotingPhase.Voting */\n      0x01\n        /* \"voting_system.sol\":2467:2479  currentPhase */\n      dup1\n      0x14\n        /* \"voting_system.sol\":2467:2500  currentPhase = VotingPhase.Voting */\n      0x0100\n      exp\n      dup2\n      sload\n      dup2\n      0xff\n      mul\n      not\n      and\n      swap1\n      dup4\n      0x02\n      dup2\n      gt\n      iszero\n      tag_79\n      jumpi\n      tag_80\n      tag_69\n      jump\t// in\n    tag_80:\n    tag_79:\n      mul\n      or\n      swap1\n      sstore\n      pop\n        /* \"voting_system.sol\":2516:2548  PhaseChanged(VotingPhase.Voting) */\n      0xa6dcc92f45df25789d5639b7a0c97ba1edf3bb1c0b5dd3376fd96a0db87c4642\n        /* \"voting_system.sol\":2529:2547  VotingPhase.Voting */\n      0x01\n        /* \"voting_system.sol\":2516:2548  PhaseChanged(VotingPhase.Voting) */\n      mload(0x40)\n      tag_81\n      swap2\n      swap1\n      tag_19\n      jump\t// in\n    tag_81:\n      mload(0x40)\n      dup1\n      swap2\n      sub\n      swap1\n      log1\n        /* \"voting_system.sol\":1274:1275  _ */\n      pop\n        /* \"voting_system.sol\":2301:2556  function startVoting() external onlyAdmin inPhase(VotingPhase.Registration) {... */\n      jump\t// out\n        /* \"voting_system.sol\":1984:2259  function registerVoter(address _voter) external onlyAdmin inPhase(VotingPhase.Registration) {... */\n    tag_29:\n        /* \"voting_system.sol\":1219:1224  admin */\n      0x01\n      0x00\n      swap1\n      sload\n      swap1\n      0x0100\n      exp\n      swap1\n      div\n      0xffffffffffffffffffffffffffffffffffffffff\n      and\n        /* \"voting_system.sol\":1205:1224  msg.sender == admin */\n      0xffffffffffffffffffffffffffffffffffffffff\n      and\n        /* \"voting_system.sol\":1205:1215  msg.sender */\n      caller\n        /* \"voting_system.sol\":1205:1224  msg.sender == admin */\n      0xffffffffffffffffffffffffffffffffffffffff\n      and\n      eq\n        /* \"voting_system.sol\":1197:1263  require(msg.sender == admin, \"Only admin can perform this action\") */\n      tag_83\n      jumpi\n      mload(0x40)\n      0x08c379a000000000000000000000000000000000000000000000000000000000\n      dup2\n      mstore\n      0x04\n      add\n      tag_84\n      swap1\n      tag_65\n      jump\t// in\n    tag_84:\n      mload(0x40)\n      dup1\n      swap2\n      sub\n      swap1\n      revert\n    tag_83:\n        /* \"voting_system.sol\":2050:2074  VotingPhase.Registration */\n      0x00\n        /* \"voting_system.sol\":1362:1367  phase */\n      dup1\n        /* \"voting_system.sol\":1346:1367  currentPhase == phase */\n      0x02\n      dup2\n      gt\n      iszero\n      tag_86\n      jumpi\n      tag_87\n      tag_69\n      jump\t// in\n    tag_87:\n    tag_86:\n        /* \"voting_system.sol\":1346:1358  currentPhase */\n      0x01\n      0x14\n      swap1\n      sload\n      swap1\n      0x0100\n      exp\n      swap1\n      div\n      0xff\n      and\n        /* \"voting_system.sol\":1346:1367  currentPhase == phase */\n      0x02\n      dup2\n      gt\n      iszero\n      tag_88\n      jumpi\n      tag_89\n      tag_69\n      jump\t// in\n    tag_89:\n    tag_88:\n      eq\n        /* \"voting_system.sol\":1338:1404  require(currentPhase == phase, \"Action not allowed in this phase\") */\n      tag_90\n      jumpi\n      mload(0x40)\n      0x08c379a000000000000000000000000000000000000000000000000000000000\n      dup2\n      mstore\n      0x04\n      add\n      tag_91\n      swap1\n      tag_74\n      jump\t// in\n    tag_91:\n      mload(0x40)\n      dup1\n      swap2\n      sub\n      swap1\n      revert\n    tag_90:\n        /* \"voting_system.sol\":2096:2102  voters */\n      0x03\n        /* \"voting_system.sol\":2096:2110  voters[_voter] */\n      0x00\n        /* \"voting_system.sol\":2103:2109  _voter */\n      dup4\n        /* \"voting_system.sol\":2096:2110  voters[_voter] */\n      0xffffffffffffffffffffffffffffffffffffffff\n      and\n      0xffffffffffffffffffffffffffffffffffffffff\n      and\n      dup2\n      mstore\n      0x20\n      add\n      swap1\n      dup2\n      mstore\n      0x20\n      add\n      0x00\n      keccak256\n        /* \"voting_system.sol\":2096:2123  voters[_voter].isRegistered */\n      0x00\n      add\n      0x00\n      swap1\n      sload\n      swap1\n      0x0100\n      exp\n      swap1\n      div\n      0xff\n      and\n        /* \"voting_system.sol\":2095:2123  !voters[_voter].isRegistered */\n      iszero\n        /* \"voting_system.sol\":2087:2152  require(!voters[_voter].isRegistered, \"Voter already registered\") */\n      tag_93\n      jumpi\n      mload(0x40)\n      0x08c379a000000000000000000000000000000000000000000000000000000000\n      dup2\n      mstore\n      0x04\n      add\n      tag_94\n      swap1\n      tag_95\n      jump\t// in\n    tag_94:\n      mload(0x40)\n      dup1\n      swap2\n      sub\n      swap1\n      revert\n    tag_93:\n        /* \"voting_system.sol\":2180:2210  Voter(true, false, address(0)) */\n      mload(0x40)\n      dup1\n      0x60\n      add\n      0x40\n      mstore\n      dup1\n        /* \"voting_system.sol\":2186:2190  true */\n      0x01\n        /* \"voting_system.sol\":2180:2210  Voter(true, false, address(0)) */\n      iszero\n      iszero\n      dup2\n      mstore\n      0x20\n      add\n        /* \"voting_system.sol\":2192:2197  false */\n      0x00\n        /* \"voting_system.sol\":2180:2210  Voter(true, false, address(0)) */\n      iszero\n      iszero\n      dup2\n      mstore\n      0x20\n      add\n        /* \"voting_system.sol\":2207:2208  0 */\n      0x00\n        /* \"voting_system.sol\":2180:2210  Voter(true, false, address(0)) */\n      0xffffffffffffffffffffffffffffffffffffffff\n      and\n      dup2\n      mstore\n      pop\n        /* \"voting_system.sol\":2163:2169  voters */\n      0x03\n        /* \"voting_system.sol\":2163:2177  voters[_voter] */\n      0x00\n        /* \"voting_system.sol\":2170:2176  _voter */\n      dup5\n        /* \"voting_system.sol\":2163:2177  voters[_voter] */\n      0xffffffffffffffffffffffffffffffffffffffff\n      and\n      0xffffffffffffffffffffffffffffffffffffffff\n      and\n      dup2\n      mstore\n      0x20\n      add\n      swap1\n      dup2\n      mstore\n      0x20\n      add\n      0x00\n      keccak256\n        /* \"voting_system.sol\":2163:2210  voters[_voter] = Voter(true, false, address(0)) */\n      0x00\n      dup3\n      add\n      mload\n      dup2\n      0x00\n      add\n      exp(0x0100, 0x00)\n      dup2\n      sload\n      dup2\n      0xff\n      mul\n      not\n      and\n      swap1\n      dup4\n      iszero\n      iszero\n      mul\n      or\n      swap1\n      sstore\n      pop\n      0x20\n      dup3\n      add\n      mload\n      dup2\n      0x00\n      add\n      exp(0x0100, 0x01)\n      dup2\n      sload\n      dup2\n      0xff\n      mul\n      not\n      and\n      swap1\n      dup4\n      iszero\n      iszero\n      mul\n      or\n      swap1\n      sstore\n      pop\n      0x40\n      dup3\n      add\n      mload\n      dup2\n      0x00\n      add\n      exp(0x0100, 0x02)\n      dup2\n      sload\n      dup2\n      0xffffffffffffffffffffffffffffffffffffffff\n      mul\n      not\n      and\n      swap1\n      dup4\n      0xffffffffffffffffffffffffffffffffffffffff\n      and\n      mul\n      or\n      swap1\n      sstore\n      pop\n      swap1\n      pop\n      pop\n        /* \"voting_system.sol\":2244:2250  _voter */\n      dup2\n        /* \"voting_system.sol\":2228:2251  VoterRegistered(_voter) */\n      0xffffffffffffffffffffffffffffffffffffffff\n      and\n      0xb6be2187d059cc2a55fe29e0e503b566e1e0f8c8780096e185429350acffd3dd\n      mload(0x40)\n      mload(0x40)\n      dup1\n      swap2\n      sub\n      swap1\n      log2\n        /* \"voting_system.sol\":1274:1275  _ */\n      pop\n        /* \"voting_system.sol\":1984:2259  function registerVoter(address _voter) external onlyAdmin inPhase(VotingPhase.Registration) {... */\n      pop\n      jump\t// out\n        /* \"voting_system.sol\":2624:3167  function vote(address _candidate) external nonReentrant inPhase(VotingPhase.Voting) {... */\n    tag_32:\n        /* \"@openzeppelin/contracts/security/ReentrancyGuard.sol\":2261:2282  _nonReentrantBefore() */\n      tag_97\n        /* \"@openzeppelin/contracts/security/ReentrancyGuard.sol\":2261:2280  _nonReentrantBefore */\n      tag_98\n        /* \"@openzeppelin/contracts/security/ReentrancyGuard.sol\":2261:2282  _nonReentrantBefore() */\n      jump\t// in\n    tag_97:\n        /* \"voting_system.sol\":2688:2706  VotingPhase.Voting */\n      0x01\n        /* \"voting_system.sol\":1362:1367  phase */\n      dup1\n        /* \"voting_system.sol\":1346:1367  currentPhase == phase */\n      0x02\n      dup2\n      gt\n      iszero\n      tag_100\n      jumpi\n      tag_101\n      tag_69\n      jump\t// in\n    tag_101:\n    tag_100:\n        /* \"voting_system.sol\":1346:1358  currentPhase */\n      0x01\n      0x14\n      swap1\n      sload\n      swap1\n      0x0100\n      exp\n      swap1\n      div\n      0xff\n      and\n        /* \"voting_system.sol\":1346:1367  currentPhase == phase */\n      0x02\n      dup2\n      gt\n      iszero\n      tag_102\n      jumpi\n      tag_103\n      tag_69\n      jump\t// in\n    tag_103:\n    tag_102:\n      eq\n        /* \"voting_system.sol\":1338:1404  require(currentPhase == phase, \"Action not allowed in this phase\") */\n      tag_104\n      jumpi\n      mload(0x40)\n      0x08c379a000000000000000000000000000000000000000000000000000000000\n      dup2\n      mstore\n      0x04\n      add\n      tag_105\n      swap1\n      tag_74\n      jump\t// in\n    tag_105:\n      mload(0x40)\n      dup1\n      swap2\n      sub\n      swap1\n      revert\n    tag_104:\n        /* \"voting_system.sol\":2727:2733  voters */\n      0x03\n        /* \"voting_system.sol\":2727:2745  voters[msg.sender] */\n      0x00\n        /* \"voting_system.sol\":2734:2744  msg.sender */\n      caller\n        /* \"voting_system.sol\":2727:2745  voters[msg.sender] */\n      0xffffffffffffffffffffffffffffffffffffffff\n      and\n      0xffffffffffffffffffffffffffffffffffffffff\n      and\n      dup2\n      mstore\n      0x20\n      add\n      swap1\n      dup2\n      mstore\n      0x20\n      add\n      0x00\n      keccak256\n        /* \"voting_system.sol\":2727:2758  voters[msg.sender].isRegistered */\n      0x00\n      add\n      0x00\n      swap1\n      sload\n      swap1\n      0x0100\n      exp\n      swap1\n      div\n      0xff\n      and\n        /* \"voting_system.sol\":2719:2793  require(voters[msg.sender].isRegistered, \"You are not registered to vote\") */\n      tag_107\n      jumpi\n      mload(0x40)\n      0x08c379a000000000000000000000000000000000000000000000000000000000\n      dup2\n      mstore\n      0x04\n      add\n      tag_108\n      swap1\n      tag_109\n      jump\t// in\n    tag_108:\n      mload(0x40)\n      dup1\n      swap2\n      sub\n      swap1\n      revert\n    tag_107:\n        /* \"voting_system.sol\":2813:2819  voters */\n      0x03\n        /* \"voting_system.sol\":2813:2831  voters[msg.sender] */\n      0x00\n        /* \"voting_system.sol\":2820:2830  msg.sender */\n      caller\n        /* \"voting_system.sol\":2813:2831  voters[msg.sender] */\n      0xffffffffffffffffffffffffffffffffffffffff\n      and\n      0xffffffffffffffffffffffffffffffffffffffff\n      and\n      dup2\n      mstore\n      0x20\n      add\n      swap1\n      dup2\n      mstore\n      0x20\n      add\n      0x00\n      keccak256\n        /* \"voting_system.sol\":2813:2840  voters[msg.sender].hasVoted */\n      0x00\n      add\n      0x01\n      swap1\n      sload\n      swap1\n      0x0100\n      exp\n      swap1\n      div\n      0xff\n      and\n        /* \"voting_system.sol\":2812:2840  !voters[msg.sender].hasVoted */\n      iszero\n        /* \"voting_system.sol\":2804:2867  require(!voters[msg.sender].hasVoted, \"You have already voted\") */\n      tag_110\n      jumpi\n      mload(0x40)\n      0x08c379a000000000000000000000000000000000000000000000000000000000\n      dup2\n      mstore\n      0x04\n      add\n      tag_111\n      swap1\n      tag_112\n      jump\t// in\n    tag_111:\n      mload(0x40)\n      dup1\n      swap2\n      sub\n      swap1\n      revert\n    tag_110:\n        /* \"voting_system.sol\":2886:2896  candidates */\n      0x02\n        /* \"voting_system.sol\":2886:2908  candidates[_candidate] */\n      0x00\n        /* \"voting_system.sol\":2897:2907  _candidate */\n      dup4\n        /* \"voting_system.sol\":2886:2908  candidates[_candidate] */\n      0xffffffffffffffffffffffffffffffffffffffff\n      and\n      0xffffffffffffffffffffffffffffffffffffffff\n      and\n      dup2\n      mstore\n      0x20\n      add\n      swap1\n      dup2\n      mstore\n      0x20\n      add\n      0x00\n      keccak256\n        /* \"voting_system.sol\":2886:2915  candidates[_candidate].exists */\n      0x02\n      add\n      0x00\n      swap1\n      sload\n      swap1\n      0x0100\n      exp\n      swap1\n      div\n      0xff\n      and\n        /* \"voting_system.sol\":2878:2937  require(candidates[_candidate].exists, \"Invalid candidate\") */\n      tag_113\n      jumpi\n      mload(0x40)\n      0x08c379a000000000000000000000000000000000000000000000000000000000\n      dup2\n      mstore\n      0x04\n      add\n      tag_114\n      swap1\n      tag_115\n      jump\t// in\n    tag_114:\n      mload(0x40)\n      dup1\n      swap2\n      sub\n      swap1\n      revert\n    tag_113:\n        /* \"voting_system.sol\":2980:2984  true */\n      0x01\n        /* \"voting_system.sol\":2950:2956  voters */\n      0x03\n        /* \"voting_system.sol\":2950:2968  voters[msg.sender] */\n      0x00\n        /* \"voting_system.sol\":2957:2967  msg.sender */\n      caller\n        /* \"voting_system.sol\":2950:2968  voters[msg.sender] */\n      0xffffffffffffffffffffffffffffffffffffffff\n      and\n      0xffffffffffffffffffffffffffffffffffffffff\n      and\n      dup2\n      mstore\n      0x20\n      add\n      swap1\n      dup2\n      mstore\n      0x20\n      add\n      0x00\n      keccak256\n        /* \"voting_system.sol\":2950:2977  voters[msg.sender].hasVoted */\n      0x00\n      add\n      0x01\n        /* \"voting_system.sol\":2950:2984  voters[msg.sender].hasVoted = true */\n      0x0100\n      exp\n      dup2\n      sload\n      dup2\n      0xff\n      mul\n      not\n      and\n      swap1\n      dup4\n      iszero\n      iszero\n      mul\n      or\n      swap1\n      sstore\n      pop\n        /* \"voting_system.sol\":3031:3041  _candidate */\n      dup2\n        /* \"voting_system.sol\":2995:3001  voters */\n      0x03\n        /* \"voting_system.sol\":2995:3013  voters[msg.sender] */\n      0x00\n        /* \"voting_system.sol\":3002:3012  msg.sender */\n      caller\n        /* \"voting_system.sol\":2995:3013  voters[msg.sender] */\n      0xffffffffffffffffffffffffffffffffffffffff\n      and\n      0xffffffffffffffffffffffffffffffffffffffff\n      and\n      dup2\n      mstore\n      0x20\n      add\n      swap1\n      dup2\n      mstore\n      0x20\n      add\n      0x00\n      keccak256\n        /* \"voting_system.sol\":2995:3028  voters[msg.sender].votedCandidate */\n      0x00\n      add\n      0x02\n        /* \"voting_system.sol\":2995:3041  voters[msg.sender].votedCandidate = _candidate */\n      0x0100\n      exp\n      dup2\n      sload\n      dup2\n      0xffffffffffffffffffffffffffffffffffffffff\n      mul\n      not\n      and\n      swap1\n      dup4\n      0xffffffffffffffffffffffffffffffffffffffff\n      and\n      mul\n      or\n      swap1\n      sstore\n      pop\n        /* \"voting_system.sol\":3052:3062  candidates */\n      0x02\n        /* \"voting_system.sol\":3052:3074  candidates[_candidate] */\n      0x00\n        /* \"voting_system.sol\":3063:3073  _candidate */\n      dup4\n        /* \"voting_system.sol\":3052:3074  candidates[_candidate] */\n      0xffffffffffffffffffffffffffffffffffffffff\n      and\n      0xffffffffffffffffffffffffffffffffffffffff\n      and\n      dup2\n      mstore\n      0x20\n      add\n      swap1\n      dup2\n      mstore\n      0x20\n      add\n      0x00\n      keccak256\n        /* \"voting_system.sol\":3052:3084  candidates[_candidate].voteCount */\n      0x01\n      add\n      0x00\n        /* \"voting_system.sol\":3052:3086  candidates[_candidate].voteCount++ */\n      dup2\n      sload\n      dup1\n      swap3\n      swap2\n      swap1\n      tag_116\n      swap1\n      tag_117\n      jump\t// in\n    tag_116:\n      swap2\n      swap1\n      pop\n      sstore\n      pop\n        /* \"voting_system.sol\":3097:3107  totalVotes */\n      0x05\n      0x00\n        /* \"voting_system.sol\":3097:3109  totalVotes++ */\n      dup2\n      sload\n      dup1\n      swap3\n      swap2\n      swap1\n      tag_118\n      swap1\n      tag_117\n      jump\t// in\n    tag_118:\n      swap2\n      swap1\n      pop\n      sstore\n      pop\n        /* \"voting_system.sol\":3148:3158  _candidate */\n      dup2\n        /* \"voting_system.sol\":3127:3159  VoteCast(msg.sender, _candidate) */\n      0xffffffffffffffffffffffffffffffffffffffff\n      and\n        /* \"voting_system.sol\":3136:3146  msg.sender */\n      caller\n        /* \"voting_system.sol\":3127:3159  VoteCast(msg.sender, _candidate) */\n      0xffffffffffffffffffffffffffffffffffffffff\n      and\n      0x113ed09b18bb8fe2635af16f21d67464502d920ff1015abfe08dbe9a2971a7e2\n      mload(0x40)\n      mload(0x40)\n      dup1\n      swap2\n      sub\n      swap1\n      log3\n        /* \"@openzeppelin/contracts/security/ReentrancyGuard.sol\":2292:2293  _ */\n      pop\n        /* \"@openzeppelin/contracts/security/ReentrancyGuard.sol\":2303:2323  _nonReentrantAfter() */\n      tag_119\n        /* \"@openzeppelin/contracts/security/ReentrancyGuard.sol\":2303:2321  _nonReentrantAfter */\n      tag_120\n        /* \"@openzeppelin/contracts/security/ReentrancyGuard.sol\":2303:2323  _nonReentrantAfter() */\n      jump\t// in\n    tag_119:\n        /* \"voting_system.sol\":2624:3167  function vote(address _candidate) external nonReentrant inPhase(VotingPhase.Voting) {... */\n      pop\n      jump\t// out\n        /* \"voting_system.sol\":636:683  mapping(address => Candidate) public candidates */\n    tag_35:\n      mstore(0x20, 0x02)\n      dup1\n      0x00\n      mstore\n      keccak256(0x00, 0x40)\n      0x00\n      swap2\n      pop\n      swap1\n      pop\n      dup1\n      0x00\n      add\n      dup1\n      sload\n      tag_121\n      swap1\n      tag_122\n      jump\t// in\n    tag_121:\n      dup1\n      0x1f\n      add\n      0x20\n      dup1\n      swap2\n      div\n      mul\n      0x20\n      add\n      mload(0x40)\n      swap1\n      dup2\n      add\n      0x40\n      mstore\n      dup1\n      swap3\n      swap2\n      swap1\n      dup2\n      dup2\n      mstore\n      0x20\n      add\n      dup3\n      dup1\n      sload\n      tag_123\n      swap1\n      tag_122\n      jump\t// in\n    tag_123:\n      dup1\n      iszero\n      tag_124\n      jumpi\n      dup1\n      0x1f\n      lt\n      tag_125\n      jumpi\n      0x0100\n      dup1\n      dup4\n      sload\n      div\n      mul\n      dup4\n      mstore\n      swap2\n      0x20\n      add\n      swap2\n      jump(tag_124)\n    tag_125:\n      dup3\n      add\n      swap2\n      swap1\n      0x00\n      mstore\n      keccak256(0x00, 0x20)\n      swap1\n    tag_126:\n      dup2\n      sload\n      dup2\n      mstore\n      swap1\n      0x01\n      add\n      swap1\n      0x20\n      add\n      dup1\n      dup4\n      gt\n      tag_126\n      jumpi\n      dup3\n      swap1\n      sub\n      0x1f\n      and\n      dup3\n      add\n      swap2\n    tag_124:\n      pop\n      pop\n      pop\n      pop\n      pop\n      swap1\n      dup1\n      0x01\n      add\n      sload\n      swap1\n      dup1\n      0x02\n      add\n      0x00\n      swap1\n      sload\n      swap1\n      0x0100\n      exp\n      swap1\n      div\n      0xff\n      and\n      swap1\n      pop\n      dup4\n      jump\t// out\n        /* \"voting_system.sol\":3444:3991  function getWinner() external view inPhase(VotingPhase.Ended) returns (address winner, string memory name, uint256 votes) {... */\n    tag_39:\n        /* \"voting_system.sol\":3515:3529  address winner */\n      0x00\n        /* \"voting_system.sol\":3531:3549  string memory name */\n      0x60\n        /* \"voting_system.sol\":3551:3564  uint256 votes */\n      0x00\n        /* \"voting_system.sol\":3487:3504  VotingPhase.Ended */\n      0x02\n        /* \"voting_system.sol\":1362:1367  phase */\n      dup1\n        /* \"voting_system.sol\":1346:1367  currentPhase == phase */\n      0x02\n      dup2\n      gt\n      iszero\n      tag_128\n      jumpi\n      tag_129\n      tag_69\n      jump\t// in\n    tag_129:\n    tag_128:\n        /* \"voting_system.sol\":1346:1358  currentPhase */\n      0x01\n      0x14\n      swap1\n      sload\n      swap1\n      0x0100\n      exp\n      swap1\n      div\n      0xff\n      and\n        /* \"voting_system.sol\":1346:1367  currentPhase == phase */\n      0x02\n      dup2\n      gt\n      iszero\n      tag_130\n      jumpi\n      tag_131\n      tag_69\n      jump\t// in\n    tag_131:\n    tag_130:\n      eq\n        /* \"voting_system.sol\":1338:1404  require(currentPhase == phase, \"Action not allowed in this phase\") */\n      tag_132\n      jumpi\n      mload(0x40)\n      0x08c379a000000000000000000000000000000000000000000000000000000000\n      dup2\n      mstore\n      0x04\n      add\n      tag_133\n      swap1\n      tag_74\n      jump\t// in\n    tag_133:\n      mload(0x40)\n      dup1\n      swap2\n      sub\n      swap1\n      revert\n    tag_132:\n        /* \"voting_system.sol\":3598:3599  0 */\n      0x00\n        /* \"voting_system.sol\":3585:3595  totalVotes */\n      sload(0x05)\n        /* \"voting_system.sol\":3585:3599  totalVotes > 0 */\n      gt\n        /* \"voting_system.sol\":3577:3617  require(totalVotes > 0, \"No votes cast\") */\n      tag_135\n      jumpi\n      mload(0x40)\n      0x08c379a000000000000000000000000000000000000000000000000000000000\n      dup2\n      mstore\n      0x04\n      add\n      tag_136\n      swap1\n      tag_137\n      jump\t// in\n    tag_136:\n      mload(0x40)\n      dup1\n      swap2\n      sub\n      swap1\n      revert\n    tag_135:\n        /* \"voting_system.sol\":3630:3646  uint256 maxVotes */\n      0x00\n        /* \"voting_system.sol\":3666:3675  uint256 i */\n      dup1\n        /* \"voting_system.sol\":3661:3921  for (uint256 i = 0; i < candidateList.length; i++) {... */\n    tag_138:\n        /* \"voting_system.sol\":3685:3698  candidateList */\n      0x04\n        /* \"voting_system.sol\":3685:3705  candidateList.length */\n      dup1\n      sload\n      swap1\n      pop\n        /* \"voting_system.sol\":3681:3682  i */\n      dup2\n        /* \"voting_system.sol\":3681:3705  i < candidateList.length */\n      lt\n        /* \"voting_system.sol\":3661:3921  for (uint256 i = 0; i < candidateList.length; i++) {... */\n      iszero\n      tag_139\n      jumpi\n        /* \"voting_system.sol\":3772:3780  maxVotes */\n      dup2\n        /* \"voting_system.sol\":3731:3741  candidates */\n      0x02\n        /* \"voting_system.sol\":3731:3759  candidates[candidateList[i]] */\n      0x00\n        /* \"voting_system.sol\":3742:3755  candidateList */\n      0x04\n        /* \"voting_system.sol\":3756:3757  i */\n      dup5\n        /* \"voting_system.sol\":3742:3758  candidateList[i] */\n      dup2\n      sload\n      dup2\n      lt\n      tag_141\n      jumpi\n      tag_142\n      tag_143\n      jump\t// in\n    tag_142:\n    tag_141:\n      swap1\n      0x00\n      mstore\n      keccak256(0x00, 0x20)\n      add\n      0x00\n      swap1\n      sload\n      swap1\n      0x0100\n      exp\n      swap1\n      div\n      0xffffffffffffffffffffffffffffffffffffffff\n      and\n        /* \"voting_system.sol\":3731:3759  candidates[candidateList[i]] */\n      0xffffffffffffffffffffffffffffffffffffffff\n      and\n      0xffffffffffffffffffffffffffffffffffffffff\n      and\n      dup2\n      mstore\n      0x20\n      add\n      swap1\n      dup2\n      mstore\n      0x20\n      add\n      0x00\n      keccak256\n        /* \"voting_system.sol\":3731:3769  candidates[candidateList[i]].voteCount */\n      0x01\n      add\n      sload\n        /* \"voting_system.sol\":3731:3780  candidates[candidateList[i]].voteCount > maxVotes */\n      gt\n        /* \"voting_system.sol\":3727:3910  if (candidates[candidateList[i]].voteCount > maxVotes) {... */\n      iszero\n      tag_145\n      jumpi\n        /* \"voting_system.sol\":3812:3822  candidates */\n      0x02\n        /* \"voting_system.sol\":3812:3840  candidates[candidateList[i]] */\n      0x00\n        /* \"voting_system.sol\":3823:3836  candidateList */\n      0x04\n        /* \"voting_system.sol\":3837:3838  i */\n      dup4\n        /* \"voting_system.sol\":3823:3839  candidateList[i] */\n      dup2\n      sload\n      dup2\n      lt\n      tag_146\n      jumpi\n      tag_147\n      tag_143\n      jump\t// in\n    tag_147:\n    tag_146:\n      swap1\n      0x00\n      mstore\n      keccak256(0x00, 0x20)\n      add\n      0x00\n      swap1\n      sload\n      swap1\n      0x0100\n      exp\n      swap1\n      div\n      0xffffffffffffffffffffffffffffffffffffffff\n      and\n        /* \"voting_system.sol\":3812:3840  candidates[candidateList[i]] */\n      0xffffffffffffffffffffffffffffffffffffffff\n      and\n      0xffffffffffffffffffffffffffffffffffffffff\n      and\n      dup2\n      mstore\n      0x20\n      add\n      swap1\n      dup2\n      mstore\n      0x20\n      add\n      0x00\n      keccak256\n        /* \"voting_system.sol\":3812:3850  candidates[candidateList[i]].voteCount */\n      0x01\n      add\n      sload\n        /* \"voting_system.sol\":3801:3850  maxVotes = candidates[candidateList[i]].voteCount */\n      swap2\n      pop\n        /* \"voting_system.sol\":3878:3891  candidateList */\n      0x04\n        /* \"voting_system.sol\":3892:3893  i */\n      dup2\n        /* \"voting_system.sol\":3878:3894  candidateList[i] */\n      dup2\n      sload\n      dup2\n      lt\n      tag_149\n      jumpi\n      tag_150\n      tag_143\n      jump\t// in\n    tag_150:\n    tag_149:\n      swap1\n      0x00\n      mstore\n      keccak256(0x00, 0x20)\n      add\n      0x00\n      swap1\n      sload\n      swap1\n      0x0100\n      exp\n      swap1\n      div\n      0xffffffffffffffffffffffffffffffffffffffff\n      and\n        /* \"voting_system.sol\":3869:3894  winner = candidateList[i] */\n      swap6\n      pop\n        /* \"voting_system.sol\":3727:3910  if (candidates[candidateList[i]].voteCount > maxVotes) {... */\n    tag_145:\n        /* \"voting_system.sol\":3707:3710  i++ */\n      dup1\n      dup1\n      0x01\n      add\n      swap2\n      pop\n      pop\n        /* \"voting_system.sol\":3661:3921  for (uint256 i = 0; i < candidateList.length; i++) {... */\n      jump(tag_138)\n    tag_139:\n      pop\n        /* \"voting_system.sol\":3941:3947  winner */\n      dup5\n        /* \"voting_system.sol\":3949:3959  candidates */\n      0x02\n        /* \"voting_system.sol\":3949:3967  candidates[winner] */\n      0x00\n        /* \"voting_system.sol\":3960:3966  winner */\n      dup8\n        /* \"voting_system.sol\":3949:3967  candidates[winner] */\n      0xffffffffffffffffffffffffffffffffffffffff\n      and\n      0xffffffffffffffffffffffffffffffffffffffff\n      and\n      dup2\n      mstore\n      0x20\n      add\n      swap1\n      dup2\n      mstore\n      0x20\n      add\n      0x00\n      keccak256\n        /* \"voting_system.sol\":3949:3972  candidates[winner].name */\n      0x00\n      add\n        /* \"voting_system.sol\":3974:3982  maxVotes */\n      dup3\n        /* \"voting_system.sol\":3933:3983  return (winner, candidates[winner].name, maxVotes) */\n      dup2\n      dup1\n      sload\n      tag_152\n      swap1\n      tag_122\n      jump\t// in\n    tag_152:\n      dup1\n      0x1f\n      add\n      0x20\n      dup1\n      swap2\n      div\n      mul\n      0x20\n      add\n      mload(0x40)\n      swap1\n      dup2\n      add\n      0x40\n      mstore\n      dup1\n      swap3\n      swap2\n      swap1\n      dup2\n      dup2\n      mstore\n      0x20\n      add\n      dup3\n      dup1\n      sload\n      tag_153\n      swap1\n      tag_122\n      jump\t// in\n    tag_153:\n      dup1\n      iszero\n      tag_154\n      jumpi\n      dup1\n      0x1f\n      lt\n      tag_155\n      jumpi\n      0x0100\n      dup1\n      dup4\n      sload\n      div\n      mul\n      dup4\n      mstore\n      swap2\n      0x20\n      add\n      swap2\n      jump(tag_154)\n    tag_155:\n      dup3\n      add\n      swap2\n      swap1\n      0x00\n      mstore\n      keccak256(0x00, 0x20)\n      swap1\n    tag_156:\n      dup2\n      sload\n      dup2\n      mstore\n      swap1\n      0x01\n      add\n      swap1\n      0x20\n      add\n      dup1\n      dup4\n      gt\n      tag_156\n      jumpi\n      dup3\n      swap1\n      sub\n      0x1f\n      and\n      dup3\n      add\n      swap2\n    tag_154:\n      pop\n      pop\n      pop\n      pop\n      pop\n      swap2\n      pop\n      swap5\n      pop\n      swap5\n      pop\n      swap5\n      pop\n      pop\n        /* \"voting_system.sol\":3444:3991  function getWinner() external view inPhase(VotingPhase.Ended) returns (address winner, string memory name, uint256 votes) {... */\n      pop\n      swap1\n      swap2\n      swap3\n      jump\t// out\n        /* \"voting_system.sol\":725:764  mapping(address => Voter) public voters */\n    tag_44:\n      mstore(0x20, 0x03)\n      dup1\n      0x00\n      mstore\n      keccak256(0x00, 0x40)\n      0x00\n      swap2\n      pop\n      swap1\n      pop\n      dup1\n      0x00\n      add\n      0x00\n      swap1\n      sload\n      swap1\n      0x0100\n      exp\n      swap1\n      div\n      0xff\n      and\n      swap1\n      dup1\n      0x00\n      add\n      0x01\n      swap1\n      sload\n      swap1\n      0x0100\n      exp\n      swap1\n      div\n      0xff\n      and\n      swap1\n      dup1\n      0x00\n      add\n      0x02\n      swap1\n      sload\n      swap1\n      0x0100\n      exp\n      swap1\n      div\n      0xffffffffffffffffffffffffffffffffffffffff\n      and\n      swap1\n      pop\n      dup4\n      jump\t// out\n        /* \"voting_system.sol\":1576:1945  function registerCandidate(address _candidate, string memory _name) external onlyAdmin inPhase(VotingPhase.Registration) {... */\n    tag_50:\n        /* \"voting_system.sol\":1219:1224  admin */\n      0x01\n      0x00\n      swap1\n      sload\n      swap1\n      0x0100\n      exp\n      swap1\n      div\n      0xffffffffffffffffffffffffffffffffffffffff\n      and\n        /* \"voting_system.sol\":1205:1224  msg.sender == admin */\n      0xffffffffffffffffffffffffffffffffffffffff\n      and\n        /* \"voting_system.sol\":1205:1215  msg.sender */\n      caller\n        /* \"voting_system.sol\":1205:1224  msg.sender == admin */\n      0xffffffffffffffffffffffffffffffffffffffff\n      and\n      eq\n        /* \"voting_system.sol\":1197:1263  require(msg.sender == admin, \"Only admin can perform this action\") */\n      tag_158\n      jumpi\n      mload(0x40)\n      0x08c379a000000000000000000000000000000000000000000000000000000000\n      dup2\n      mstore\n      0x04\n      add\n      tag_159\n      swap1\n      tag_65\n      jump\t// in\n    tag_159:\n      mload(0x40)\n      dup1\n      swap2\n      sub\n      swap1\n      revert\n    tag_158:\n        /* \"voting_system.sol\":1671:1695  VotingPhase.Registration */\n      0x00\n        /* \"voting_system.sol\":1362:1367  phase */\n      dup1\n        /* \"voting_system.sol\":1346:1367  currentPhase == phase */\n      0x02\n      dup2\n      gt\n      iszero\n      tag_161\n      jumpi\n      tag_162\n      tag_69\n      jump\t// in\n    tag_162:\n    tag_161:\n        /* \"voting_system.sol\":1346:1358  currentPhase */\n      0x01\n      0x14\n      swap1\n      sload\n      swap1\n      0x0100\n      exp\n      swap1\n      div\n      0xff\n      and\n        /* \"voting_system.sol\":1346:1367  currentPhase == phase */\n      0x02\n      dup2\n      gt\n      iszero\n      tag_163\n      jumpi\n      tag_164\n      tag_69\n      jump\t// in\n    tag_164:\n    tag_163:\n      eq\n        /* \"voting_system.sol\":1338:1404  require(currentPhase == phase, \"Action not allowed in this phase\") */\n      tag_165\n      jumpi\n      mload(0x40)\n      0x08c379a000000000000000000000000000000000000000000000000000000000\n      dup2\n      mstore\n      0x04\n      add\n      tag_166\n      swap1\n      tag_74\n      jump\t// in\n    tag_166:\n      mload(0x40)\n      dup1\n      swap2\n      sub\n      swap1\n      revert\n    tag_165:\n        /* \"voting_system.sol\":1717:1727  candidates */\n      0x02\n        /* \"voting_system.sol\":1717:1739  candidates[_candidate] */\n      0x00\n        /* \"voting_system.sol\":1728:1738  _candidate */\n      dup5\n        /* \"voting_system.sol\":1717:1739  candidates[_candidate] */\n      0xffffffffffffffffffffffffffffffffffffffff\n      and\n      0xffffffffffffffffffffffffffffffffffffffff\n      and\n      dup2\n      mstore\n      0x20\n      add\n      swap1\n      dup2\n      mstore\n      0x20\n      add\n      0x00\n      keccak256\n        /* \"voting_system.sol\":1717:1746  candidates[_candidate].exists */\n      0x02\n      add\n      0x00\n      swap1\n      sload\n      swap1\n      0x0100\n      exp\n      swap1\n      div\n      0xff\n      and\n        /* \"voting_system.sol\":1716:1746  !candidates[_candidate].exists */\n      iszero\n        /* \"voting_system.sol\":1708:1779  require(!candidates[_candidate].exists, \"Candidate already registered\") */\n      tag_168\n      jumpi\n      mload(0x40)\n      0x08c379a000000000000000000000000000000000000000000000000000000000\n      dup2\n      mstore\n      0x04\n      add\n      tag_169\n      swap1\n      tag_170\n      jump\t// in\n    tag_169:\n      mload(0x40)\n      dup1\n      swap2\n      sub\n      swap1\n      revert\n    tag_168:\n        /* \"voting_system.sol\":1815:1840  Candidate(_name, 0, true) */\n      mload(0x40)\n      dup1\n      0x60\n      add\n      0x40\n      mstore\n      dup1\n        /* \"voting_system.sol\":1825:1830  _name */\n      dup4\n        /* \"voting_system.sol\":1815:1840  Candidate(_name, 0, true) */\n      dup2\n      mstore\n      0x20\n      add\n        /* \"voting_system.sol\":1832:1833  0 */\n      0x00\n        /* \"voting_system.sol\":1815:1840  Candidate(_name, 0, true) */\n      dup2\n      mstore\n      0x20\n      add\n        /* \"voting_system.sol\":1835:1839  true */\n      0x01\n        /* \"voting_system.sol\":1815:1840  Candidate(_name, 0, true) */\n      iszero\n      iszero\n      dup2\n      mstore\n      pop\n        /* \"voting_system.sol\":1790:1800  candidates */\n      0x02\n        /* \"voting_system.sol\":1790:1812  candidates[_candidate] */\n      0x00\n        /* \"voting_system.sol\":1801:1811  _candidate */\n      dup6\n        /* \"voting_system.sol\":1790:1812  candidates[_candidate] */\n      0xffffffffffffffffffffffffffffffffffffffff\n      and\n      0xffffffffffffffffffffffffffffffffffffffff\n      and\n      dup2\n      mstore\n      0x20\n      add\n      swap1\n      dup2\n      mstore\n      0x20\n      add\n      0x00\n      keccak256\n        /* \"voting_system.sol\":1790:1840  candidates[_candidate] = Candidate(_name, 0, true) */\n      0x00\n      dup3\n      add\n      mload\n      dup2\n      0x00\n      add\n      swap1\n      dup2\n      tag_171\n      swap2\n      swap1\n      tag_172\n      jump\t// in\n    tag_171:\n      pop\n      0x20\n      dup3\n      add\n      mload\n      dup2\n      0x01\n      add\n      sstore\n      0x40\n      dup3\n      add\n      mload\n      dup2\n      0x02\n      add\n      exp(0x0100, 0x00)\n      dup2\n      sload\n      dup2\n      0xff\n      mul\n      not\n      and\n      swap1\n      dup4\n      iszero\n      iszero\n      mul\n      or\n      swap1\n      sstore\n      pop\n      swap1\n      pop\n      pop\n        /* \"voting_system.sol\":1851:1864  candidateList */\n      0x04\n        /* \"voting_system.sol\":1870:1880  _candidate */\n      dup4\n        /* \"voting_system.sol\":1851:1881  candidateList.push(_candidate) */\n      swap1\n      dup1\n      0x01\n      dup2\n      sload\n      add\n      dup1\n      dup3\n      sstore\n      dup1\n      swap2\n      pop\n      pop\n      0x01\n      swap1\n      sub\n      swap1\n      0x00\n      mstore\n      keccak256(0x00, 0x20)\n      add\n      0x00\n      swap1\n      swap2\n      swap1\n      swap2\n      swap1\n      swap2\n      0x0100\n      exp\n      dup2\n      sload\n      dup2\n      0xffffffffffffffffffffffffffffffffffffffff\n      mul\n      not\n      and\n      swap1\n      dup4\n      0xffffffffffffffffffffffffffffffffffffffff\n      and\n      mul\n      or\n      swap1\n      sstore\n      pop\n        /* \"voting_system.sol\":1919:1929  _candidate */\n      dup3\n        /* \"voting_system.sol\":1899:1937  CandidateRegistered(_candidate, _name) */\n      0xffffffffffffffffffffffffffffffffffffffff\n      and\n      0xf7d573e0e0f72259d79708ef22494ecdc00dd3605de228ff1a79063d7547b7c2\n        /* \"voting_system.sol\":1931:1936  _name */\n      dup4\n        /* \"voting_system.sol\":1899:1937  CandidateRegistered(_candidate, _name) */\n      mload(0x40)\n      tag_174\n      swap2\n      swap1\n      tag_175\n      jump\t// in\n    tag_174:\n      mload(0x40)\n      dup1\n      swap2\n      sub\n      swap1\n      log2\n        /* \"voting_system.sol\":1274:1275  _ */\n      pop\n        /* \"voting_system.sol\":1576:1945  function registerCandidate(address _candidate, string memory _name) external onlyAdmin inPhase(VotingPhase.Registration) {... */\n      pop\n      pop\n      jump\t// out\n        /* \"voting_system.sol\":811:841  address[] public candidateList */\n    tag_54:\n      0x04\n      dup2\n      dup2\n      sload\n      dup2\n      lt\n      tag_176\n      jumpi\n      0x00\n      dup1\n      revert\n    tag_176:\n      swap1\n      0x00\n      mstore\n      keccak256(0x00, 0x20)\n      add\n      0x00\n      swap2\n      pop\n      sload\n      swap1\n      0x0100\n      exp\n      swap1\n      div\n      0xffffffffffffffffffffffffffffffffffffffff\n      and\n      dup2\n      jump\t// out\n        /* \"voting_system.sol\":3224:3390  function endVoting() external onlyAdmin inPhase(VotingPhase.Voting) {... */\n    tag_58:\n        /* \"voting_system.sol\":1219:1224  admin */\n      0x01\n      0x00\n      swap1\n      sload\n      swap1\n      0x0100\n      exp\n      swap1\n      div\n      0xffffffffffffffffffffffffffffffffffffffff\n      and\n        /* \"voting_system.sol\":1205:1224  msg.sender == admin */\n      0xffffffffffffffffffffffffffffffffffffffff\n      and\n        /* \"voting_system.sol\":1205:1215  msg.sender */\n      caller\n        /* \"voting_system.sol\":1205:1224  msg.sender == admin */\n      0xffffffffffffffffffffffffffffffffffffffff\n      and\n      eq\n        /* \"voting_system.sol\":1197:1263  require(msg.sender == admin, \"Only admin can perform this action\") */\n      tag_179\n      jumpi\n      mload(0x40)\n      0x08c379a000000000000000000000000000000000000000000000000000000000\n      dup2\n      mstore\n      0x04\n      add\n      tag_180\n      swap1\n      tag_65\n      jump\t// in\n    tag_180:\n      mload(0x40)\n      dup1\n      swap2\n      sub\n      swap1\n      revert\n    tag_179:\n        /* \"voting_system.sol\":3272:3290  VotingPhase.Voting */\n      0x01\n        /* \"voting_system.sol\":1362:1367  phase */\n      dup1\n        /* \"voting_system.sol\":1346:1367  currentPhase == phase */\n      0x02\n      dup2\n      gt\n      iszero\n      tag_182\n      jumpi\n      tag_183\n      tag_69\n      jump\t// in\n    tag_183:\n    tag_182:\n        /* \"voting_system.sol\":1346:1358  currentPhase */\n      0x01\n      0x14\n      swap1\n      sload\n      swap1\n      0x0100\n      exp\n      swap1\n      div\n      0xff\n      and\n        /* \"voting_system.sol\":1346:1367  currentPhase == phase */\n      0x02\n      dup2\n      gt\n      iszero\n      tag_184\n      jumpi\n      tag_185\n      tag_69\n      jump\t// in\n    tag_185:\n    tag_184:\n      eq\n        /* \"voting_system.sol\":1338:1404  require(currentPhase == phase, \"Action not allowed in this phase\") */\n      tag_186\n      jumpi\n      mload(0x40)\n      0x08c379a000000000000000000000000000000000000000000000000000000000\n      dup2\n      mstore\n      0x04\n      add\n      tag_187\n      swap1\n      tag_74\n      jump\t// in\n    tag_187:\n      mload(0x40)\n      dup1\n      swap2\n      sub\n      swap1\n      revert\n    tag_186:\n        /* \"voting_system.sol\":3318:3335  VotingPhase.Ended */\n      0x02\n        /* \"voting_system.sol\":3303:3315  currentPhase */\n      0x01\n      0x14\n        /* \"voting_system.sol\":3303:3335  currentPhase = VotingPhase.Ended */\n      0x0100\n      exp\n      dup2\n      sload\n      dup2\n      0xff\n      mul\n      not\n      and\n      swap1\n      dup4\n      0x02\n      dup2\n      gt\n      iszero\n      tag_189\n      jumpi\n      tag_190\n      tag_69\n      jump\t// in\n    tag_190:\n    tag_189:\n      mul\n      or\n      swap1\n      sstore\n      pop\n        /* \"voting_system.sol\":3351:3382  PhaseChanged(VotingPhase.Ended) */\n      0xa6dcc92f45df25789d5639b7a0c97ba1edf3bb1c0b5dd3376fd96a0db87c4642\n        /* \"voting_system.sol\":3364:3381  VotingPhase.Ended */\n      0x02\n        /* \"voting_system.sol\":3351:3382  PhaseChanged(VotingPhase.Ended) */\n      mload(0x40)\n      tag_191\n      swap2\n      swap1\n      tag_19\n      jump\t// in\n    tag_191:\n      mload(0x40)\n      dup1\n      swap2\n      sub\n      swap1\n      log1\n        /* \"voting_system.sol\":1274:1275  _ */\n      pop\n        /* \"voting_system.sol\":3224:3390  function endVoting() external onlyAdmin inPhase(VotingPhase.Voting) {... */\n      jump\t// out\n        /* \"voting_system.sol\":216:236  address public admin */\n    tag_60:\n      0x01\n      0x00\n      swap1\n      sload\n      swap1\n      0x0100\n      exp\n      swap1\n      div\n      0xffffffffffffffffffffffffffffffffffffffff\n      and\n      dup2\n      jump\t// out\n        /* \"@openzeppelin/contracts/security/ReentrancyGuard.sol\":2336:2623  function _nonReentrantBefore() private {... */\n    tag_98:\n        /* \"@openzeppelin/contracts/security/ReentrancyGuard.sol\":1759:1760  2 */\n      0x02\n        /* \"@openzeppelin/contracts/security/ReentrancyGuard.sol\":2468:2475  _status */\n      sload(0x00)\n        /* \"@openzeppelin/contracts/security/ReentrancyGuard.sol\":2468:2487  _status != _ENTERED */\n      sub\n        /* \"@openzeppelin/contracts/security/ReentrancyGuard.sol\":2460:2523  require(_status != _ENTERED, \"ReentrancyGuard: reentrant call\") */\n      tag_193\n      jumpi\n      mload(0x40)\n      0x08c379a000000000000000000000000000000000000000000000000000000000\n      dup2\n      mstore\n      0x04\n      add\n      tag_194\n      swap1\n      tag_195\n      jump\t// in\n    tag_194:\n      mload(0x40)\n      dup1\n      swap2\n      sub\n      swap1\n      revert\n    tag_193:\n        /* \"@openzeppelin/contracts/security/ReentrancyGuard.sol\":1759:1760  2 */\n      0x02\n        /* \"@openzeppelin/contracts/security/ReentrancyGuard.sol\":2598:2605  _status */\n      0x00\n        /* \"@openzeppelin/contracts/security/ReentrancyGuard.sol\":2598:2616  _status = _ENTERED */\n      dup2\n      swap1\n      sstore\n      pop\n        /* \"@openzeppelin/contracts/security/ReentrancyGuard.sol\":2336:2623  function _nonReentrantBefore() private {... */\n      jump\t// out\n        /* \"@openzeppelin/contracts/security/ReentrancyGuard.sol\":2629:2838  function _nonReentrantAfter() private {... */\n    tag_120:\n        /* \"@openzeppelin/contracts/security/ReentrancyGuard.sol\":1716:1717  1 */\n      0x01\n        /* \"@openzeppelin/contracts/security/ReentrancyGuard.sol\":2809:2816  _status */\n      0x00\n        /* \"@openzeppelin/contracts/security/ReentrancyGuard.sol\":2809:2831  _status = _NOT_ENTERED */\n      dup2\n      swap1\n      sstore\n      pop\n        /* \"@openzeppelin/contracts/security/ReentrancyGuard.sol\":2629:2838  function _nonReentrantAfter() private {... */\n      jump\t// out\n        /* \"#utility.yul\":7:187   */\n    tag_69:\n        /* \"#utility.yul\":55:132   */\n      0x4e487b7100000000000000000000000000000000000000000000000000000000\n        /* \"#utility.yul\":52:53   */\n      0x00\n        /* \"#utility.yul\":45:133   */\n      mstore\n        /* \"#utility.yul\":152:156   */\n      0x21\n        /* \"#utility.yul\":149:150   */\n      0x04\n        /* \"#utility.yul\":142:157   */\n      mstore\n        /* \"#utility.yul\":176:180   */\n      0x24\n        /* \"#utility.yul\":173:174   */\n      0x00\n        /* \"#utility.yul\":166:181   */\n      revert\n        /* \"#utility.yul\":193:312   */\n    tag_197:\n        /* \"#utility.yul\":280:281   */\n      0x03\n        /* \"#utility.yul\":273:278   */\n      dup2\n        /* \"#utility.yul\":270:282   */\n      lt\n        /* \"#utility.yul\":260:306   */\n      tag_269\n      jumpi\n        /* \"#utility.yul\":286:304   */\n      tag_270\n      tag_69\n      jump\t// in\n    tag_270:\n        /* \"#utility.yul\":260:306   */\n    tag_269:\n        /* \"#utility.yul\":193:312   */\n      pop\n      jump\t// out\n        /* \"#utility.yul\":318:457   */\n    tag_198:\n        /* \"#utility.yul\":369:376   */\n      0x00\n        /* \"#utility.yul\":398:403   */\n      dup2\n        /* \"#utility.yul\":387:403   */\n      swap1\n      pop\n        /* \"#utility.yul\":404:451   */\n      tag_272\n        /* \"#utility.yul\":445:450   */\n      dup3\n        /* \"#utility.yul\":404:451   */\n      tag_197\n      jump\t// in\n    tag_272:\n        /* \"#utility.yul\":318:457   */\n      swap2\n      swap1\n      pop\n      jump\t// out\n        /* \"#utility.yul\":463:602   */\n    tag_199:\n        /* \"#utility.yul\":525:534   */\n      0x00\n        /* \"#utility.yul\":558:596   */\n      tag_274\n        /* \"#utility.yul\":590:595   */\n      dup3\n        /* \"#utility.yul\":558:596   */\n      tag_198\n      jump\t// in\n    tag_274:\n        /* \"#utility.yul\":545:596   */\n      swap1\n      pop\n        /* \"#utility.yul\":463:602   */\n      swap2\n      swap1\n      pop\n      jump\t// out\n        /* \"#utility.yul\":608:763   */\n    tag_200:\n        /* \"#utility.yul\":707:756   */\n      tag_276\n        /* \"#utility.yul\":750:755   */\n      dup2\n        /* \"#utility.yul\":707:756   */\n      tag_199\n      jump\t// in\n    tag_276:\n        /* \"#utility.yul\":702:705   */\n      dup3\n        /* \"#utility.yul\":695:757   */\n      mstore\n        /* \"#utility.yul\":608:763   */\n      pop\n      pop\n      jump\t// out\n        /* \"#utility.yul\":769:1015   */\n    tag_19:\n        /* \"#utility.yul\":874:878   */\n      0x00\n        /* \"#utility.yul\":912:914   */\n      0x20\n        /* \"#utility.yul\":901:910   */\n      dup3\n        /* \"#utility.yul\":897:915   */\n      add\n        /* \"#utility.yul\":889:915   */\n      swap1\n      pop\n        /* \"#utility.yul\":925:1008   */\n      tag_278\n        /* \"#utility.yul\":1005:1006   */\n      0x00\n        /* \"#utility.yul\":994:1003   */\n      dup4\n        /* \"#utility.yul\":990:1007   */\n      add\n        /* \"#utility.yul\":981:987   */\n      dup5\n        /* \"#utility.yul\":925:1008   */\n      tag_200\n      jump\t// in\n    tag_278:\n        /* \"#utility.yul\":769:1015   */\n      swap3\n      swap2\n      pop\n      pop\n      jump\t// out\n        /* \"#utility.yul\":1021:1098   */\n    tag_201:\n        /* \"#utility.yul\":1058:1065   */\n      0x00\n        /* \"#utility.yul\":1087:1092   */\n      dup2\n        /* \"#utility.yul\":1076:1092   */\n      swap1\n      pop\n        /* \"#utility.yul\":1021:1098   */\n      swap2\n      swap1\n      pop\n      jump\t// out\n        /* \"#utility.yul\":1104:1222   */\n    tag_202:\n        /* \"#utility.yul\":1191:1215   */\n      tag_281\n        /* \"#utility.yul\":1209:1214   */\n      dup2\n        /* \"#utility.yul\":1191:1215   */\n      tag_201\n      jump\t// in\n    tag_281:\n        /* \"#utility.yul\":1186:1189   */\n      dup3\n        /* \"#utility.yul\":1179:1216   */\n      mstore\n        /* \"#utility.yul\":1104:1222   */\n      pop\n      pop\n      jump\t// out\n        /* \"#utility.yul\":1228:1450   */\n    tag_23:\n        /* \"#utility.yul\":1321:1325   */\n      0x00\n        /* \"#utility.yul\":1359:1361   */\n      0x20\n        /* \"#utility.yul\":1348:1357   */\n      dup3\n        /* \"#utility.yul\":1344:1362   */\n      add\n        /* \"#utility.yul\":1336:1362   */\n      swap1\n      pop\n        /* \"#utility.yul\":1372:1443   */\n      tag_283\n        /* \"#utility.yul\":1440:1441   */\n      0x00\n        /* \"#utility.yul\":1429:1438   */\n      dup4\n        /* \"#utility.yul\":1425:1442   */\n      add\n        /* \"#utility.yul\":1416:1422   */\n      dup5\n        /* \"#utility.yul\":1372:1443   */\n      tag_202\n      jump\t// in\n    tag_283:\n        /* \"#utility.yul\":1228:1450   */\n      swap3\n      swap2\n      pop\n      pop\n      jump\t// out\n        /* \"#utility.yul\":1456:1531   */\n    tag_203:\n        /* \"#utility.yul\":1489:1495   */\n      0x00\n        /* \"#utility.yul\":1522:1524   */\n      0x40\n        /* \"#utility.yul\":1516:1525   */\n      mload\n        /* \"#utility.yul\":1506:1525   */\n      swap1\n      pop\n        /* \"#utility.yul\":1456:1531   */\n      swap1\n      jump\t// out\n        /* \"#utility.yul\":1537:1654   */\n    tag_204:\n        /* \"#utility.yul\":1646:1647   */\n      0x00\n        /* \"#utility.yul\":1643:1644   */\n      dup1\n        /* \"#utility.yul\":1636:1648   */\n      revert\n        /* \"#utility.yul\":1660:1777   */\n    tag_205:\n        /* \"#utility.yul\":1769:1770   */\n      0x00\n        /* \"#utility.yul\":1766:1767   */\n      dup1\n        /* \"#utility.yul\":1759:1771   */\n      revert\n        /* \"#utility.yul\":1783:1909   */\n    tag_206:\n        /* \"#utility.yul\":1820:1827   */\n      0x00\n        /* \"#utility.yul\":1860:1902   */\n      0xffffffffffffffffffffffffffffffffffffffff\n        /* \"#utility.yul\":1853:1858   */\n      dup3\n        /* \"#utility.yul\":1849:1903   */\n      and\n        /* \"#utility.yul\":1838:1903   */\n      swap1\n      pop\n        /* \"#utility.yul\":1783:1909   */\n      swap2\n      swap1\n      pop\n      jump\t// out\n        /* \"#utility.yul\":1915:2011   */\n    tag_207:\n        /* \"#utility.yul\":1952:1959   */\n      0x00\n        /* \"#utility.yul\":1981:2005   */\n      tag_289\n        /* \"#utility.yul\":1999:2004   */\n      dup3\n        /* \"#utility.yul\":1981:2005   */\n      tag_206\n      jump\t// in\n    tag_289:\n        /* \"#utility.yul\":1970:2005   */\n      swap1\n      pop\n        /* \"#utility.yul\":1915:2011   */\n      swap2\n      swap1\n      pop\n      jump\t// out\n        /* \"#utility.yul\":2017:2139   */\n    tag_208:\n        /* \"#utility.yul\":2090:2114   */\n      tag_291\n        /* \"#utility.yul\":2108:2113   */\n      dup2\n        /* \"#utility.yul\":2090:2114   */\n      tag_207\n      jump\t// in\n    tag_291:\n        /* \"#utility.yul\":2083:2088   */\n      dup2\n        /* \"#utility.yul\":2080:2115   */\n      eq\n        /* \"#utility.yul\":2070:2133   */\n      tag_292\n      jumpi\n        /* \"#utility.yul\":2129:2130   */\n      0x00\n        /* \"#utility.yul\":2126:2127   */\n      dup1\n        /* \"#utility.yul\":2119:2131   */\n      revert\n        /* \"#utility.yul\":2070:2133   */\n    tag_292:\n        /* \"#utility.yul\":2017:2139   */\n      pop\n      jump\t// out\n        /* \"#utility.yul\":2145:2284   */\n    tag_209:\n        /* \"#utility.yul\":2191:2196   */\n      0x00\n        /* \"#utility.yul\":2229:2235   */\n      dup2\n        /* \"#utility.yul\":2216:2236   */\n      calldataload\n        /* \"#utility.yul\":2207:2236   */\n      swap1\n      pop\n        /* \"#utility.yul\":2245:2278   */\n      tag_294\n        /* \"#utility.yul\":2272:2277   */\n      dup2\n        /* \"#utility.yul\":2245:2278   */\n      tag_208\n      jump\t// in\n    tag_294:\n        /* \"#utility.yul\":2145:2284   */\n      swap3\n      swap2\n      pop\n      pop\n      jump\t// out\n        /* \"#utility.yul\":2290:2619   */\n    tag_28:\n        /* \"#utility.yul\":2349:2355   */\n      0x00\n        /* \"#utility.yul\":2398:2400   */\n      0x20\n        /* \"#utility.yul\":2386:2395   */\n      dup3\n        /* \"#utility.yul\":2377:2384   */\n      dup5\n        /* \"#utility.yul\":2373:2396   */\n      sub\n        /* \"#utility.yul\":2369:2401   */\n      slt\n        /* \"#utility.yul\":2366:2485   */\n      iszero\n      tag_296\n      jumpi\n        /* \"#utility.yul\":2404:2483   */\n      tag_297\n      tag_204\n      jump\t// in\n    tag_297:\n        /* \"#utility.yul\":2366:2485   */\n    tag_296:\n        /* \"#utility.yul\":2524:2525   */\n      0x00\n        /* \"#utility.yul\":2549:2602   */\n      tag_298\n        /* \"#utility.yul\":2594:2601   */\n      dup5\n        /* \"#utility.yul\":2585:2591   */\n      dup3\n        /* \"#utility.yul\":2574:2583   */\n      dup6\n        /* \"#utility.yul\":2570:2592   */\n      add\n        /* \"#utility.yul\":2549:2602   */\n      tag_209\n      jump\t// in\n    tag_298:\n        /* \"#utility.yul\":2539:2602   */\n      swap2\n      pop\n        /* \"#utility.yul\":2495:2612   */\n      pop\n        /* \"#utility.yul\":2290:2619   */\n      swap3\n      swap2\n      pop\n      pop\n      jump\t// out\n        /* \"#utility.yul\":2625:2724   */\n    tag_210:\n        /* \"#utility.yul\":2677:2683   */\n      0x00\n        /* \"#utility.yul\":2711:2716   */\n      dup2\n        /* \"#utility.yul\":2705:2717   */\n      mload\n        /* \"#utility.yul\":2695:2717   */\n      swap1\n      pop\n        /* \"#utility.yul\":2625:2724   */\n      swap2\n      swap1\n      pop\n      jump\t// out\n        /* \"#utility.yul\":2730:2899   */\n    tag_211:\n        /* \"#utility.yul\":2814:2825   */\n      0x00\n        /* \"#utility.yul\":2848:2854   */\n      dup3\n        /* \"#utility.yul\":2843:2846   */\n      dup3\n        /* \"#utility.yul\":2836:2855   */\n      mstore\n        /* \"#utility.yul\":2888:2892   */\n      0x20\n        /* \"#utility.yul\":2883:2886   */\n      dup3\n        /* \"#utility.yul\":2879:2893   */\n      add\n        /* \"#utility.yul\":2864:2893   */\n      swap1\n      pop\n        /* \"#utility.yul\":2730:2899   */\n      swap3\n      swap2\n      pop\n      pop\n      jump\t// out\n        /* \"#utility.yul\":2905:3153   */\n    tag_212:\n        /* \"#utility.yul\":2987:2988   */\n      0x00\n        /* \"#utility.yul\":2997:3110   */\n    tag_302:\n        /* \"#utility.yul\":3011:3017   */\n      dup4\n        /* \"#utility.yul\":3008:3009   */\n      dup2\n        /* \"#utility.yul\":3005:3018   */\n      lt\n        /* \"#utility.yul\":2997:3110   */\n      iszero\n      tag_304\n      jumpi\n        /* \"#utility.yul\":3096:3097   */\n      dup1\n        /* \"#utility.yul\":3091:3094   */\n      dup3\n        /* \"#utility.yul\":3087:3098   */\n      add\n        /* \"#utility.yul\":3081:3099   */\n      mload\n        /* \"#utility.yul\":3077:3078   */\n      dup2\n        /* \"#utility.yul\":3072:3075   */\n      dup5\n        /* \"#utility.yul\":3068:3079   */\n      add\n        /* \"#utility.yul\":3061:3100   */\n      mstore\n        /* \"#utility.yul\":3033:3035   */\n      0x20\n        /* \"#utility.yul\":3030:3031   */\n      dup2\n        /* \"#utility.yul\":3026:3036   */\n      add\n        /* \"#utility.yul\":3021:3036   */\n      swap1\n      pop\n        /* \"#utility.yul\":2997:3110   */\n      jump(tag_302)\n    tag_304:\n        /* \"#utility.yul\":3144:3145   */\n      0x00\n        /* \"#utility.yul\":3135:3141   */\n      dup5\n        /* \"#utility.yul\":3130:3133   */\n      dup5\n        /* \"#utility.yul\":3126:3142   */\n      add\n        /* \"#utility.yul\":3119:3146   */\n      mstore\n        /* \"#utility.yul\":2967:3153   */\n      pop\n        /* \"#utility.yul\":2905:3153   */\n      pop\n      pop\n      pop\n      jump\t// out\n        /* \"#utility.yul\":3159:3261   */\n    tag_213:\n        /* \"#utility.yul\":3200:3206   */\n      0x00\n        /* \"#utility.yul\":3251:3253   */\n      0x1f\n        /* \"#utility.yul\":3247:3254   */\n      not\n        /* \"#utility.yul\":3242:3244   */\n      0x1f\n        /* \"#utility.yul\":3235:3240   */\n      dup4\n        /* \"#utility.yul\":3231:3245   */\n      add\n        /* \"#utility.yul\":3227:3255   */\n      and\n        /* \"#utility.yul\":3217:3255   */\n      swap1\n      pop\n        /* \"#utility.yul\":3159:3261   */\n      swap2\n      swap1\n      pop\n      jump\t// out\n        /* \"#utility.yul\":3267:3644   */\n    tag_214:\n        /* \"#utility.yul\":3355:3358   */\n      0x00\n        /* \"#utility.yul\":3383:3422   */\n      tag_307\n        /* \"#utility.yul\":3416:3421   */\n      dup3\n        /* \"#utility.yul\":3383:3422   */\n      tag_210\n      jump\t// in\n    tag_307:\n        /* \"#utility.yul\":3438:3509   */\n      tag_308\n        /* \"#utility.yul\":3502:3508   */\n      dup2\n        /* \"#utility.yul\":3497:3500   */\n      dup6\n        /* \"#utility.yul\":3438:3509   */\n      tag_211\n      jump\t// in\n    tag_308:\n        /* \"#utility.yul\":3431:3509   */\n      swap4\n      pop\n        /* \"#utility.yul\":3518:3583   */\n      tag_309\n        /* \"#utility.yul\":3576:3582   */\n      dup2\n        /* \"#utility.yul\":3571:3574   */\n      dup6\n        /* \"#utility.yul\":3564:3568   */\n      0x20\n        /* \"#utility.yul\":3557:3562   */\n      dup7\n        /* \"#utility.yul\":3553:3569   */\n      add\n        /* \"#utility.yul\":3518:3583   */\n      tag_212\n      jump\t// in\n    tag_309:\n        /* \"#utility.yul\":3608:3637   */\n      tag_310\n        /* \"#utility.yul\":3630:3636   */\n      dup2\n        /* \"#utility.yul\":3608:3637   */\n      tag_213\n      jump\t// in\n    tag_310:\n        /* \"#utility.yul\":3603:3606   */\n      dup5\n        /* \"#utility.yul\":3599:3638   */\n      add\n        /* \"#utility.yul\":3592:3638   */\n      swap2\n      pop\n        /* \"#utility.yul\":3359:3644   */\n      pop\n        /* \"#utility.yul\":3267:3644   */\n      swap3\n      swap2\n      pop\n      pop\n      jump\t// out\n        /* \"#utility.yul\":3650:3740   */\n    tag_215:\n        /* \"#utility.yul\":3684:3691   */\n      0x00\n        /* \"#utility.yul\":3727:3732   */\n      dup2\n        /* \"#utility.yul\":3720:3733   */\n      iszero\n        /* \"#utility.yul\":3713:3734   */\n      iszero\n        /* \"#utility.yul\":3702:3734   */\n      swap1\n      pop\n        /* \"#utility.yul\":3650:3740   */\n      swap2\n      swap1\n      pop\n      jump\t// out\n        /* \"#utility.yul\":3746:3855   */\n    tag_216:\n        /* \"#utility.yul\":3827:3848   */\n      tag_313\n        /* \"#utility.yul\":3842:3847   */\n      dup2\n        /* \"#utility.yul\":3827:3848   */\n      tag_215\n      jump\t// in\n    tag_313:\n        /* \"#utility.yul\":3822:3825   */\n      dup3\n        /* \"#utility.yul\":3815:3849   */\n      mstore\n        /* \"#utility.yul\":3746:3855   */\n      pop\n      pop\n      jump\t// out\n        /* \"#utility.yul\":3861:4382   */\n    tag_37:\n        /* \"#utility.yul\":4024:4028   */\n      0x00\n        /* \"#utility.yul\":4062:4064   */\n      0x60\n        /* \"#utility.yul\":4051:4060   */\n      dup3\n        /* \"#utility.yul\":4047:4065   */\n      add\n        /* \"#utility.yul\":4039:4065   */\n      swap1\n      pop\n        /* \"#utility.yul\":4111:4120   */\n      dup2\n        /* \"#utility.yul\":4105:4109   */\n      dup2\n        /* \"#utility.yul\":4101:4121   */\n      sub\n        /* \"#utility.yul\":4097:4098   */\n      0x00\n        /* \"#utility.yul\":4086:4095   */\n      dup4\n        /* \"#utility.yul\":4082:4099   */\n      add\n        /* \"#utility.yul\":4075:4122   */\n      mstore\n        /* \"#utility.yul\":4139:4217   */\n      tag_315\n        /* \"#utility.yul\":4212:4216   */\n      dup2\n        /* \"#utility.yul\":4203:4209   */\n      dup7\n        /* \"#utility.yul\":4139:4217   */\n      tag_214\n      jump\t// in\n    tag_315:\n        /* \"#utility.yul\":4131:4217   */\n      swap1\n      pop\n        /* \"#utility.yul\":4227:4299   */\n      tag_316\n        /* \"#utility.yul\":4295:4297   */\n      0x20\n        /* \"#utility.yul\":4284:4293   */\n      dup4\n        /* \"#utility.yul\":4280:4298   */\n      add\n        /* \"#utility.yul\":4271:4277   */\n      dup6\n        /* \"#utility.yul\":4227:4299   */\n      tag_202\n      jump\t// in\n    tag_316:\n        /* \"#utility.yul\":4309:4375   */\n      tag_317\n        /* \"#utility.yul\":4371:4373   */\n      0x40\n        /* \"#utility.yul\":4360:4369   */\n      dup4\n        /* \"#utility.yul\":4356:4374   */\n      add\n        /* \"#utility.yul\":4347:4353   */\n      dup5\n        /* \"#utility.yul\":4309:4375   */\n      tag_216\n      jump\t// in\n    tag_317:\n        /* \"#utility.yul\":3861:4382   */\n      swap5\n      swap4\n      pop\n      pop\n      pop\n      pop\n      jump\t// out\n        /* \"#utility.yul\":4388:4506   */\n    tag_217:\n        /* \"#utility.yul\":4475:4499   */\n      tag_319\n        /* \"#utility.yul\":4493:4498   */\n      dup2\n        /* \"#utility.yul\":4475:4499   */\n      tag_207\n      jump\t// in\n    tag_319:\n        /* \"#utility.yul\":4470:4473   */\n      dup3\n        /* \"#utility.yul\":4463:4500   */\n      mstore\n        /* \"#utility.yul\":4388:4506   */\n      pop\n      pop\n      jump\t// out\n        /* \"#utility.yul\":4512:5045   */\n    tag_41:\n        /* \"#utility.yul\":4681:4685   */\n      0x00\n        /* \"#utility.yul\":4719:4721   */\n      0x60\n        /* \"#utility.yul\":4708:4717   */\n      dup3\n        /* \"#utility.yul\":4704:4722   */\n      add\n        /* \"#utility.yul\":4696:4722   */\n      swap1\n      pop\n        /* \"#utility.yul\":4732:4803   */\n      tag_321\n        /* \"#utility.yul\":4800:4801   */\n      0x00\n        /* \"#utility.yul\":4789:4798   */\n      dup4\n        /* \"#utility.yul\":4785:4802   */\n      add\n        /* \"#utility.yul\":4776:4782   */\n      dup7\n        /* \"#utility.yul\":4732:4803   */\n      tag_217\n      jump\t// in\n    tag_321:\n        /* \"#utility.yul\":4850:4859   */\n      dup2\n        /* \"#utility.yul\":4844:4848   */\n      dup2\n        /* \"#utility.yul\":4840:4860   */\n      sub\n        /* \"#utility.yul\":4835:4837   */\n      0x20\n        /* \"#utility.yul\":4824:4833   */\n      dup4\n        /* \"#utility.yul\":4820:4838   */\n      add\n        /* \"#utility.yul\":4813:4861   */\n      mstore\n        /* \"#utility.yul\":4878:4956   */\n      tag_322\n        /* \"#utility.yul\":4951:4955   */\n      dup2\n        /* \"#utility.yul\":4942:4948   */\n      dup6\n        /* \"#utility.yul\":4878:4956   */\n      tag_214\n      jump\t// in\n    tag_322:\n        /* \"#utility.yul\":4870:4956   */\n      swap1\n      pop\n        /* \"#utility.yul\":4966:5038   */\n      tag_323\n        /* \"#utility.yul\":5034:5036   */\n      0x40\n        /* \"#utility.yul\":5023:5032   */\n      dup4\n        /* \"#utility.yul\":5019:5037   */\n      add\n        /* \"#utility.yul\":5010:5016   */\n      dup5\n        /* \"#utility.yul\":4966:5038   */\n      tag_202\n      jump\t// in\n    tag_323:\n        /* \"#utility.yul\":4512:5045   */\n      swap5\n      swap4\n      pop\n      pop\n      pop\n      pop\n      jump\t// out\n        /* \"#utility.yul\":5051:5469   */\n    tag_46:\n        /* \"#utility.yul\":5188:5192   */\n      0x00\n        /* \"#utility.yul\":5226:5228   */\n      0x60\n        /* \"#utility.yul\":5215:5224   */\n      dup3\n        /* \"#utility.yul\":5211:5229   */\n      add\n        /* \"#utility.yul\":5203:5229   */\n      swap1\n      pop\n        /* \"#utility.yul\":5239:5304   */\n      tag_325\n        /* \"#utility.yul\":5301:5302   */\n      0x00\n        /* \"#utility.yul\":5290:5299   */\n      dup4\n        /* \"#utility.yul\":5286:5303   */\n      add\n        /* \"#utility.yul\":5277:5283   */\n      dup7\n        /* \"#utility.yul\":5239:5304   */\n      tag_216\n      jump\t// in\n    tag_325:\n        /* \"#utility.yul\":5314:5380   */\n      tag_326\n        /* \"#utility.yul\":5376:5378   */\n      0x20\n        /* \"#utility.yul\":5365:5374   */\n      dup4\n        /* \"#utility.yul\":5361:5379   */\n      add\n        /* \"#utility.yul\":5352:5358   */\n      dup6\n        /* \"#utility.yul\":5314:5380   */\n      tag_216\n      jump\t// in\n    tag_326:\n        /* \"#utility.yul\":5390:5462   */\n      tag_327\n        /* \"#utility.yul\":5458:5460   */\n      0x40\n        /* \"#utility.yul\":5447:5456   */\n      dup4\n        /* \"#utility.yul\":5443:5461   */\n      add\n        /* \"#utility.yul\":5434:5440   */\n      dup5\n        /* \"#utility.yul\":5390:5462   */\n      tag_217\n      jump\t// in\n    tag_327:\n        /* \"#utility.yul\":5051:5469   */\n      swap5\n      swap4\n      pop\n      pop\n      pop\n      pop\n      jump\t// out\n        /* \"#utility.yul\":5475:5592   */\n    tag_218:\n        /* \"#utility.yul\":5584:5585   */\n      0x00\n        /* \"#utility.yul\":5581:5582   */\n      dup1\n        /* \"#utility.yul\":5574:5586   */\n      revert\n        /* \"#utility.yul\":5598:5715   */\n    tag_219:\n        /* \"#utility.yul\":5707:5708   */\n      0x00\n        /* \"#utility.yul\":5704:5705   */\n      dup1\n        /* \"#utility.yul\":5697:5709   */\n      revert\n        /* \"#utility.yul\":5721:5901   */\n    tag_220:\n        /* \"#utility.yul\":5769:5846   */\n      0x4e487b7100000000000000000000000000000000000000000000000000000000\n        /* \"#utility.yul\":5766:5767   */\n      0x00\n        /* \"#utility.yul\":5759:5847   */\n      mstore\n        /* \"#utility.yul\":5866:5870   */\n      0x41\n        /* \"#utility.yul\":5863:5864   */\n      0x04\n        /* \"#utility.yul\":5856:5871   */\n      mstore\n        /* \"#utility.yul\":5890:5894   */\n      0x24\n        /* \"#utility.yul\":5887:5888   */\n      0x00\n        /* \"#utility.yul\":5880:5895   */\n      revert\n        /* \"#utility.yul\":5907:6188   */\n    tag_221:\n        /* \"#utility.yul\":5990:6017   */\n      tag_332\n        /* \"#utility.yul\":6012:6016   */\n      dup3\n        /* \"#utility.yul\":5990:6017   */\n      tag_213\n      jump\t// in\n    tag_332:\n        /* \"#utility.yul\":5982:5988   */\n      dup2\n        /* \"#utility.yul\":5978:6018   */\n      add\n        /* \"#utility.yul\":6120:6126   */\n      dup2\n        /* \"#utility.yul\":6108:6118   */\n      dup2\n        /* \"#utility.yul\":6105:6127   */\n      lt\n        /* \"#utility.yul\":6084:6102   */\n      0xffffffffffffffff\n        /* \"#utility.yul\":6072:6082   */\n      dup3\n        /* \"#utility.yul\":6069:6103   */\n      gt\n        /* \"#utility.yul\":6066:6128   */\n      or\n        /* \"#utility.yul\":6063:6151   */\n      iszero\n      tag_333\n      jumpi\n        /* \"#utility.yul\":6131:6149   */\n      tag_334\n      tag_220\n      jump\t// in\n    tag_334:\n        /* \"#utility.yul\":6063:6151   */\n    tag_333:\n        /* \"#utility.yul\":6171:6181   */\n      dup1\n        /* \"#utility.yul\":6167:6169   */\n      0x40\n        /* \"#utility.yul\":6160:6182   */\n      mstore\n        /* \"#utility.yul\":5950:6188   */\n      pop\n        /* \"#utility.yul\":5907:6188   */\n      pop\n      pop\n      jump\t// out\n        /* \"#utility.yul\":6194:6323   */\n    tag_222:\n        /* \"#utility.yul\":6228:6234   */\n      0x00\n        /* \"#utility.yul\":6255:6275   */\n      tag_336\n      tag_203\n      jump\t// in\n    tag_336:\n        /* \"#utility.yul\":6245:6275   */\n      swap1\n      pop\n        /* \"#utility.yul\":6284:6317   */\n      tag_337\n        /* \"#utility.yul\":6312:6316   */\n      dup3\n        /* \"#utility.yul\":6304:6310   */\n      dup3\n        /* \"#utility.yul\":6284:6317   */\n      tag_221\n      jump\t// in\n    tag_337:\n        /* \"#utility.yul\":6194:6323   */\n      swap2\n      swap1\n      pop\n      jump\t// out\n        /* \"#utility.yul\":6329:6637   */\n    tag_223:\n        /* \"#utility.yul\":6391:6395   */\n      0x00\n        /* \"#utility.yul\":6481:6499   */\n      0xffffffffffffffff\n        /* \"#utility.yul\":6473:6479   */\n      dup3\n        /* \"#utility.yul\":6470:6500   */\n      gt\n        /* \"#utility.yul\":6467:6523   */\n      iszero\n      tag_339\n      jumpi\n        /* \"#utility.yul\":6503:6521   */\n      tag_340\n      tag_220\n      jump\t// in\n    tag_340:\n        /* \"#utility.yul\":6467:6523   */\n    tag_339:\n        /* \"#utility.yul\":6541:6570   */\n      tag_341\n        /* \"#utility.yul\":6563:6569   */\n      dup3\n        /* \"#utility.yul\":6541:6570   */\n      tag_213\n      jump\t// in\n    tag_341:\n        /* \"#utility.yul\":6533:6570   */\n      swap1\n      pop\n        /* \"#utility.yul\":6625:6629   */\n      0x20\n        /* \"#utility.yul\":6619:6623   */\n      dup2\n        /* \"#utility.yul\":6615:6630   */\n      add\n        /* \"#utility.yul\":6607:6630   */\n      swap1\n      pop\n        /* \"#utility.yul\":6329:6637   */\n      swap2\n      swap1\n      pop\n      jump\t// out\n        /* \"#utility.yul\":6643:6791   */\n    tag_224:\n        /* \"#utility.yul\":6741:6747   */\n      dup3\n        /* \"#utility.yul\":6736:6739   */\n      dup2\n        /* \"#utility.yul\":6731:6734   */\n      dup4\n        /* \"#utility.yul\":6718:6748   */\n      calldatacopy\n        /* \"#utility.yul\":6782:6783   */\n      0x00\n        /* \"#utility.yul\":6773:6779   */\n      dup4\n        /* \"#utility.yul\":6768:6771   */\n      dup4\n        /* \"#utility.yul\":6764:6780   */\n      add\n        /* \"#utility.yul\":6757:6784   */\n      mstore\n        /* \"#utility.yul\":6643:6791   */\n      pop\n      pop\n      pop\n      jump\t// out\n        /* \"#utility.yul\":6797:7222   */\n    tag_225:\n        /* \"#utility.yul\":6875:6880   */\n      0x00\n        /* \"#utility.yul\":6900:6966   */\n      tag_344\n        /* \"#utility.yul\":6916:6965   */\n      tag_345\n        /* \"#utility.yul\":6958:6964   */\n      dup5\n        /* \"#utility.yul\":6916:6965   */\n      tag_223\n      jump\t// in\n    tag_345:\n        /* \"#utility.yul\":6900:6966   */\n      tag_222\n      jump\t// in\n    tag_344:\n        /* \"#utility.yul\":6891:6966   */\n      swap1\n      pop\n        /* \"#utility.yul\":6989:6995   */\n      dup3\n        /* \"#utility.yul\":6982:6987   */\n      dup2\n        /* \"#utility.yul\":6975:6996   */\n      mstore\n        /* \"#utility.yul\":7027:7031   */\n      0x20\n        /* \"#utility.yul\":7020:7025   */\n      dup2\n        /* \"#utility.yul\":7016:7032   */\n      add\n        /* \"#utility.yul\":7065:7068   */\n      dup5\n        /* \"#utility.yul\":7056:7062   */\n      dup5\n        /* \"#utility.yul\":7051:7054   */\n      dup5\n        /* \"#utility.yul\":7047:7063   */\n      add\n        /* \"#utility.yul\":7044:7069   */\n      gt\n        /* \"#utility.yul\":7041:7153   */\n      iszero\n      tag_346\n      jumpi\n        /* \"#utility.yul\":7072:7151   */\n      tag_347\n      tag_219\n      jump\t// in\n    tag_347:\n        /* \"#utility.yul\":7041:7153   */\n    tag_346:\n        /* \"#utility.yul\":7162:7216   */\n      tag_348\n        /* \"#utility.yul\":7209:7215   */\n      dup5\n        /* \"#utility.yul\":7204:7207   */\n      dup3\n        /* \"#utility.yul\":7199:7202   */\n      dup6\n        /* \"#utility.yul\":7162:7216   */\n      tag_224\n      jump\t// in\n    tag_348:\n        /* \"#utility.yul\":6881:7222   */\n      pop\n        /* \"#utility.yul\":6797:7222   */\n      swap4\n      swap3\n      pop\n      pop\n      pop\n      jump\t// out\n        /* \"#utility.yul\":7242:7582   */\n    tag_226:\n        /* \"#utility.yul\":7298:7303   */\n      0x00\n        /* \"#utility.yul\":7347:7350   */\n      dup3\n        /* \"#utility.yul\":7340:7344   */\n      0x1f\n        /* \"#utility.yul\":7332:7338   */\n      dup4\n        /* \"#utility.yul\":7328:7345   */\n      add\n        /* \"#utility.yul\":7324:7351   */\n      slt\n        /* \"#utility.yul\":7314:7436   */\n      tag_350\n      jumpi\n        /* \"#utility.yul\":7355:7434   */\n      tag_351\n      tag_218\n      jump\t// in\n    tag_351:\n        /* \"#utility.yul\":7314:7436   */\n    tag_350:\n        /* \"#utility.yul\":7472:7478   */\n      dup2\n        /* \"#utility.yul\":7459:7479   */\n      calldataload\n        /* \"#utility.yul\":7497:7576   */\n      tag_352\n        /* \"#utility.yul\":7572:7575   */\n      dup5\n        /* \"#utility.yul\":7564:7570   */\n      dup3\n        /* \"#utility.yul\":7557:7561   */\n      0x20\n        /* \"#utility.yul\":7549:7555   */\n      dup7\n        /* \"#utility.yul\":7545:7562   */\n      add\n        /* \"#utility.yul\":7497:7576   */\n      tag_225\n      jump\t// in\n    tag_352:\n        /* \"#utility.yul\":7488:7576   */\n      swap2\n      pop\n        /* \"#utility.yul\":7304:7582   */\n      pop\n        /* \"#utility.yul\":7242:7582   */\n      swap3\n      swap2\n      pop\n      pop\n      jump\t// out\n        /* \"#utility.yul\":7588:8242   */\n    tag_49:\n        /* \"#utility.yul\":7666:7672   */\n      0x00\n        /* \"#utility.yul\":7674:7680   */\n      dup1\n        /* \"#utility.yul\":7723:7725   */\n      0x40\n        /* \"#utility.yul\":7711:7720   */\n      dup4\n        /* \"#utility.yul\":7702:7709   */\n      dup6\n        /* \"#utility.yul\":7698:7721   */\n      sub\n        /* \"#utility.yul\":7694:7726   */\n      slt\n        /* \"#utility.yul\":7691:7810   */\n      iszero\n      tag_354\n      jumpi\n        /* \"#utility.yul\":7729:7808   */\n      tag_355\n      tag_204\n      jump\t// in\n    tag_355:\n        /* \"#utility.yul\":7691:7810   */\n    tag_354:\n        /* \"#utility.yul\":7849:7850   */\n      0x00\n        /* \"#utility.yul\":7874:7927   */\n      tag_356\n        /* \"#utility.yul\":7919:7926   */\n      dup6\n        /* \"#utility.yul\":7910:7916   */\n      dup3\n        /* \"#utility.yul\":7899:7908   */\n      dup7\n        /* \"#utility.yul\":7895:7917   */\n      add\n        /* \"#utility.yul\":7874:7927   */\n      tag_209\n      jump\t// in\n    tag_356:\n        /* \"#utility.yul\":7864:7927   */\n      swap3\n      pop\n        /* \"#utility.yul\":7820:7937   */\n      pop\n        /* \"#utility.yul\":8004:8006   */\n      0x20\n        /* \"#utility.yul\":7993:8002   */\n      dup4\n        /* \"#utility.yul\":7989:8007   */\n      add\n        /* \"#utility.yul\":7976:8008   */\n      calldataload\n        /* \"#utility.yul\":8035:8053   */\n      0xffffffffffffffff\n        /* \"#utility.yul\":8027:8033   */\n      dup2\n        /* \"#utility.yul\":8024:8054   */\n      gt\n        /* \"#utility.yul\":8021:8138   */\n      iszero\n      tag_357\n      jumpi\n        /* \"#utility.yul\":8057:8136   */\n      tag_358\n      tag_205\n      jump\t// in\n    tag_358:\n        /* \"#utility.yul\":8021:8138   */\n    tag_357:\n        /* \"#utility.yul\":8162:8225   */\n      tag_359\n        /* \"#utility.yul\":8217:8224   */\n      dup6\n        /* \"#utility.yul\":8208:8214   */\n      dup3\n        /* \"#utility.yul\":8197:8206   */\n      dup7\n        /* \"#utility.yul\":8193:8215   */\n      add\n        /* \"#utility.yul\":8162:8225   */\n      tag_226\n      jump\t// in\n    tag_359:\n        /* \"#utility.yul\":8152:8225   */\n      swap2\n      pop\n        /* \"#utility.yul\":7947:8235   */\n      pop\n        /* \"#utility.yul\":7588:8242   */\n      swap3\n      pop\n      swap3\n      swap1\n      pop\n      jump\t// out\n        /* \"#utility.yul\":8248:8370   */\n    tag_227:\n        /* \"#utility.yul\":8321:8345   */\n      tag_361\n        /* \"#utility.yul\":8339:8344   */\n      dup2\n        /* \"#utility.yul\":8321:8345   */\n      tag_201\n      jump\t// in\n    tag_361:\n        /* \"#utility.yul\":8314:8319   */\n      dup2\n        /* \"#utility.yul\":8311:8346   */\n      eq\n        /* \"#utility.yul\":8301:8364   */\n      tag_362\n      jumpi\n        /* \"#utility.yul\":8360:8361   */\n      0x00\n        /* \"#utility.yul\":8357:8358   */\n      dup1\n        /* \"#utility.yul\":8350:8362   */\n      revert\n        /* \"#utility.yul\":8301:8364   */\n    tag_362:\n        /* \"#utility.yul\":8248:8370   */\n      pop\n      jump\t// out\n        /* \"#utility.yul\":8376:8515   */\n    tag_228:\n        /* \"#utility.yul\":8422:8427   */\n      0x00\n        /* \"#utility.yul\":8460:8466   */\n      dup2\n        /* \"#utility.yul\":8447:8467   */\n      calldataload\n        /* \"#utility.yul\":8438:8467   */\n      swap1\n      pop\n        /* \"#utility.yul\":8476:8509   */\n      tag_364\n        /* \"#utility.yul\":8503:8508   */\n      dup2\n        /* \"#utility.yul\":8476:8509   */\n      tag_227\n      jump\t// in\n    tag_364:\n        /* \"#utility.yul\":8376:8515   */\n      swap3\n      swap2\n      pop\n      pop\n      jump\t// out\n        /* \"#utility.yul\":8521:8850   */\n    tag_53:\n        /* \"#utility.yul\":8580:8586   */\n      0x00\n        /* \"#utility.yul\":8629:8631   */\n      0x20\n        /* \"#utility.yul\":8617:8626   */\n      dup3\n        /* \"#utility.yul\":8608:8615   */\n      dup5\n        /* \"#utility.yul\":8604:8627   */\n      sub\n        /* \"#utility.yul\":8600:8632   */\n      slt\n        /* \"#utility.yul\":8597:8716   */\n      iszero\n      tag_366\n      jumpi\n        /* \"#utility.yul\":8635:8714   */\n      tag_367\n      tag_204\n      jump\t// in\n    tag_367:\n        /* \"#utility.yul\":8597:8716   */\n    tag_366:\n        /* \"#utility.yul\":8755:8756   */\n      0x00\n        /* \"#utility.yul\":8780:8833   */\n      tag_368\n        /* \"#utility.yul\":8825:8832   */\n      dup5\n        /* \"#utility.yul\":8816:8822   */\n      dup3\n        /* \"#utility.yul\":8805:8814   */\n      dup6\n        /* \"#utility.yul\":8801:8823   */\n      add\n        /* \"#utility.yul\":8780:8833   */\n      tag_228\n      jump\t// in\n    tag_368:\n        /* \"#utility.yul\":8770:8833   */\n      swap2\n      pop\n        /* \"#utility.yul\":8726:8843   */\n      pop\n        /* \"#utility.yul\":8521:8850   */\n      swap3\n      swap2\n      pop\n      pop\n      jump\t// out\n        /* \"#utility.yul\":8856:9078   */\n    tag_56:\n        /* \"#utility.yul\":8949:8953   */\n      0x00\n        /* \"#utility.yul\":8987:8989   */\n      0x20\n        /* \"#utility.yul\":8976:8985   */\n      dup3\n        /* \"#utility.yul\":8972:8990   */\n      add\n        /* \"#utility.yul\":8964:8990   */\n      swap1\n      pop\n        /* \"#utility.yul\":9000:9071   */\n      tag_370\n        /* \"#utility.yul\":9068:9069   */\n      0x00\n        /* \"#utility.yul\":9057:9066   */\n      dup4\n        /* \"#utility.yul\":9053:9070   */\n      add\n        /* \"#utility.yul\":9044:9050   */\n      dup5\n        /* \"#utility.yul\":9000:9071   */\n      tag_217\n      jump\t// in\n    tag_370:\n        /* \"#utility.yul\":8856:9078   */\n      swap3\n      swap2\n      pop\n      pop\n      jump\t// out\n        /* \"#utility.yul\":9084:9305   */\n    tag_229:\n        /* \"#utility.yul\":9224:9258   */\n      0x4f6e6c792061646d696e2063616e20706572666f726d20746869732061637469\n        /* \"#utility.yul\":9220:9221   */\n      0x00\n        /* \"#utility.yul\":9212:9218   */\n      dup3\n        /* \"#utility.yul\":9208:9222   */\n      add\n        /* \"#utility.yul\":9201:9259   */\n      mstore\n        /* \"#utility.yul\":9293:9297   */\n      0x6f6e000000000000000000000000000000000000000000000000000000000000\n        /* \"#utility.yul\":9288:9290   */\n      0x20\n        /* \"#utility.yul\":9280:9286   */\n      dup3\n        /* \"#utility.yul\":9276:9291   */\n      add\n        /* \"#utility.yul\":9269:9298   */\n      mstore\n        /* \"#utility.yul\":9084:9305   */\n      pop\n      jump\t// out\n        /* \"#utility.yul\":9311:9677   */\n    tag_230:\n        /* \"#utility.yul\":9453:9456   */\n      0x00\n        /* \"#utility.yul\":9474:9541   */\n      tag_373\n        /* \"#utility.yul\":9538:9540   */\n      0x22\n        /* \"#utility.yul\":9533:9536   */\n      dup4\n        /* \"#utility.yul\":9474:9541   */\n      tag_211\n      jump\t// in\n    tag_373:\n        /* \"#utility.yul\":9467:9541   */\n      swap2\n      pop\n        /* \"#utility.yul\":9550:9643   */\n      tag_374\n        /* \"#utility.yul\":9639:9642   */\n      dup3\n        /* \"#utility.yul\":9550:9643   */\n      tag_229\n      jump\t// in\n    tag_374:\n        /* \"#utility.yul\":9668:9670   */\n      0x40\n        /* \"#utility.yul\":9663:9666   */\n      dup3\n        /* \"#utility.yul\":9659:9671   */\n      add\n        /* \"#utility.yul\":9652:9671   */\n      swap1\n      pop\n        /* \"#utility.yul\":9311:9677   */\n      swap2\n      swap1\n      pop\n      jump\t// out\n        /* \"#utility.yul\":9683:10102   */\n    tag_65:\n        /* \"#utility.yul\":9849:9853   */\n      0x00\n        /* \"#utility.yul\":9887:9889   */\n      0x20\n        /* \"#utility.yul\":9876:9885   */\n      dup3\n        /* \"#utility.yul\":9872:9890   */\n      add\n        /* \"#utility.yul\":9864:9890   */\n      swap1\n      pop\n        /* \"#utility.yul\":9936:9945   */\n      dup2\n        /* \"#utility.yul\":9930:9934   */\n      dup2\n        /* \"#utility.yul\":9926:9946   */\n      sub\n        /* \"#utility.yul\":9922:9923   */\n      0x00\n        /* \"#utility.yul\":9911:9920   */\n      dup4\n        /* \"#utility.yul\":9907:9924   */\n      add\n        /* \"#utility.yul\":9900:9947   */\n      mstore\n        /* \"#utility.yul\":9964:10095   */\n      tag_376\n        /* \"#utility.yul\":10090:10094   */\n      dup2\n        /* \"#utility.yul\":9964:10095   */\n      tag_230\n      jump\t// in\n    tag_376:\n        /* \"#utility.yul\":9956:10095   */\n      swap1\n      pop\n        /* \"#utility.yul\":9683:10102   */\n      swap2\n      swap1\n      pop\n      jump\t// out\n        /* \"#utility.yul\":10108:10290   */\n    tag_231:\n        /* \"#utility.yul\":10248:10282   */\n      0x416374696f6e206e6f7420616c6c6f77656420696e2074686973207068617365\n        /* \"#utility.yul\":10244:10245   */\n      0x00\n        /* \"#utility.yul\":10236:10242   */\n      dup3\n        /* \"#utility.yul\":10232:10246   */\n      add\n        /* \"#utility.yul\":10225:10283   */\n      mstore\n        /* \"#utility.yul\":10108:10290   */\n      pop\n      jump\t// out\n        /* \"#utility.yul\":10296:10662   */\n    tag_232:\n        /* \"#utility.yul\":10438:10441   */\n      0x00\n        /* \"#utility.yul\":10459:10526   */\n      tag_379\n        /* \"#utility.yul\":10523:10525   */\n      0x20\n        /* \"#utility.yul\":10518:10521   */\n      dup4\n        /* \"#utility.yul\":10459:10526   */\n      tag_211\n      jump\t// in\n    tag_379:\n        /* \"#utility.yul\":10452:10526   */\n      swap2\n      pop\n        /* \"#utility.yul\":10535:10628   */\n      tag_380\n        /* \"#utility.yul\":10624:10627   */\n      dup3\n        /* \"#utility.yul\":10535:10628   */\n      tag_231\n      jump\t// in\n    tag_380:\n        /* \"#utility.yul\":10653:10655   */\n      0x20\n        /* \"#utility.yul\":10648:10651   */\n      dup3\n        /* \"#utility.yul\":10644:10656   */\n      add\n        /* \"#utility.yul\":10637:10656   */\n      swap1\n      pop\n        /* \"#utility.yul\":10296:10662   */\n      swap2\n      swap1\n      pop\n      jump\t// out\n        /* \"#utility.yul\":10668:11087   */\n    tag_74:\n        /* \"#utility.yul\":10834:10838   */\n      0x00\n        /* \"#utility.yul\":10872:10874   */\n      0x20\n        /* \"#utility.yul\":10861:10870   */\n      dup3\n        /* \"#utility.yul\":10857:10875   */\n      add\n        /* \"#utility.yul\":10849:10875   */\n      swap1\n      pop\n        /* \"#utility.yul\":10921:10930   */\n      dup2\n        /* \"#utility.yul\":10915:10919   */\n      dup2\n        /* \"#utility.yul\":10911:10931   */\n      sub\n        /* \"#utility.yul\":10907:10908   */\n      0x00\n        /* \"#utility.yul\":10896:10905   */\n      dup4\n        /* \"#utility.yul\":10892:10909   */\n      add\n        /* \"#utility.yul\":10885:10932   */\n      mstore\n        /* \"#utility.yul\":10949:11080   */\n      tag_382\n        /* \"#utility.yul\":11075:11079   */\n      dup2\n        /* \"#utility.yul\":10949:11080   */\n      tag_232\n      jump\t// in\n    tag_382:\n        /* \"#utility.yul\":10941:11080   */\n      swap1\n      pop\n        /* \"#utility.yul\":10668:11087   */\n      swap2\n      swap1\n      pop\n      jump\t// out\n        /* \"#utility.yul\":11093:11274   */\n    tag_233:\n        /* \"#utility.yul\":11233:11266   */\n      0x4174206c65617374206f6e652063616e64696461746520726571756972656400\n        /* \"#utility.yul\":11229:11230   */\n      0x00\n        /* \"#utility.yul\":11221:11227   */\n      dup3\n        /* \"#utility.yul\":11217:11231   */\n      add\n        /* \"#utility.yul\":11210:11267   */\n      mstore\n        /* \"#utility.yul\":11093:11274   */\n      pop\n      jump\t// out\n        /* \"#utility.yul\":11280:11646   */\n    tag_234:\n        /* \"#utility.yul\":11422:11425   */\n      0x00\n        /* \"#utility.yul\":11443:11510   */\n      tag_385\n        /* \"#utility.yul\":11507:11509   */\n      0x1f\n        /* \"#utility.yul\":11502:11505   */\n      dup4\n        /* \"#utility.yul\":11443:11510   */\n      tag_211\n      jump\t// in\n    tag_385:\n        /* \"#utility.yul\":11436:11510   */\n      swap2\n      pop\n        /* \"#utility.yul\":11519:11612   */\n      tag_386\n        /* \"#utility.yul\":11608:11611   */\n      dup3\n        /* \"#utility.yul\":11519:11612   */\n      tag_233\n      jump\t// in\n    tag_386:\n        /* \"#utility.yul\":11637:11639   */\n      0x20\n        /* \"#utility.yul\":11632:11635   */\n      dup3\n        /* \"#utility.yul\":11628:11640   */\n      add\n        /* \"#utility.yul\":11621:11640   */\n      swap1\n      pop\n        /* \"#utility.yul\":11280:11646   */\n      swap2\n      swap1\n      pop\n      jump\t// out\n        /* \"#utility.yul\":11652:12071   */\n    tag_78:\n        /* \"#utility.yul\":11818:11822   */\n      0x00\n        /* \"#utility.yul\":11856:11858   */\n      0x20\n        /* \"#utility.yul\":11845:11854   */\n      dup3\n        /* \"#utility.yul\":11841:11859   */\n      add\n        /* \"#utility.yul\":11833:11859   */\n      swap1\n      pop\n        /* \"#utility.yul\":11905:11914   */\n      dup2\n        /* \"#utility.yul\":11899:11903   */\n      dup2\n        /* \"#utility.yul\":11895:11915   */\n      sub\n        /* \"#utility.yul\":11891:11892   */\n      0x00\n        /* \"#utility.yul\":11880:11889   */\n      dup4\n        /* \"#utility.yul\":11876:11893   */\n      add\n        /* \"#utility.yul\":11869:11916   */\n      mstore\n        /* \"#utility.yul\":11933:12064   */\n      tag_388\n        /* \"#utility.yul\":12059:12063   */\n      dup2\n        /* \"#utility.yul\":11933:12064   */\n      tag_234\n      jump\t// in\n    tag_388:\n        /* \"#utility.yul\":11925:12064   */\n      swap1\n      pop\n        /* \"#utility.yul\":11652:12071   */\n      swap2\n      swap1\n      pop\n      jump\t// out\n        /* \"#utility.yul\":12077:12251   */\n    tag_235:\n        /* \"#utility.yul\":12217:12243   */\n      0x566f74657220616c726561647920726567697374657265640000000000000000\n        /* \"#utility.yul\":12213:12214   */\n      0x00\n        /* \"#utility.yul\":12205:12211   */\n      dup3\n        /* \"#utility.yul\":12201:12215   */\n      add\n        /* \"#utility.yul\":12194:12244   */\n      mstore\n        /* \"#utility.yul\":12077:12251   */\n      pop\n      jump\t// out\n        /* \"#utility.yul\":12257:12623   */\n    tag_236:\n        /* \"#utility.yul\":12399:12402   */\n      0x00\n        /* \"#utility.yul\":12420:12487   */\n      tag_391\n        /* \"#utility.yul\":12484:12486   */\n      0x18\n        /* \"#utility.yul\":12479:12482   */\n      dup4\n        /* \"#utility.yul\":12420:12487   */\n      tag_211\n      jump\t// in\n    tag_391:\n        /* \"#utility.yul\":12413:12487   */\n      swap2\n      pop\n        /* \"#utility.yul\":12496:12589   */\n      tag_392\n        /* \"#utility.yul\":12585:12588   */\n      dup3\n        /* \"#utility.yul\":12496:12589   */\n      tag_235\n      jump\t// in\n    tag_392:\n        /* \"#utility.yul\":12614:12616   */\n      0x20\n        /* \"#utility.yul\":12609:12612   */\n      dup3\n        /* \"#utility.yul\":12605:12617   */\n      add\n        /* \"#utility.yul\":12598:12617   */\n      swap1\n      pop\n        /* \"#utility.yul\":12257:12623   */\n      swap2\n      swap1\n      pop\n      jump\t// out\n        /* \"#utility.yul\":12629:13048   */\n    tag_95:\n        /* \"#utility.yul\":12795:12799   */\n      0x00\n        /* \"#utility.yul\":12833:12835   */\n      0x20\n        /* \"#utility.yul\":12822:12831   */\n      dup3\n        /* \"#utility.yul\":12818:12836   */\n      add\n        /* \"#utility.yul\":12810:12836   */\n      swap1\n      pop\n        /* \"#utility.yul\":12882:12891   */\n      dup2\n        /* \"#utility.yul\":12876:12880   */\n      dup2\n        /* \"#utility.yul\":12872:12892   */\n      sub\n        /* \"#utility.yul\":12868:12869   */\n      0x00\n        /* \"#utility.yul\":12857:12866   */\n      dup4\n        /* \"#utility.yul\":12853:12870   */\n      add\n        /* \"#utility.yul\":12846:12893   */\n      mstore\n        /* \"#utility.yul\":12910:13041   */\n      tag_394\n        /* \"#utility.yul\":13036:13040   */\n      dup2\n        /* \"#utility.yul\":12910:13041   */\n      tag_236\n      jump\t// in\n    tag_394:\n        /* \"#utility.yul\":12902:13041   */\n      swap1\n      pop\n        /* \"#utility.yul\":12629:13048   */\n      swap2\n      swap1\n      pop\n      jump\t// out\n        /* \"#utility.yul\":13054:13234   */\n    tag_237:\n        /* \"#utility.yul\":13194:13226   */\n      0x596f7520617265206e6f74207265676973746572656420746f20766f74650000\n        /* \"#utility.yul\":13190:13191   */\n      0x00\n        /* \"#utility.yul\":13182:13188   */\n      dup3\n        /* \"#utility.yul\":13178:13192   */\n      add\n        /* \"#utility.yul\":13171:13227   */\n      mstore\n        /* \"#utility.yul\":13054:13234   */\n      pop\n      jump\t// out\n        /* \"#utility.yul\":13240:13606   */\n    tag_238:\n        /* \"#utility.yul\":13382:13385   */\n      0x00\n        /* \"#utility.yul\":13403:13470   */\n      tag_397\n        /* \"#utility.yul\":13467:13469   */\n      0x1e\n        /* \"#utility.yul\":13462:13465   */\n      dup4\n        /* \"#utility.yul\":13403:13470   */\n      tag_211\n      jump\t// in\n    tag_397:\n        /* \"#utility.yul\":13396:13470   */\n      swap2\n      pop\n        /* \"#utility.yul\":13479:13572   */\n      tag_398\n        /* \"#utility.yul\":13568:13571   */\n      dup3\n        /* \"#utility.yul\":13479:13572   */\n      tag_237\n      jump\t// in\n    tag_398:\n        /* \"#utility.yul\":13597:13599   */\n      0x20\n        /* \"#utility.yul\":13592:13595   */\n      dup3\n        /* \"#utility.yul\":13588:13600   */\n      add\n        /* \"#utility.yul\":13581:13600   */\n      swap1\n      pop\n        /* \"#utility.yul\":13240:13606   */\n      swap2\n      swap1\n      pop\n      jump\t// out\n        /* \"#utility.yul\":13612:14031   */\n    tag_109:\n        /* \"#utility.yul\":13778:13782   */\n      0x00\n        /* \"#utility.yul\":13816:13818   */\n      0x20\n        /* \"#utility.yul\":13805:13814   */\n      dup3\n        /* \"#utility.yul\":13801:13819   */\n      add\n        /* \"#utility.yul\":13793:13819   */\n      swap1\n      pop\n        /* \"#utility.yul\":13865:13874   */\n      dup2\n        /* \"#utility.yul\":13859:13863   */\n      dup2\n        /* \"#utility.yul\":13855:13875   */\n      sub\n        /* \"#utility.yul\":13851:13852   */\n      0x00\n        /* \"#utility.yul\":13840:13849   */\n      dup4\n        /* \"#utility.yul\":13836:13853   */\n      add\n        /* \"#utility.yul\":13829:13876   */\n      mstore\n        /* \"#utility.yul\":13893:14024   */\n      tag_400\n        /* \"#utility.yul\":14019:14023   */\n      dup2\n        /* \"#utility.yul\":13893:14024   */\n      tag_238\n      jump\t// in\n    tag_400:\n        /* \"#utility.yul\":13885:14024   */\n      swap1\n      pop\n        /* \"#utility.yul\":13612:14031   */\n      swap2\n      swap1\n      pop\n      jump\t// out\n        /* \"#utility.yul\":14037:14209   */\n    tag_239:\n        /* \"#utility.yul\":14177:14201   */\n      0x596f75206861766520616c726561647920766f74656400000000000000000000\n        /* \"#utility.yul\":14173:14174   */\n      0x00\n        /* \"#utility.yul\":14165:14171   */\n      dup3\n        /* \"#utility.yul\":14161:14175   */\n      add\n        /* \"#utility.yul\":14154:14202   */\n      mstore\n        /* \"#utility.yul\":14037:14209   */\n      pop\n      jump\t// out\n        /* \"#utility.yul\":14215:14581   */\n    tag_240:\n        /* \"#utility.yul\":14357:14360   */\n      0x00\n        /* \"#utility.yul\":14378:14445   */\n      tag_403\n        /* \"#utility.yul\":14442:14444   */\n      0x16\n        /* \"#utility.yul\":14437:14440   */\n      dup4\n        /* \"#utility.yul\":14378:14445   */\n      tag_211\n      jump\t// in\n    tag_403:\n        /* \"#utility.yul\":14371:14445   */\n      swap2\n      pop\n        /* \"#utility.yul\":14454:14547   */\n      tag_404\n        /* \"#utility.yul\":14543:14546   */\n      dup3\n        /* \"#utility.yul\":14454:14547   */\n      tag_239\n      jump\t// in\n    tag_404:\n        /* \"#utility.yul\":14572:14574   */\n      0x20\n        /* \"#utility.yul\":14567:14570   */\n      dup3\n        /* \"#utility.yul\":14563:14575   */\n      add\n        /* \"#utility.yul\":14556:14575   */\n      swap1\n      pop\n        /* \"#utility.yul\":14215:14581   */\n      swap2\n      swap1\n      pop\n      jump\t// out\n        /* \"#utility.yul\":14587:15006   */\n    tag_112:\n        /* \"#utility.yul\":14753:14757   */\n      0x00\n        /* \"#utility.yul\":14791:14793   */\n      0x20\n        /* \"#utility.yul\":14780:14789   */\n      dup3\n        /* \"#utility.yul\":14776:14794   */\n      add\n        /* \"#utility.yul\":14768:14794   */\n      swap1\n      pop\n        /* \"#utility.yul\":14840:14849   */\n      dup2\n        /* \"#utility.yul\":14834:14838   */\n      dup2\n        /* \"#utility.yul\":14830:14850   */\n      sub\n        /* \"#utility.yul\":14826:14827   */\n      0x00\n        /* \"#utility.yul\":14815:14824   */\n      dup4\n        /* \"#utility.yul\":14811:14828   */\n      add\n        /* \"#utility.yul\":14804:14851   */\n      mstore\n        /* \"#utility.yul\":14868:14999   */\n      tag_406\n        /* \"#utility.yul\":14994:14998   */\n      dup2\n        /* \"#utility.yul\":14868:14999   */\n      tag_240\n      jump\t// in\n    tag_406:\n        /* \"#utility.yul\":14860:14999   */\n      swap1\n      pop\n        /* \"#utility.yul\":14587:15006   */\n      swap2\n      swap1\n      pop\n      jump\t// out\n        /* \"#utility.yul\":15012:15179   */\n    tag_241:\n        /* \"#utility.yul\":15152:15171   */\n      0x496e76616c69642063616e646964617465000000000000000000000000000000\n        /* \"#utility.yul\":15148:15149   */\n      0x00\n        /* \"#utility.yul\":15140:15146   */\n      dup3\n        /* \"#utility.yul\":15136:15150   */\n      add\n        /* \"#utility.yul\":15129:15172   */\n      mstore\n        /* \"#utility.yul\":15012:15179   */\n      pop\n      jump\t// out\n        /* \"#utility.yul\":15185:15551   */\n    tag_242:\n        /* \"#utility.yul\":15327:15330   */\n      0x00\n        /* \"#utility.yul\":15348:15415   */\n      tag_409\n        /* \"#utility.yul\":15412:15414   */\n      0x11\n        /* \"#utility.yul\":15407:15410   */\n      dup4\n        /* \"#utility.yul\":15348:15415   */\n      tag_211\n      jump\t// in\n    tag_409:\n        /* \"#utility.yul\":15341:15415   */\n      swap2\n      pop\n        /* \"#utility.yul\":15424:15517   */\n      tag_410\n        /* \"#utility.yul\":15513:15516   */\n      dup3\n        /* \"#utility.yul\":15424:15517   */\n      tag_241\n      jump\t// in\n    tag_410:\n        /* \"#utility.yul\":15542:15544   */\n      0x20\n        /* \"#utility.yul\":15537:15540   */\n      dup3\n        /* \"#utility.yul\":15533:15545   */\n      add\n        /* \"#utility.yul\":15526:15545   */\n      swap1\n      pop\n        /* \"#utility.yul\":15185:15551   */\n      swap2\n      swap1\n      pop\n      jump\t// out\n        /* \"#utility.yul\":15557:15976   */\n    tag_115:\n        /* \"#utility.yul\":15723:15727   */\n      0x00\n        /* \"#utility.yul\":15761:15763   */\n      0x20\n        /* \"#utility.yul\":15750:15759   */\n      dup3\n        /* \"#utility.yul\":15746:15764   */\n      add\n        /* \"#utility.yul\":15738:15764   */\n      swap1\n      pop\n        /* \"#utility.yul\":15810:15819   */\n      dup2\n        /* \"#utility.yul\":15804:15808   */\n      dup2\n        /* \"#utility.yul\":15800:15820   */\n      sub\n        /* \"#utility.yul\":15796:15797   */\n      0x00\n        /* \"#utility.yul\":15785:15794   */\n      dup4\n        /* \"#utility.yul\":15781:15798   */\n      add\n        /* \"#utility.yul\":15774:15821   */\n      mstore\n        /* \"#utility.yul\":15838:15969   */\n      tag_412\n        /* \"#utility.yul\":15964:15968   */\n      dup2\n        /* \"#utility.yul\":15838:15969   */\n      tag_242\n      jump\t// in\n    tag_412:\n        /* \"#utility.yul\":15830:15969   */\n      swap1\n      pop\n        /* \"#utility.yul\":15557:15976   */\n      swap2\n      swap1\n      pop\n      jump\t// out\n        /* \"#utility.yul\":15982:16162   */\n    tag_243:\n        /* \"#utility.yul\":16030:16107   */\n      0x4e487b7100000000000000000000000000000000000000000000000000000000\n        /* \"#utility.yul\":16027:16028   */\n      0x00\n        /* \"#utility.yul\":16020:16108   */\n      mstore\n        /* \"#utility.yul\":16127:16131   */\n      0x11\n        /* \"#utility.yul\":16124:16125   */\n      0x04\n        /* \"#utility.yul\":16117:16132   */\n      mstore\n        /* \"#utility.yul\":16151:16155   */\n      0x24\n        /* \"#utility.yul\":16148:16149   */\n      0x00\n        /* \"#utility.yul\":16141:16156   */\n      revert\n        /* \"#utility.yul\":16168:16401   */\n    tag_117:\n        /* \"#utility.yul\":16207:16210   */\n      0x00\n        /* \"#utility.yul\":16230:16254   */\n      tag_415\n        /* \"#utility.yul\":16248:16253   */\n      dup3\n        /* \"#utility.yul\":16230:16254   */\n      tag_201\n      jump\t// in\n    tag_415:\n        /* \"#utility.yul\":16221:16254   */\n      swap2\n      pop\n        /* \"#utility.yul\":16276:16342   */\n      0xffffffffffffffffffffffffffffffffffffffffffffffffffffffffffffffff\n        /* \"#utility.yul\":16269:16274   */\n      dup3\n        /* \"#utility.yul\":16266:16343   */\n      sub\n        /* \"#utility.yul\":16263:16366   */\n      tag_416\n      jumpi\n        /* \"#utility.yul\":16346:16364   */\n      tag_417\n      tag_243\n      jump\t// in\n    tag_417:\n        /* \"#utility.yul\":16263:16366   */\n    tag_416:\n        /* \"#utility.yul\":16393:16394   */\n      0x01\n        /* \"#utility.yul\":16386:16391   */\n      dup3\n        /* \"#utility.yul\":16382:16395   */\n      add\n        /* \"#utility.yul\":16375:16395   */\n      swap1\n      pop\n        /* \"#utility.yul\":16168:16401   */\n      swap2\n      swap1\n      pop\n      jump\t// out\n        /* \"#utility.yul\":16407:16587   */\n    tag_244:\n        /* \"#utility.yul\":16455:16532   */\n      0x4e487b7100000000000000000000000000000000000000000000000000000000\n        /* \"#utility.yul\":16452:16453   */\n      0x00\n        /* \"#utility.yul\":16445:16533   */\n      mstore\n        /* \"#utility.yul\":16552:16556   */\n      0x22\n        /* \"#utility.yul\":16549:16550   */\n      0x04\n        /* \"#utility.yul\":16542:16557   */\n      mstore\n        /* \"#utility.yul\":16576:16580   */\n      0x24\n        /* \"#utility.yul\":16573:16574   */\n      0x00\n        /* \"#utility.yul\":16566:16581   */\n      revert\n        /* \"#utility.yul\":16593:16913   */\n    tag_122:\n        /* \"#utility.yul\":16637:16643   */\n      0x00\n        /* \"#utility.yul\":16674:16675   */\n      0x02\n        /* \"#utility.yul\":16668:16672   */\n      dup3\n        /* \"#utility.yul\":16664:16676   */\n      div\n        /* \"#utility.yul\":16654:16676   */\n      swap1\n      pop\n        /* \"#utility.yul\":16721:16722   */\n      0x01\n        /* \"#utility.yul\":16715:16719   */\n      dup3\n        /* \"#utility.yul\":16711:16723   */\n      and\n        /* \"#utility.yul\":16742:16760   */\n      dup1\n        /* \"#utility.yul\":16732:16813   */\n      tag_420\n      jumpi\n        /* \"#utility.yul\":16798:16802   */\n      0x7f\n        /* \"#utility.yul\":16790:16796   */\n      dup3\n        /* \"#utility.yul\":16786:16803   */\n      and\n        /* \"#utility.yul\":16776:16803   */\n      swap2\n      pop\n        /* \"#utility.yul\":16732:16813   */\n    tag_420:\n        /* \"#utility.yul\":16860:16862   */\n      0x20\n        /* \"#utility.yul\":16852:16858   */\n      dup3\n        /* \"#utility.yul\":16849:16863   */\n      lt\n        /* \"#utility.yul\":16829:16847   */\n      dup2\n        /* \"#utility.yul\":16826:16864   */\n      sub\n        /* \"#utility.yul\":16823:16907   */\n      tag_421\n      jumpi\n        /* \"#utility.yul\":16879:16897   */\n      tag_422\n      tag_244\n      jump\t// in\n    tag_422:\n        /* \"#utility.yul\":16823:16907   */\n    tag_421:\n        /* \"#utility.yul\":16644:16913   */\n      pop\n        /* \"#utility.yul\":16593:16913   */\n      swap2\n      swap1\n      pop\n      jump\t// out\n        /* \"#utility.yul\":16919:17082   */\n    tag_245:\n        /* \"#utility.yul\":17059:17074   */\n      0x4e6f20766f746573206361737400000000000000000000000000000000000000\n        /* \"#utility.yul\":17055:17056   */\n      0x00\n        /* \"#utility.yul\":17047:17053   */\n      dup3\n        /* \"#utility.yul\":17043:17057   */\n      add\n        /* \"#utility.yul\":17036:17075   */\n      mstore\n        /* \"#utility.yul\":16919:17082   */\n      pop\n      jump\t// out\n        /* \"#utility.yul\":17088:17454   */\n    tag_246:\n        /* \"#utility.yul\":17230:17233   */\n      0x00\n        /* \"#utility.yul\":17251:17318   */\n      tag_425\n        /* \"#utility.yul\":17315:17317   */\n      0x0d\n        /* \"#utility.yul\":17310:17313   */\n      dup4\n        /* \"#utility.yul\":17251:17318   */\n      tag_211\n      jump\t// in\n    tag_425:\n        /* \"#utility.yul\":17244:17318   */\n      swap2\n      pop\n        /* \"#utility.yul\":17327:17420   */\n      tag_426\n        /* \"#utility.yul\":17416:17419   */\n      dup3\n        /* \"#utility.yul\":17327:17420   */\n      tag_245\n      jump\t// in\n    tag_426:\n        /* \"#utility.yul\":17445:17447   */\n      0x20\n        /* \"#utility.yul\":17440:17443   */\n      dup3\n        /* \"#utility.yul\":17436:17448   */\n      add\n        /* \"#utility.yul\":17429:17448   */\n      swap1\n      pop\n        /* \"#utility.yul\":17088:17454   */\n      swap2\n      swap1\n      pop\n      jump\t// out\n        /* \"#utility.yul\":17460:17879   */\n    tag_137:\n        /* \"#utility.yul\":17626:17630   */\n      0x00\n        /* \"#utility.yul\":17664:17666   */\n      0x20\n        /* \"#utility.yul\":17653:17662   */\n      dup3\n        /* \"#utility.yul\":17649:17667   */\n      add\n        /* \"#utility.yul\":17641:17667   */\n      swap1\n      pop\n        /* \"#utility.yul\":17713:17722   */\n      dup2\n        /* \"#utility.yul\":17707:17711   */\n      dup2\n        /* \"#utility.yul\":17703:17723   */\n      sub\n        /* \"#utility.yul\":17699:17700   */\n      0x00\n        /* \"#utility.yul\":17688:17697   */\n      dup4\n        /* \"#utility.yul\":17684:17701   */\n      add\n        /* \"#utility.yul\":17677:17724   */\n      mstore\n        /* \"#utility.yul\":17741:17872   */\n      tag_428\n        /* \"#utility.yul\":17867:17871   */\n      dup2\n        /* \"#utility.yul\":17741:17872   */\n      tag_246\n      jump\t// in\n    tag_428:\n        /* \"#utility.yul\":17733:17872   */\n      swap1\n      pop\n        /* \"#utility.yul\":17460:17879   */\n      swap2\n      swap1\n      pop\n      jump\t// out\n        /* \"#utility.yul\":17885:18065   */\n    tag_143:\n        /* \"#utility.yul\":17933:18010   */\n      0x4e487b7100000000000000000000000000000000000000000000000000000000\n        /* \"#utility.yul\":17930:17931   */\n      0x00\n        /* \"#utility.yul\":17923:18011   */\n      mstore\n        /* \"#utility.yul\":18030:18034   */\n      0x32\n        /* \"#utility.yul\":18027:18028   */\n      0x04\n        /* \"#utility.yul\":18020:18035   */\n      mstore\n        /* \"#utility.yul\":18054:18058   */\n      0x24\n        /* \"#utility.yul\":18051:18052   */\n      0x00\n        /* \"#utility.yul\":18044:18059   */\n      revert\n        /* \"#utility.yul\":18071:18249   */\n    tag_247:\n        /* \"#utility.yul\":18211:18241   */\n      0x43616e64696461746520616c7265616479207265676973746572656400000000\n        /* \"#utility.yul\":18207:18208   */\n      0x00\n        /* \"#utility.yul\":18199:18205   */\n      dup3\n        /* \"#utility.yul\":18195:18209   */\n      add\n        /* \"#utility.yul\":18188:18242   */\n      mstore\n        /* \"#utility.yul\":18071:18249   */\n      pop\n      jump\t// out\n        /* \"#utility.yul\":18255:18621   */\n    tag_248:\n        /* \"#utility.yul\":18397:18400   */\n      0x00\n        /* \"#utility.yul\":18418:18485   */\n      tag_432\n        /* \"#utility.yul\":18482:18484   */\n      0x1c\n        /* \"#utility.yul\":18477:18480   */\n      dup4\n        /* \"#utility.yul\":18418:18485   */\n      tag_211\n      jump\t// in\n    tag_432:\n        /* \"#utility.yul\":18411:18485   */\n      swap2\n      pop\n        /* \"#utility.yul\":18494:18587   */\n      tag_433\n        /* \"#utility.yul\":18583:18586   */\n      dup3\n        /* \"#utility.yul\":18494:18587   */\n      tag_247\n      jump\t// in\n    tag_433:\n        /* \"#utility.yul\":18612:18614   */\n      0x20\n        /* \"#utility.yul\":18607:18610   */\n      dup3\n        /* \"#utility.yul\":18603:18615   */\n      add\n        /* \"#utility.yul\":18596:18615   */\n      swap1\n      pop\n        /* \"#utility.yul\":18255:18621   */\n      swap2\n      swap1\n      pop\n      jump\t// out\n        /* \"#utility.yul\":18627:19046   */\n    tag_170:\n        /* \"#utility.yul\":18793:18797   */\n      0x00\n        /* \"#utility.yul\":18831:18833   */\n      0x20\n        /* \"#utility.yul\":18820:18829   */\n      dup3\n        /* \"#utility.yul\":18816:18834   */\n      add\n        /* \"#utility.yul\":18808:18834   */\n      swap1\n      pop\n        /* \"#utility.yul\":18880:18889   */\n      dup2\n        /* \"#utility.yul\":18874:18878   */\n      dup2\n        /* \"#utility.yul\":18870:18890   */\n      sub\n        /* \"#utility.yul\":18866:18867   */\n      0x00\n        /* \"#utility.yul\":18855:18864   */\n      dup4\n        /* \"#utility.yul\":18851:18868   */\n      add\n        /* \"#utility.yul\":18844:18891   */\n      mstore\n        /* \"#utility.yul\":18908:19039   */\n      tag_435\n        /* \"#utility.yul\":19034:19038   */\n      dup2\n        /* \"#utility.yul\":18908:19039   */\n      tag_248\n      jump\t// in\n    tag_435:\n        /* \"#utility.yul\":18900:19039   */\n      swap1\n      pop\n        /* \"#utility.yul\":18627:19046   */\n      swap2\n      swap1\n      pop\n      jump\t// out\n        /* \"#utility.yul\":19052:19193   */\n    tag_249:\n        /* \"#utility.yul\":19101:19105   */\n      0x00\n        /* \"#utility.yul\":19124:19127   */\n      dup2\n        /* \"#utility.yul\":19116:19127   */\n      swap1\n      pop\n        /* \"#utility.yul\":19147:19150   */\n      dup2\n        /* \"#utility.yul\":19144:19145   */\n      0x00\n        /* \"#utility.yul\":19137:19151   */\n      mstore\n        /* \"#utility.yul\":19181:19185   */\n      0x20\n        /* \"#utility.yul\":19178:19179   */\n      0x00\n        /* \"#utility.yul\":19168:19186   */\n      keccak256\n        /* \"#utility.yul\":19160:19186   */\n      swap1\n      pop\n        /* \"#utility.yul\":19052:19193   */\n      swap2\n      swap1\n      pop\n      jump\t// out\n        /* \"#utility.yul\":19199:19292   */\n    tag_250:\n        /* \"#utility.yul\":19236:19242   */\n      0x00\n        /* \"#utility.yul\":19283:19285   */\n      0x20\n        /* \"#utility.yul\":19278:19280   */\n      0x1f\n        /* \"#utility.yul\":19271:19276   */\n      dup4\n        /* \"#utility.yul\":19267:19281   */\n      add\n        /* \"#utility.yul\":19263:19286   */\n      div\n        /* \"#utility.yul\":19253:19286   */\n      swap1\n      pop\n        /* \"#utility.yul\":19199:19292   */\n      swap2\n      swap1\n      pop\n      jump\t// out\n        /* \"#utility.yul\":19298:19405   */\n    tag_251:\n        /* \"#utility.yul\":19342:19350   */\n      0x00\n        /* \"#utility.yul\":19392:19397   */\n      dup3\n        /* \"#utility.yul\":19386:19390   */\n      dup3\n        /* \"#utility.yul\":19382:19398   */\n      shl\n        /* \"#utility.yul\":19361:19398   */\n      swap1\n      pop\n        /* \"#utility.yul\":19298:19405   */\n      swap3\n      swap2\n      pop\n      pop\n      jump\t// out\n        /* \"#utility.yul\":19411:19804   */\n    tag_252:\n        /* \"#utility.yul\":19480:19486   */\n      0x00\n        /* \"#utility.yul\":19530:19531   */\n      0x08\n        /* \"#utility.yul\":19518:19528   */\n      dup4\n        /* \"#utility.yul\":19514:19532   */\n      mul\n        /* \"#utility.yul\":19553:19650   */\n      tag_440\n        /* \"#utility.yul\":19583:19649   */\n      0xffffffffffffffffffffffffffffffffffffffffffffffffffffffffffffffff\n        /* \"#utility.yul\":19572:19581   */\n      dup3\n        /* \"#utility.yul\":19553:19650   */\n      tag_251\n      jump\t// in\n    tag_440:\n        /* \"#utility.yul\":19671:19710   */\n      tag_441\n        /* \"#utility.yul\":19701:19709   */\n      dup7\n        /* \"#utility.yul\":19690:19699   */\n      dup4\n        /* \"#utility.yul\":19671:19710   */\n      tag_251\n      jump\t// in\n    tag_441:\n        /* \"#utility.yul\":19659:19710   */\n      swap6\n      pop\n        /* \"#utility.yul\":19743:19747   */\n      dup1\n        /* \"#utility.yul\":19739:19748   */\n      not\n        /* \"#utility.yul\":19732:19737   */\n      dup5\n        /* \"#utility.yul\":19728:19749   */\n      and\n        /* \"#utility.yul\":19719:19749   */\n      swap4\n      pop\n        /* \"#utility.yul\":19792:19796   */\n      dup1\n        /* \"#utility.yul\":19782:19790   */\n      dup7\n        /* \"#utility.yul\":19778:19797   */\n      and\n        /* \"#utility.yul\":19771:19776   */\n      dup5\n        /* \"#utility.yul\":19768:19798   */\n      or\n        /* \"#utility.yul\":19758:19798   */\n      swap3\n      pop\n        /* \"#utility.yul\":19487:19804   */\n      pop\n      pop\n        /* \"#utility.yul\":19411:19804   */\n      swap4\n      swap3\n      pop\n      pop\n      pop\n      jump\t// out\n        /* \"#utility.yul\":19810:19870   */\n    tag_253:\n        /* \"#utility.yul\":19838:19841   */\n      0x00\n        /* \"#utility.yul\":19859:19864   */\n      dup2\n        /* \"#utility.yul\":19852:19864   */\n      swap1\n      pop\n        /* \"#utility.yul\":19810:19870   */\n      swap2\n      swap1\n      pop\n      jump\t// out\n        /* \"#utility.yul\":19876:20018   */\n    tag_254:\n        /* \"#utility.yul\":19926:19935   */\n      0x00\n        /* \"#utility.yul\":19959:20012   */\n      tag_444\n        /* \"#utility.yul\":19977:20011   */\n      tag_445\n        /* \"#utility.yul\":19986:20010   */\n      tag_446\n        /* \"#utility.yul\":20004:20009   */\n      dup5\n        /* \"#utility.yul\":19986:20010   */\n      tag_201\n      jump\t// in\n    tag_446:\n        /* \"#utility.yul\":19977:20011   */\n      tag_253\n      jump\t// in\n    tag_445:\n        /* \"#utility.yul\":19959:20012   */\n      tag_201\n      jump\t// in\n    tag_444:\n        /* \"#utility.yul\":19946:20012   */\n      swap1\n      pop\n        /* \"#utility.yul\":19876:20018   */\n      swap2\n      swap1\n      pop\n      jump\t// out\n        /* \"#utility.yul\":20024:20099   */\n    tag_255:\n        /* \"#utility.yul\":20067:20070   */\n      0x00\n        /* \"#utility.yul\":20088:20093   */\n      dup2\n        /* \"#utility.yul\":20081:20093   */\n      swap1\n      pop\n        /* \"#utility.yul\":20024:20099   */\n      swap2\n      swap1\n      pop\n      jump\t// out\n        /* \"#utility.yul\":20105:20374   */\n    tag_256:\n        /* \"#utility.yul\":20215:20254   */\n      tag_449\n        /* \"#utility.yul\":20246:20253   */\n      dup4\n        /* \"#utility.yul\":20215:20254   */\n      tag_254\n      jump\t// in\n    tag_449:\n        /* \"#utility.yul\":20276:20367   */\n      tag_450\n        /* \"#utility.yul\":20325:20366   */\n      tag_451\n        /* \"#utility.yul\":20349:20365   */\n      dup3\n        /* \"#utility.yul\":20325:20366   */\n      tag_255\n      jump\t// in\n    tag_451:\n        /* \"#utility.yul\":20317:20323   */\n      dup5\n        /* \"#utility.yul\":20310:20314   */\n      dup5\n        /* \"#utility.yul\":20304:20315   */\n      sload\n        /* \"#utility.yul\":20276:20367   */\n      tag_252\n      jump\t// in\n    tag_450:\n        /* \"#utility.yul\":20270:20274   */\n      dup3\n        /* \"#utility.yul\":20263:20368   */\n      sstore\n        /* \"#utility.yul\":20181:20374   */\n      pop\n        /* \"#utility.yul\":20105:20374   */\n      pop\n      pop\n      pop\n      jump\t// out\n        /* \"#utility.yul\":20380:20453   */\n    tag_257:\n        /* \"#utility.yul\":20425:20428   */\n      0x00\n        /* \"#utility.yul\":20380:20453   */\n      swap1\n      jump\t// out\n        /* \"#utility.yul\":20459:20648   */\n    tag_258:\n        /* \"#utility.yul\":20536:20568   */\n      tag_454\n      tag_257\n      jump\t// in\n    tag_454:\n        /* \"#utility.yul\":20577:20642   */\n      tag_455\n        /* \"#utility.yul\":20635:20641   */\n      dup2\n        /* \"#utility.yul\":20627:20633   */\n      dup5\n        /* \"#utility.yul\":20621:20625   */\n      dup5\n        /* \"#utility.yul\":20577:20642   */\n      tag_256\n      jump\t// in\n    tag_455:\n        /* \"#utility.yul\":20512:20648   */\n      pop\n        /* \"#utility.yul\":20459:20648   */\n      pop\n      pop\n      jump\t// out\n        /* \"#utility.yul\":20654:20840   */\n    tag_259:\n        /* \"#utility.yul\":20714:20834   */\n    tag_457:\n        /* \"#utility.yul\":20731:20734   */\n      dup2\n        /* \"#utility.yul\":20724:20729   */\n      dup2\n        /* \"#utility.yul\":20721:20735   */\n      lt\n        /* \"#utility.yul\":20714:20834   */\n      iszero\n      tag_459\n      jumpi\n        /* \"#utility.yul\":20785:20824   */\n      tag_460\n        /* \"#utility.yul\":20822:20823   */\n      0x00\n        /* \"#utility.yul\":20815:20820   */\n      dup3\n        /* \"#utility.yul\":20785:20824   */\n      tag_258\n      jump\t// in\n    tag_460:\n        /* \"#utility.yul\":20758:20759   */\n      0x01\n        /* \"#utility.yul\":20751:20756   */\n      dup2\n        /* \"#utility.yul\":20747:20760   */\n      add\n        /* \"#utility.yul\":20738:20760   */\n      swap1\n      pop\n        /* \"#utility.yul\":20714:20834   */\n      jump(tag_457)\n    tag_459:\n        /* \"#utility.yul\":20654:20840   */\n      pop\n      pop\n      jump\t// out\n        /* \"#utility.yul\":20846:21389   */\n    tag_260:\n        /* \"#utility.yul\":20947:20949   */\n      0x1f\n        /* \"#utility.yul\":20942:20945   */\n      dup3\n        /* \"#utility.yul\":20939:20950   */\n      gt\n        /* \"#utility.yul\":20936:21382   */\n      iszero\n      tag_462\n      jumpi\n        /* \"#utility.yul\":20981:21019   */\n      tag_463\n        /* \"#utility.yul\":21013:21018   */\n      dup2\n        /* \"#utility.yul\":20981:21019   */\n      tag_249\n      jump\t// in\n    tag_463:\n        /* \"#utility.yul\":21065:21094   */\n      tag_464\n        /* \"#utility.yul\":21083:21093   */\n      dup5\n        /* \"#utility.yul\":21065:21094   */\n      tag_250\n      jump\t// in\n    tag_464:\n        /* \"#utility.yul\":21055:21063   */\n      dup2\n        /* \"#utility.yul\":21051:21095   */\n      add\n        /* \"#utility.yul\":21248:21250   */\n      0x20\n        /* \"#utility.yul\":21236:21246   */\n      dup6\n        /* \"#utility.yul\":21233:21251   */\n      lt\n        /* \"#utility.yul\":21230:21279   */\n      iszero\n      tag_465\n      jumpi\n        /* \"#utility.yul\":21269:21277   */\n      dup2\n        /* \"#utility.yul\":21254:21277   */\n      swap1\n      pop\n        /* \"#utility.yul\":21230:21279   */\n    tag_465:\n        /* \"#utility.yul\":21292:21372   */\n      tag_466\n        /* \"#utility.yul\":21348:21370   */\n      tag_467\n        /* \"#utility.yul\":21366:21369   */\n      dup6\n        /* \"#utility.yul\":21348:21370   */\n      tag_250\n      jump\t// in\n    tag_467:\n        /* \"#utility.yul\":21338:21346   */\n      dup4\n        /* \"#utility.yul\":21334:21371   */\n      add\n        /* \"#utility.yul\":21321:21332   */\n      dup3\n        /* \"#utility.yul\":21292:21372   */\n      tag_259\n      jump\t// in\n    tag_466:\n        /* \"#utility.yul\":20951:21382   */\n      pop\n      pop\n        /* \"#utility.yul\":20936:21382   */\n    tag_462:\n        /* \"#utility.yul\":20846:21389   */\n      pop\n      pop\n      pop\n      jump\t// out\n        /* \"#utility.yul\":21395:21512   */\n    tag_261:\n        /* \"#utility.yul\":21449:21457   */\n      0x00\n        /* \"#utility.yul\":21499:21504   */\n      dup3\n        /* \"#utility.yul\":21493:21497   */\n      dup3\n        /* \"#utility.yul\":21489:21505   */\n      shr\n        /* \"#utility.yul\":21468:21505   */\n      swap1\n      pop\n        /* \"#utility.yul\":21395:21512   */\n      swap3\n      swap2\n      pop\n      pop\n      jump\t// out\n        /* \"#utility.yul\":21518:21687   */\n    tag_262:\n        /* \"#utility.yul\":21562:21568   */\n      0x00\n        /* \"#utility.yul\":21595:21646   */\n      tag_470\n        /* \"#utility.yul\":21643:21644   */\n      0x00\n        /* \"#utility.yul\":21639:21645   */\n      not\n        /* \"#utility.yul\":21631:21636   */\n      dup5\n        /* \"#utility.yul\":21628:21629   */\n      0x08\n        /* \"#utility.yul\":21624:21637   */\n      mul\n        /* \"#utility.yul\":21595:21646   */\n      tag_261\n      jump\t// in\n    tag_470:\n        /* \"#utility.yul\":21591:21647   */\n      not\n        /* \"#utility.yul\":21676:21680   */\n      dup1\n        /* \"#utility.yul\":21670:21674   */\n      dup4\n        /* \"#utility.yul\":21666:21681   */\n      and\n        /* \"#utility.yul\":21656:21681   */\n      swap2\n      pop\n        /* \"#utility.yul\":21569:21687   */\n      pop\n        /* \"#utility.yul\":21518:21687   */\n      swap3\n      swap2\n      pop\n      pop\n      jump\t// out\n        /* \"#utility.yul\":21692:21987   */\n    tag_263:\n        /* \"#utility.yul\":21768:21772   */\n      0x00\n        /* \"#utility.yul\":21914:21943   */\n      tag_472\n        /* \"#utility.yul\":21939:21942   */\n      dup4\n        /* \"#utility.yul\":21933:21937   */\n      dup4\n        /* \"#utility.yul\":21914:21943   */\n      tag_262\n      jump\t// in\n    tag_472:\n        /* \"#utility.yul\":21906:21943   */\n      swap2\n      pop\n        /* \"#utility.yul\":21976:21979   */\n      dup3\n        /* \"#utility.yul\":21973:21974   */\n      0x02\n        /* \"#utility.yul\":21969:21980   */\n      mul\n        /* \"#utility.yul\":21963:21967   */\n      dup3\n        /* \"#utility.yul\":21960:21981   */\n      or\n        /* \"#utility.yul\":21952:21981   */\n      swap1\n      pop\n        /* \"#utility.yul\":21692:21987   */\n      swap3\n      swap2\n      pop\n      pop\n      jump\t// out\n        /* \"#utility.yul\":21992:23387   */\n    tag_172:\n        /* \"#utility.yul\":22109:22146   */\n      tag_474\n        /* \"#utility.yul\":22142:22145   */\n      dup3\n        /* \"#utility.yul\":22109:22146   */\n      tag_210\n      jump\t// in\n    tag_474:\n        /* \"#utility.yul\":22211:22229   */\n      0xffffffffffffffff\n        /* \"#utility.yul\":22203:22209   */\n      dup2\n        /* \"#utility.yul\":22200:22230   */\n      gt\n        /* \"#utility.yul\":22197:22253   */\n      iszero\n      tag_475\n      jumpi\n        /* \"#utility.yul\":22233:22251   */\n      tag_476\n      tag_220\n      jump\t// in\n    tag_476:\n        /* \"#utility.yul\":22197:22253   */\n    tag_475:\n        /* \"#utility.yul\":22277:22315   */\n      tag_477\n        /* \"#utility.yul\":22309:22313   */\n      dup3\n        /* \"#utility.yul\":22303:22314   */\n      sload\n        /* \"#utility.yul\":22277:22315   */\n      tag_122\n      jump\t// in\n    tag_477:\n        /* \"#utility.yul\":22362:22429   */\n      tag_478\n        /* \"#utility.yul\":22422:22428   */\n      dup3\n        /* \"#utility.yul\":22414:22420   */\n      dup3\n        /* \"#utility.yul\":22408:22412   */\n      dup6\n        /* \"#utility.yul\":22362:22429   */\n      tag_260\n      jump\t// in\n    tag_478:\n        /* \"#utility.yul\":22456:22457   */\n      0x00\n        /* \"#utility.yul\":22480:22484   */\n      0x20\n        /* \"#utility.yul\":22467:22484   */\n      swap1\n      pop\n        /* \"#utility.yul\":22512:22514   */\n      0x1f\n        /* \"#utility.yul\":22504:22510   */\n      dup4\n        /* \"#utility.yul\":22501:22515   */\n      gt\n        /* \"#utility.yul\":22529:22530   */\n      0x01\n        /* \"#utility.yul\":22524:23142   */\n      dup2\n      eq\n      tag_480\n      jumpi\n        /* \"#utility.yul\":23186:23187   */\n      0x00\n        /* \"#utility.yul\":23203:23209   */\n      dup5\n        /* \"#utility.yul\":23200:23277   */\n      iszero\n      tag_481\n      jumpi\n        /* \"#utility.yul\":23252:23261   */\n      dup3\n        /* \"#utility.yul\":23247:23250   */\n      dup8\n        /* \"#utility.yul\":23243:23262   */\n      add\n        /* \"#utility.yul\":23237:23263   */\n      mload\n        /* \"#utility.yul\":23228:23263   */\n      swap1\n      pop\n        /* \"#utility.yul\":23200:23277   */\n    tag_481:\n        /* \"#utility.yul\":23303:23370   */\n      tag_482\n        /* \"#utility.yul\":23363:23369   */\n      dup6\n        /* \"#utility.yul\":23356:23361   */\n      dup3\n        /* \"#utility.yul\":23303:23370   */\n      tag_263\n      jump\t// in\n    tag_482:\n        /* \"#utility.yul\":23297:23301   */\n      dup7\n        /* \"#utility.yul\":23290:23371   */\n      sstore\n        /* \"#utility.yul\":23159:23381   */\n      pop\n        /* \"#utility.yul\":22494:23381   */\n      jump(tag_479)\n        /* \"#utility.yul\":22524:23142   */\n    tag_480:\n        /* \"#utility.yul\":22576:22580   */\n      0x1f\n        /* \"#utility.yul\":22572:22581   */\n      not\n        /* \"#utility.yul\":22564:22570   */\n      dup5\n        /* \"#utility.yul\":22560:22582   */\n      and\n        /* \"#utility.yul\":22610:22647   */\n      tag_483\n        /* \"#utility.yul\":22642:22646   */\n      dup7\n        /* \"#utility.yul\":22610:22647   */\n      tag_249\n      jump\t// in\n    tag_483:\n        /* \"#utility.yul\":22669:22670   */\n      0x00\n        /* \"#utility.yul\":22683:22891   */\n    tag_484:\n        /* \"#utility.yul\":22697:22704   */\n      dup3\n        /* \"#utility.yul\":22694:22695   */\n      dup2\n        /* \"#utility.yul\":22691:22705   */\n      lt\n        /* \"#utility.yul\":22683:22891   */\n      iszero\n      tag_486\n      jumpi\n        /* \"#utility.yul\":22776:22785   */\n      dup5\n        /* \"#utility.yul\":22771:22774   */\n      dup10\n        /* \"#utility.yul\":22767:22786   */\n      add\n        /* \"#utility.yul\":22761:22787   */\n      mload\n        /* \"#utility.yul\":22753:22759   */\n      dup3\n        /* \"#utility.yul\":22746:22788   */\n      sstore\n        /* \"#utility.yul\":22827:22828   */\n      0x01\n        /* \"#utility.yul\":22819:22825   */\n      dup3\n        /* \"#utility.yul\":22815:22829   */\n      add\n        /* \"#utility.yul\":22805:22829   */\n      swap2\n      pop\n        /* \"#utility.yul\":22874:22876   */\n      0x20\n        /* \"#utility.yul\":22863:22872   */\n      dup6\n        /* \"#utility.yul\":22859:22877   */\n      add\n        /* \"#utility.yul\":22846:22877   */\n      swap5\n      pop\n        /* \"#utility.yul\":22720:22724   */\n      0x20\n        /* \"#utility.yul\":22717:22718   */\n      dup2\n        /* \"#utility.yul\":22713:22725   */\n      add\n        /* \"#utility.yul\":22708:22725   */\n      swap1\n      pop\n        /* \"#utility.yul\":22683:22891   */\n      jump(tag_484)\n    tag_486:\n        /* \"#utility.yul\":22919:22925   */\n      dup7\n        /* \"#utility.yul\":22910:22917   */\n      dup4\n        /* \"#utility.yul\":22907:22926   */\n      lt\n        /* \"#utility.yul\":22904:23083   */\n      iszero\n      tag_487\n      jumpi\n        /* \"#utility.yul\":22977:22986   */\n      dup5\n        /* \"#utility.yul\":22972:22975   */\n      dup10\n        /* \"#utility.yul\":22968:22987   */\n      add\n        /* \"#utility.yul\":22962:22988   */\n      mload\n        /* \"#utility.yul\":23020:23068   */\n      tag_488\n        /* \"#utility.yul\":23062:23066   */\n      0x1f\n        /* \"#utility.yul\":23054:23060   */\n      dup10\n        /* \"#utility.yul\":23050:23067   */\n      and\n        /* \"#utility.yul\":23039:23048   */\n      dup3\n        /* \"#utility.yul\":23020:23068   */\n      tag_262\n      jump\t// in\n    tag_488:\n        /* \"#utility.yul\":23012:23018   */\n      dup4\n        /* \"#utility.yul\":23005:23069   */\n      sstore\n        /* \"#utility.yul\":22927:23083   */\n      pop\n        /* \"#utility.yul\":22904:23083   */\n    tag_487:\n        /* \"#utility.yul\":23129:23130   */\n      0x01\n        /* \"#utility.yul\":23125:23126   */\n      0x02\n        /* \"#utility.yul\":23117:23123   */\n      dup9\n        /* \"#utility.yul\":23113:23127   */\n      mul\n        /* \"#utility.yul\":23109:23131   */\n      add\n        /* \"#utility.yul\":23103:23107   */\n      dup9\n        /* \"#utility.yul\":23096:23132   */\n      sstore\n        /* \"#utility.yul\":22531:23142   */\n      pop\n      pop\n      pop\n        /* \"#utility.yul\":22494:23381   */\n    tag_479:\n      pop\n        /* \"#utility.yul\":22084:23387   */\n      pop\n      pop\n      pop\n        /* \"#utility.yul\":21992:23387   */\n      pop\n      pop\n      jump\t// out\n        /* \"#utility.yul\":23393:23706   */\n    tag_175:\n        /* \"#utility.yul\":23506:23510   */\n      0x00\n        /* \"#utility.yul\":23544:23546   */\n      0x20\n        /* \"#utility.yul\":23533:23542   */\n      dup3\n        /* \"#utility.yul\":23529:23547   */\n      add\n        /* \"#utility.yul\":23521:23547   */\n      swap1\n      pop\n        /* \"#utility.yul\":23593:23602   */\n      dup2\n        /* \"#utility.yul\":23587:23591   */\n      dup2\n        /* \"#utility.yul\":23583:23603   */\n      sub\n        /* \"#utility.yul\":23579:23580   */\n      0x00\n        /* \"#utility.yul\":23568:23577   */\n      dup4\n        /* \"#utility.yul\":23564:23581   */\n      add\n        /* \"#utility.yul\":23557:23604   */\n      mstore\n        /* \"#utility.yul\":23621:23699   */\n      tag_490\n        /* \"#utility.yul\":23694:23698   */\n      dup2\n        /* \"#utility.yul\":23685:23691   */\n      dup5\n        /* \"#utility.yul\":23621:23699   */\n      tag_214\n      jump\t// in\n    tag_490:\n        /* \"#utility.yul\":23613:23699   */\n      swap1\n      pop\n        /* \"#utility.yul\":23393:23706   */\n      swap3\n      swap2\n      pop\n      pop\n      jump\t// out\n        /* \"#utility.yul\":23712:23893   */\n    tag_264:\n        /* \"#utility.yul\":23852:23885   */\n      0x5265656e7472616e637947756172643a207265656e7472616e742063616c6c00\n        /* \"#utility.yul\":23848:23849   */\n      0x00\n        /* \"#utility.yul\":23840:23846   */\n      dup3\n        /* \"#utility.yul\":23836:23850   */\n      add\n        /* \"#utility.yul\":23829:23886   */\n      mstore\n        /* \"#utility.yul\":23712:23893   */\n      pop\n      jump\t// out\n        /* \"#utility.yul\":23899:24265   */\n    tag_265:\n        /* \"#utility.yul\":24041:24044   */\n      0x00\n        /* \"#utility.yul\":24062:24129   */\n      tag_493\n        /* \"#utility.yul\":24126:24128   */\n      0x1f\n        /* \"#utility.yul\":24121:24124   */\n      dup4\n        /* \"#utility.yul\":24062:24129   */\n      tag_211\n      jump\t// in\n    tag_493:\n        /* \"#utility.yul\":24055:24129   */\n      swap2\n      pop\n        /* \"#utility.yul\":24138:24231   */\n      tag_494\n        /* \"#utility.yul\":24227:24230   */\n      dup3\n        /* \"#utility.yul\":24138:24231   */\n      tag_264\n      jump\t// in\n    tag_494:\n        /* \"#utility.yul\":24256:24258   */\n      0x20\n        /* \"#utility.yul\":24251:24254   */\n      dup3\n        /* \"#utility.yul\":24247:24259   */\n      add\n        /* \"#utility.yul\":24240:24259   */\n      swap1\n      pop\n        /* \"#utility.yul\":23899:24265   */\n      swap2\n      swap1\n      pop\n      jump\t// out\n        /* \"#utility.yul\":24271:24690   */\n    tag_195:\n        /* \"#utility.yul\":24437:24441   */\n      0x00\n        /* \"#utility.yul\":24475:24477   */\n      0x20\n        /* \"#utility.yul\":24464:24473   */\n      dup3\n        /* \"#utility.yul\":24460:24478   */\n      add\n        /* \"#utility.yul\":24452:24478   */\n      swap1\n      pop\n        /* \"#utility.yul\":24524:24533   */\n      dup2\n        /* \"#utility.yul\":24518:24522   */\n      dup2\n        /* \"#utility.yul\":24514:24534   */\n      sub\n        /* \"#utility.yul\":24510:24511   */\n      0x00\n        /* \"#utility.yul\":24499:24508   */\n      dup4\n        /* \"#utility.yul\":24495:24512   */\n      add\n        /* \"#utility.yul\":24488:24535   */\n      mstore\n        /* \"#utility.yul\":24552:24683   */\n      tag_496\n        /* \"#utility.yul\":24678:24682   */\n      dup2\n        /* \"#utility.yul\":24552:24683   */\n      tag_265\n      jump\t// in\n    tag_496:\n        /* \"#utility.yul\":24544:24683   */\n      swap1\n      pop\n        /* \"#utility.yul\":24271:24690   */\n      swap2\n      swap1\n      pop\n      jump\t// out\n\n    auxdata: 0xa2646970667358221220c3faa46ce3bc348e85704823745cf2f11120208d5f0e5748a56208c88c5c92ed64736f6c634300081a0033\n}\n",
				"bytecode": {
					"linkReferences": {},
					"object": "6080604052348015600f57600080fd5b50600160008190555033600160006101000a81548173ffffffffffffffffffffffffffffffffffffffff021916908373ffffffffffffffffffffffffffffffffffffffff1602179055506000600160146101000a81548160ff02191690836002811115607c57607b6085565b5b021790555060b4565b7f4e487b7100000000000000000000000000000000000000000000000000000000600052602160045260246000fd5b612112806100c36000396000f3fe608060405234801561001057600080fd5b50600436106100b45760003560e01c80638e7ea5b2116100715780638e7ea5b214610169578063a3ec138d14610189578063b0d30d2f146101bb578063b13c744b146101d7578063c3403ddf14610207578063f851a44014610211576100b4565b8063055ad42e146100b95780630d15fd77146100d75780631ec6b60a146100f557806338db6dd3146100ff5780636dd7d8ea1461011b5780638ab66a9014610137575b600080fd5b6100c161022f565b6040516100ce9190611478565b60405180910390f35b6100df610242565b6040516100ec91906114ac565b60405180910390f35b6100fd610248565b005b61011960048036038101906101149190611539565b6103fc565b005b61013560048036038101906101309190611539565b6106db565b005b610151600480360381019061014c9190611539565b610aba565b60405161016093929190611611565b60405180910390f35b610171610b79565b6040516101809392919061165e565b60405180910390f35b6101a3600480360381019061019e9190611539565b610e84565b6040516101b29392919061169c565b60405180910390f35b6101d560048036038101906101d09190611808565b610ee8565b005b6101f160048036038101906101ec9190611890565b6111d6565b6040516101fe91906118bd565b60405180910390f35b61020f611215565b005b610219611382565b60405161022691906118bd565b60405180910390f35b600160149054906101000a900460ff1681565b60055481565b600160009054906101000a900473ffffffffffffffffffffffffffffffffffffffff1673ffffffffffffffffffffffffffffffffffffffff163373ffffffffffffffffffffffffffffffffffffffff16146102d8576040517f08c379a00000000000000000000000000000000000000000000000000000000081526004016102cf9061194a565b60405180910390fd5b60008060028111156102ed576102ec611401565b5b600160149054906101000a900460ff16600281111561030f5761030e611401565b5b1461034f576040517f08c379a0000000000000000000000000000000000000000000000000000000008152600401610346906119b6565b60405180910390fd5b600060048054905011610397576040517f08c379a000000000000000000000000000000000000000000000000000000000815260040161038e90611a22565b60405180910390fd5b60018060146101000a81548160ff021916908360028111156103bc576103bb611401565b5b02179055507fa6dcc92f45df25789d5639b7a0c97ba1edf3bb1c0b5dd3376fd96a0db87c464260016040516103f19190611478565b60405180910390a150565b600160009054906101000a900473ffffffffffffffffffffffffffffffffffffffff1673ffffffffffffffffffffffffffffffffffffffff163373ffffffffffffffffffffffffffffffffffffffff161461048c576040517f08c379a00000000000000000000000000000000000000000000000000000000081526004016104839061194a565b60405180910390fd5b60008060028111156104a1576104a0611401565b5b600160149054906101000a900460ff1660028111156104c3576104c2611401565b5b14610503576040517f08c379a00000000000000000000000000000000000000000000000000000000081526004016104fa906119b6565b60405180910390fd5b600360008373ffffffffffffffffffffffffffffffffffffffff1673ffffffffffffffffffffffffffffffffffffffff16815260200190815260200160002060000160009054906101000a900460ff1615610593576040517f08c379a000000000000000000000000000000000000000000000000000000000815260040161058a90611a8e565b60405180910390fd5b6040518060600160405280600115158152602001600015158152602001600073ffffffffffffffffffffffffffffffffffffffff16815250600360008473ffffffffffffffffffffffffffffffffffffffff1673ffffffffffffffffffffffffffffffffffffffff16815260200190815260200160002060008201518160000160006101000a81548160ff02191690831515021790555060208201518160000160016101000a81548160ff02191690831515021790555060408201518160000160026101000a81548173ffffffffffffffffffffffffffffffffffffffff021916908373ffffffffffffffffffffffffffffffffffffffff1602179055509050508173ffffffffffffffffffffffffffffffffffffffff167fb6be2187d059cc2a55fe29e0e503b566e1e0f8c8780096e185429350acffd3dd60405160405180910390a25050565b6106e36113a8565b60018060028111156106f8576106f7611401565b5b600160149054906101000a900460ff16600281111561071a57610719611401565b5b1461075a576040517f08c379a0000000000000000000000000000000000000000000000000000000008152600401610751906119b6565b60405180910390fd5b600360003373ffffffffffffffffffffffffffffffffffffffff1673ffffffffffffffffffffffffffffffffffffffff16815260200190815260200160002060000160009054906101000a900460ff166107e9576040517f08c379a00000000000000000000000000000000000000000000000000000000081526004016107e090611afa565b60405180910390fd5b600360003373ffffffffffffffffffffffffffffffffffffffff1673ffffffffffffffffffffffffffffffffffffffff16815260200190815260200160002060000160019054906101000a900460ff1615610879576040517f08c379a000000000000000000000000000000000000000000000000000000000815260040161087090611b66565b60405180910390fd5b600260008373ffffffffffffffffffffffffffffffffffffffff1673ffffffffffffffffffffffffffffffffffffffff16815260200190815260200160002060020160009054906101000a900460ff16610908576040517f08c379a00000000000000000000000000000000000000000000000000000000081526004016108ff90611bd2565b60405180910390fd5b6001600360003373ffffffffffffffffffffffffffffffffffffffff1673ffffffffffffffffffffffffffffffffffffffff16815260200190815260200160002060000160016101000a81548160ff02191690831515021790555081600360003373ffffffffffffffffffffffffffffffffffffffff1673ffffffffffffffffffffffffffffffffffffffff16815260200190815260200160002060000160026101000a81548173ffffffffffffffffffffffffffffffffffffffff021916908373ffffffffffffffffffffffffffffffffffffffff160217905550600260008373ffffffffffffffffffffffffffffffffffffffff1673ffffffffffffffffffffffffffffffffffffffff1681526020019081526020016000206001016000815480929190610a3790611c21565b919050555060056000815480929190610a4f90611c21565b91905055508173ffffffffffffffffffffffffffffffffffffffff163373ffffffffffffffffffffffffffffffffffffffff167f113ed09b18bb8fe2635af16f21d67464502d920ff1015abfe08dbe9a2971a7e260405160405180910390a350610ab76113f7565b50565b6002602052806000526040600020600091509050806000018054610add90611c98565b80601f0160208091040260200160405190810160405280929190818152602001828054610b0990611c98565b8015610b565780601f10610b2b57610100808354040283529160200191610b56565b820191906000526020600020905b815481529060010190602001808311610b3957829003601f168201915b5050505050908060010154908060020160009054906101000a900460ff16905083565b6000606060006002806002811115610b9457610b93611401565b5b600160149054906101000a900460ff166002811115610bb657610bb5611401565b5b14610bf6576040517f08c379a0000000000000000000000000000000000000000000000000000000008152600401610bed906119b6565b60405180910390fd5b600060055411610c3b576040517f08c379a0000000000000000000000000000000000000000000000000000000008152600401610c3290611d15565b60405180910390fd5b6000805b600480549050811015610da657816002600060048481548110610c6557610c64611d35565b5b9060005260206000200160009054906101000a900473ffffffffffffffffffffffffffffffffffffffff1673ffffffffffffffffffffffffffffffffffffffff1673ffffffffffffffffffffffffffffffffffffffff168152602001908152602001600020600101541115610d99576002600060048381548110610cec57610ceb611d35565b5b9060005260206000200160009054906101000a900473ffffffffffffffffffffffffffffffffffffffff1673ffffffffffffffffffffffffffffffffffffffff1673ffffffffffffffffffffffffffffffffffffffff16815260200190815260200160002060010154915060048181548110610d6b57610d6a611d35565b5b9060005260206000200160009054906101000a900473ffffffffffffffffffffffffffffffffffffffff1695505b8080600101915050610c3f565b5084600260008773ffffffffffffffffffffffffffffffffffffffff1673ffffffffffffffffffffffffffffffffffffffff16815260200190815260200160002060000182818054610df790611c98565b80601f0160208091040260200160405190810160405280929190818152602001828054610e2390611c98565b8015610e705780601f10610e4557610100808354040283529160200191610e70565b820191906000526020600020905b815481529060010190602001808311610e5357829003601f168201915b505050505091509450945094505050909192565b60036020528060005260406000206000915090508060000160009054906101000a900460ff16908060000160019054906101000a900460ff16908060000160029054906101000a900473ffffffffffffffffffffffffffffffffffffffff16905083565b600160009054906101000a900473ffffffffffffffffffffffffffffffffffffffff1673ffffffffffffffffffffffffffffffffffffffff163373ffffffffffffffffffffffffffffffffffffffff1614610f78576040517f08c379a0000000000000000000000000000000000000000000000000000000008152600401610f6f9061194a565b60405180910390fd5b6000806002811115610f8d57610f8c611401565b5b600160149054906101000a900460ff166002811115610faf57610fae611401565b5b14610fef576040517f08c379a0000000000000000000000000000000000000000000000000000000008152600401610fe6906119b6565b60405180910390fd5b600260008473ffffffffffffffffffffffffffffffffffffffff1673ffffffffffffffffffffffffffffffffffffffff16815260200190815260200160002060020160009054906101000a900460ff161561107f576040517f08c379a000000000000000000000000000000000000000000000000000000000815260040161107690611db0565b60405180910390fd5b60405180606001604052808381526020016000815260200160011515815250600260008573ffffffffffffffffffffffffffffffffffffffff1673ffffffffffffffffffffffffffffffffffffffff16815260200190815260200160002060008201518160000190816110f29190611f7c565b506020820151816001015560408201518160020160006101000a81548160ff0219169083151502179055509050506004839080600181540180825580915050600190039060005260206000200160009091909190916101000a81548173ffffffffffffffffffffffffffffffffffffffff021916908373ffffffffffffffffffffffffffffffffffffffff1602179055508273ffffffffffffffffffffffffffffffffffffffff167ff7d573e0e0f72259d79708ef22494ecdc00dd3605de228ff1a79063d7547b7c2836040516111c9919061204e565b60405180910390a2505050565b600481815481106111e657600080fd5b906000526020600020016000915054906101000a900473ffffffffffffffffffffffffffffffffffffffff1681565b600160009054906101000a900473ffffffffffffffffffffffffffffffffffffffff1673ffffffffffffffffffffffffffffffffffffffff163373ffffffffffffffffffffffffffffffffffffffff16146112a5576040517f08c379a000000000000000000000000000000000000000000000000000000000815260040161129c9061194a565b60405180910390fd5b60018060028111156112ba576112b9611401565b5b600160149054906101000a900460ff1660028111156112dc576112db611401565b5b1461131c576040517f08c379a0000000000000000000000000000000000000000000000000000000008152600401611313906119b6565b60405180910390fd5b6002600160146101000a81548160ff0219169083600281111561134257611341611401565b5b02179055507fa6dcc92f45df25789d5639b7a0c97ba1edf3bb1c0b5dd3376fd96a0db87c464260026040516113779190611478565b60405180910390a150565b600160009054906101000a900473ffffffffffffffffffffffffffffffffffffffff1681565b6002600054036113ed576040517f08c379a00000000000000000000000000000000000000000000000000000000081526004016113e4906120bc565b60405180910390fd5b6002600081905550565b6001600081905550565b7f4e487b7100000000000000000000000000000000000000000000000000000000600052602160045260246000fd5b6003811061144157611440611401565b5b50565b600081905061145282611430565b919050565b600061146282611444565b9050919050565b61147281611457565b82525050565b600060208201905061148d6000830184611469565b92915050565b6000819050919050565b6114a681611493565b82525050565b60006020820190506114c1600083018461149d565b92915050565b6000604051905090565b600080fd5b600080fd5b600073ffffffffffffffffffffffffffffffffffffffff82169050919050565b6000611506826114db565b9050919050565b611516816114fb565b811461152157600080fd5b50565b6000813590506115338161150d565b92915050565b60006020828403121561154f5761154e6114d1565b5b600061155d84828501611524565b91505092915050565b600081519050919050565b600082825260208201905092915050565b60005b838110156115a0578082015181840152602081019050611585565b60008484015250505050565b6000601f19601f8301169050919050565b60006115c882611566565b6115d28185611571565b93506115e2818560208601611582565b6115eb816115ac565b840191505092915050565b60008115159050919050565b61160b816115f6565b82525050565b6000606082019050818103600083015261162b81866115bd565b905061163a602083018561149d565b6116476040830184611602565b949350505050565b611658816114fb565b82525050565b6000606082019050611673600083018661164f565b818103602083015261168581856115bd565b9050611694604083018461149d565b949350505050565b60006060820190506116b16000830186611602565b6116be6020830185611602565b6116cb604083018461164f565b949350505050565b600080fd5b600080fd5b7f4e487b7100000000000000000000000000000000000000000000000000000000600052604160045260246000fd5b611715826115ac565b810181811067ffffffffffffffff82111715611734576117336116dd565b5b80604052505050565b60006117476114c7565b9050611753828261170c565b919050565b600067ffffffffffffffff821115611773576117726116dd565b5b61177c826115ac565b9050602081019050919050565b82818337600083830152505050565b60006117ab6117a684611758565b61173d565b9050828152602081018484840111156117c7576117c66116d8565b5b6117d2848285611789565b509392505050565b600082601f8301126117ef576117ee6116d3565b5b81356117ff848260208601611798565b91505092915050565b6000806040838503121561181f5761181e6114d1565b5b600061182d85828601611524565b925050602083013567ffffffffffffffff81111561184e5761184d6114d6565b5b61185a858286016117da565b9150509250929050565b61186d81611493565b811461187857600080fd5b50565b60008135905061188a81611864565b92915050565b6000602082840312156118a6576118a56114d1565b5b60006118b48482850161187b565b91505092915050565b60006020820190506118d2600083018461164f565b92915050565b7f4f6e6c792061646d696e2063616e20706572666f726d2074686973206163746960008201527f6f6e000000000000000000000000000000000000000000000000000000000000602082015250565b6000611934602283611571565b915061193f826118d8565b604082019050919050565b6000602082019050818103600083015261196381611927565b9050919050565b7f416374696f6e206e6f7420616c6c6f77656420696e2074686973207068617365600082015250565b60006119a0602083611571565b91506119ab8261196a565b602082019050919050565b600060208201905081810360008301526119cf81611993565b9050919050565b7f4174206c65617374206f6e652063616e64696461746520726571756972656400600082015250565b6000611a0c601f83611571565b9150611a17826119d6565b602082019050919050565b60006020820190508181036000830152611a3b816119ff565b9050919050565b7f566f74657220616c726561647920726567697374657265640000000000000000600082015250565b6000611a78601883611571565b9150611a8382611a42565b602082019050919050565b60006020820190508181036000830152611aa781611a6b565b9050919050565b7f596f7520617265206e6f74207265676973746572656420746f20766f74650000600082015250565b6000611ae4601e83611571565b9150611aef82611aae565b602082019050919050565b60006020820190508181036000830152611b1381611ad7565b9050919050565b7f596f75206861766520616c726561647920766f74656400000000000000000000600082015250565b6000611b50601683611571565b9150611b5b82611b1a565b602082019050919050565b60006020820190508181036000830152611b7f81611b43565b9050919050565b7f496e76616c69642063616e646964617465000000000000000000000000000000600082015250565b6000611bbc601183611571565b9150611bc782611b86565b602082019050919050565b60006020820190508181036000830152611beb81611baf565b9050919050565b7f4e487b7100000000000000000000000000000000000000000000000000000000600052601160045260246000fd5b6000611c2c82611493565b91507fffffffffffffffffffffffffffffffffffffffffffffffffffffffffffffffff8203611c5e57611c5d611bf2565b5b600182019050919050565b7f4e487b7100000000000000000000000000000000000000000000000000000000600052602260045260246000fd5b60006002820490506001821680611cb057607f821691505b602082108103611cc357611cc2611c69565b5b50919050565b7f4e6f20766f746573206361737400000000000000000000000000000000000000600082015250565b6000611cff600d83611571565b9150611d0a82611cc9565b602082019050919050565b60006020820190508181036000830152611d2e81611cf2565b9050919050565b7f4e487b7100000000000000000000000000000000000000000000000000000000600052603260045260246000fd5b7f43616e64696461746520616c7265616479207265676973746572656400000000600082015250565b6000611d9a601c83611571565b9150611da582611d64565b602082019050919050565b60006020820190508181036000830152611dc981611d8d565b9050919050565b60008190508160005260206000209050919050565b60006020601f8301049050919050565b600082821b905092915050565b600060088302611e327fffffffffffffffffffffffffffffffffffffffffffffffffffffffffffffffff82611df5565b611e3c8683611df5565b95508019841693508086168417925050509392505050565b6000819050919050565b6000611e79611e74611e6f84611493565b611e54565b611493565b9050919050565b6000819050919050565b611e9383611e5e565b611ea7611e9f82611e80565b848454611e02565b825550505050565b600090565b611ebc611eaf565b611ec7818484611e8a565b505050565b5b81811015611eeb57611ee0600082611eb4565b600181019050611ecd565b5050565b601f821115611f3057611f0181611dd0565b611f0a84611de5565b81016020851015611f19578190505b611f2d611f2585611de5565b830182611ecc565b50505b505050565b600082821c905092915050565b6000611f5360001984600802611f35565b1980831691505092915050565b6000611f6c8383611f42565b9150826002028217905092915050565b611f8582611566565b67ffffffffffffffff811115611f9e57611f9d6116dd565b5b611fa88254611c98565b611fb3828285611eef565b600060209050601f831160018114611fe65760008415611fd4578287015190505b611fde8582611f60565b865550612046565b601f198416611ff486611dd0565b60005b8281101561201c57848901518255600182019150602085019450602081019050611ff7565b868310156120395784890151612035601f891682611f42565b8355505b6001600288020188555050505b505050505050565b6000602082019050818103600083015261206881846115bd565b905092915050565b7f5265656e7472616e637947756172643a207265656e7472616e742063616c6c00600082015250565b60006120a6601f83611571565b91506120b182612070565b602082019050919050565b600060208201905081810360008301526120d581612099565b905091905056fea2646970667358221220c3faa46ce3bc348e85704823745cf2f11120208d5f0e5748a56208c88c5c92ed64736f6c634300081a0033",
					"opcodes": "PUSH1 0x80 PUSH1 0x40 MSTORE CALLVALUE DUP1 ISZERO PUSH1 0xF JUMPI PUSH1 0x0 DUP1 REVERT JUMPDEST POP PUSH1 0x1 PUSH1 0x0 DUP2 SWAP1 SSTORE POP CALLER PUSH1 0x1 PUSH1 0x0 PUSH2 0x100 EXP DUP2 SLOAD DUP2 PUSH20 0xFFFFFFFFFFFFFFFFFFFFFFFFFFFFFFFFFFFFFFFF MUL NOT AND SWAP1 DUP4 PUSH20 0xFFFFFFFFFFFFFFFFFFFFFFFFFFFFFFFFFFFFFFFF AND MUL OR SWAP1 SSTORE POP PUSH1 0x0 PUSH1 0x1 PUSH1 0x14 PUSH2 0x100 EXP DUP2 SLOAD DUP2 PUSH1 0xFF MUL NOT AND SWAP1 DUP4 PUSH1 0x2 DUP2 GT ISZERO PUSH1 0x7C JUMPI PUSH1 0x7B PUSH1 0x85 JUMP JUMPDEST JUMPDEST MUL OR SWAP1 SSTORE POP PUSH1 0xB4 JUMP JUMPDEST PUSH32 0x4E487B7100000000000000000000000000000000000000000000000000000000 PUSH1 0x0 MSTORE PUSH1 0x21 PUSH1 0x4 MSTORE PUSH1 0x24 PUSH1 0x0 REVERT JUMPDEST PUSH2 0x2112 DUP1 PUSH2 0xC3 PUSH1 0x0 CODECOPY PUSH1 0x0 RETURN INVALID PUSH1 0x80 PUSH1 0x40 MSTORE CALLVALUE DUP1 ISZERO PUSH2 0x10 JUMPI PUSH1 0x0 DUP1 REVERT JUMPDEST POP PUSH1 0x4 CALLDATASIZE LT PUSH2 0xB4 JUMPI PUSH1 0x0 CALLDATALOAD PUSH1 0xE0 SHR DUP1 PUSH4 0x8E7EA5B2 GT PUSH2 0x71 JUMPI DUP1 PUSH4 0x8E7EA5B2 EQ PUSH2 0x169 JUMPI DUP1 PUSH4 0xA3EC138D EQ PUSH2 0x189 JUMPI DUP1 PUSH4 0xB0D30D2F EQ PUSH2 0x1BB JUMPI DUP1 PUSH4 0xB13C744B EQ PUSH2 0x1D7 JUMPI DUP1 PUSH4 0xC3403DDF EQ PUSH2 0x207 JUMPI DUP1 PUSH4 0xF851A440 EQ PUSH2 0x211 JUMPI PUSH2 0xB4 JUMP JUMPDEST DUP1 PUSH4 0x55AD42E EQ PUSH2 0xB9 JUMPI DUP1 PUSH4 0xD15FD77 EQ PUSH2 0xD7 JUMPI DUP1 PUSH4 0x1EC6B60A EQ PUSH2 0xF5 JUMPI DUP1 PUSH4 0x38DB6DD3 EQ PUSH2 0xFF JUMPI DUP1 PUSH4 0x6DD7D8EA EQ PUSH2 0x11B JUMPI DUP1 PUSH4 0x8AB66A90 EQ PUSH2 0x137 JUMPI JUMPDEST PUSH1 0x0 DUP1 REVERT JUMPDEST PUSH2 0xC1 PUSH2 0x22F JUMP JUMPDEST PUSH1 0x40 MLOAD PUSH2 0xCE SWAP2 SWAP1 PUSH2 0x1478 JUMP JUMPDEST PUSH1 0x40 MLOAD DUP1 SWAP2 SUB SWAP1 RETURN JUMPDEST PUSH2 0xDF PUSH2 0x242 JUMP JUMPDEST PUSH1 0x40 MLOAD PUSH2 0xEC SWAP2 SWAP1 PUSH2 0x14AC JUMP JUMPDEST PUSH1 0x40 MLOAD DUP1 SWAP2 SUB SWAP1 RETURN JUMPDEST PUSH2 0xFD PUSH2 0x248 JUMP JUMPDEST STOP JUMPDEST PUSH2 0x119 PUSH1 0x4 DUP1 CALLDATASIZE SUB DUP2 ADD SWAP1 PUSH2 0x114 SWAP2 SWAP1 PUSH2 0x1539 JUMP JUMPDEST PUSH2 0x3FC JUMP JUMPDEST STOP JUMPDEST PUSH2 0x135 PUSH1 0x4 DUP1 CALLDATASIZE SUB DUP2 ADD SWAP1 PUSH2 0x130 SWAP2 SWAP1 PUSH2 0x1539 JUMP JUMPDEST PUSH2 0x6DB JUMP JUMPDEST STOP JUMPDEST PUSH2 0x151 PUSH1 0x4 DUP1 CALLDATASIZE SUB DUP2 ADD SWAP1 PUSH2 0x14C SWAP2 SWAP1 PUSH2 0x1539 JUMP JUMPDEST PUSH2 0xABA JUMP JUMPDEST PUSH1 0x40 MLOAD PUSH2 0x160 SWAP4 SWAP3 SWAP2 SWAP1 PUSH2 0x1611 JUMP JUMPDEST PUSH1 0x40 MLOAD DUP1 SWAP2 SUB SWAP1 RETURN JUMPDEST PUSH2 0x171 PUSH2 0xB79 JUMP JUMPDEST PUSH1 0x40 MLOAD PUSH2 0x180 SWAP4 SWAP3 SWAP2 SWAP1 PUSH2 0x165E JUMP JUMPDEST PUSH1 0x40 MLOAD DUP1 SWAP2 SUB SWAP1 RETURN JUMPDEST PUSH2 0x1A3 PUSH1 0x4 DUP1 CALLDATASIZE SUB DUP2 ADD SWAP1 PUSH2 0x19E SWAP2 SWAP1 PUSH2 0x1539 JUMP JUMPDEST PUSH2 0xE84 JUMP JUMPDEST PUSH1 0x40 MLOAD PUSH2 0x1B2 SWAP4 SWAP3 SWAP2 SWAP1 PUSH2 0x169C JUMP JUMPDEST PUSH1 0x40 MLOAD DUP1 SWAP2 SUB SWAP1 RETURN JUMPDEST PUSH2 0x1D5 PUSH1 0x4 DUP1 CALLDATASIZE SUB DUP2 ADD SWAP1 PUSH2 0x1D0 SWAP2 SWAP1 PUSH2 0x1808 JUMP JUMPDEST PUSH2 0xEE8 JUMP JUMPDEST STOP JUMPDEST PUSH2 0x1F1 PUSH1 0x4 DUP1 CALLDATASIZE SUB DUP2 ADD SWAP1 PUSH2 0x1EC SWAP2 SWAP1 PUSH2 0x1890 JUMP JUMPDEST PUSH2 0x11D6 JUMP JUMPDEST PUSH1 0x40 MLOAD PUSH2 0x1FE SWAP2 SWAP1 PUSH2 0x18BD JUMP JUMPDEST PUSH1 0x40 MLOAD DUP1 SWAP2 SUB SWAP1 RETURN JUMPDEST PUSH2 0x20F PUSH2 0x1215 JUMP JUMPDEST STOP JUMPDEST PUSH2 0x219 PUSH2 0x1382 JUMP JUMPDEST PUSH1 0x40 MLOAD PUSH2 0x226 SWAP2 SWAP1 PUSH2 0x18BD JUMP JUMPDEST PUSH1 0x40 MLOAD DUP1 SWAP2 SUB SWAP1 RETURN JUMPDEST PUSH1 0x1 PUSH1 0x14 SWAP1 SLOAD SWAP1 PUSH2 0x100 EXP SWAP1 DIV PUSH1 0xFF AND DUP2 JUMP JUMPDEST PUSH1 0x5 SLOAD DUP2 JUMP JUMPDEST PUSH1 0x1 PUSH1 0x0 SWAP1 SLOAD SWAP1 PUSH2 0x100 EXP SWAP1 DIV PUSH20 0xFFFFFFFFFFFFFFFFFFFFFFFFFFFFFFFFFFFFFFFF AND PUSH20 0xFFFFFFFFFFFFFFFFFFFFFFFFFFFFFFFFFFFFFFFF AND CALLER PUSH20 0xFFFFFFFFFFFFFFFFFFFFFFFFFFFFFFFFFFFFFFFF AND EQ PUSH2 0x2D8 JUMPI PUSH1 0x40 MLOAD PUSH32 0x8C379A000000000000000000000000000000000000000000000000000000000 DUP2 MSTORE PUSH1 0x4 ADD PUSH2 0x2CF SWAP1 PUSH2 0x194A JUMP JUMPDEST PUSH1 0x40 MLOAD DUP1 SWAP2 SUB SWAP1 REVERT JUMPDEST PUSH1 0x0 DUP1 PUSH1 0x2 DUP2 GT ISZERO PUSH2 0x2ED JUMPI PUSH2 0x2EC PUSH2 0x1401 JUMP JUMPDEST JUMPDEST PUSH1 0x1 PUSH1 0x14 SWAP1 SLOAD SWAP1 PUSH2 0x100 EXP SWAP1 DIV PUSH1 0xFF AND PUSH1 0x2 DUP2 GT ISZERO PUSH2 0x30F JUMPI PUSH2 0x30E PUSH2 0x1401 JUMP JUMPDEST JUMPDEST EQ PUSH2 0x34F JUMPI PUSH1 0x40 MLOAD PUSH32 0x8C379A000000000000000000000000000000000000000000000000000000000 DUP2 MSTORE PUSH1 0x4 ADD PUSH2 0x346 SWAP1 PUSH2 0x19B6 JUMP JUMPDEST PUSH1 0x40 MLOAD DUP1 SWAP2 SUB SWAP1 REVERT JUMPDEST PUSH1 0x0 PUSH1 0x4 DUP1 SLOAD SWAP1 POP GT PUSH2 0x397 JUMPI PUSH1 0x40 MLOAD PUSH32 0x8C379A000000000000000000000000000000000000000000000000000000000 DUP2 MSTORE PUSH1 0x4 ADD PUSH2 0x38E SWAP1 PUSH2 0x1A22 JUMP JUMPDEST PUSH1 0x40 MLOAD DUP1 SWAP2 SUB SWAP1 REVERT JUMPDEST PUSH1 0x1 DUP1 PUSH1 0x14 PUSH2 0x100 EXP DUP2 SLOAD DUP2 PUSH1 0xFF MUL NOT AND SWAP1 DUP4 PUSH1 0x2 DUP2 GT ISZERO PUSH2 0x3BC JUMPI PUSH2 0x3BB PUSH2 0x1401 JUMP JUMPDEST JUMPDEST MUL OR SWAP1 SSTORE POP PUSH32 0xA6DCC92F45DF25789D5639B7A0C97BA1EDF3BB1C0B5DD3376FD96A0DB87C4642 PUSH1 0x1 PUSH1 0x40 MLOAD PUSH2 0x3F1 SWAP2 SWAP1 PUSH2 0x1478 JUMP JUMPDEST PUSH1 0x40 MLOAD DUP1 SWAP2 SUB SWAP1 LOG1 POP JUMP JUMPDEST PUSH1 0x1 PUSH1 0x0 SWAP1 SLOAD SWAP1 PUSH2 0x100 EXP SWAP1 DIV PUSH20 0xFFFFFFFFFFFFFFFFFFFFFFFFFFFFFFFFFFFFFFFF AND PUSH20 0xFFFFFFFFFFFFFFFFFFFFFFFFFFFFFFFFFFFFFFFF AND CALLER PUSH20 0xFFFFFFFFFFFFFFFFFFFFFFFFFFFFFFFFFFFFFFFF AND EQ PUSH2 0x48C JUMPI PUSH1 0x40 MLOAD PUSH32 0x8C379A000000000000000000000000000000000000000000000000000000000 DUP2 MSTORE PUSH1 0x4 ADD PUSH2 0x483 SWAP1 PUSH2 0x194A JUMP JUMPDEST PUSH1 0x40 MLOAD DUP1 SWAP2 SUB SWAP1 REVERT JUMPDEST PUSH1 0x0 DUP1 PUSH1 0x2 DUP2 GT ISZERO PUSH2 0x4A1 JUMPI PUSH2 0x4A0 PUSH2 0x1401 JUMP JUMPDEST JUMPDEST PUSH1 0x1 PUSH1 0x14 SWAP1 SLOAD SWAP1 PUSH2 0x100 EXP SWAP1 DIV PUSH1 0xFF AND PUSH1 0x2 DUP2 GT ISZERO PUSH2 0x4C3 JUMPI PUSH2 0x4C2 PUSH2 0x1401 JUMP JUMPDEST JUMPDEST EQ PUSH2 0x503 JUMPI PUSH1 0x40 MLOAD PUSH32 0x8C379A000000000000000000000000000000000000000000000000000000000 DUP2 MSTORE PUSH1 0x4 ADD PUSH2 0x4FA SWAP1 PUSH2 0x19B6 JUMP JUMPDEST PUSH1 0x40 MLOAD DUP1 SWAP2 SUB SWAP1 REVERT JUMPDEST PUSH1 0x3 PUSH1 0x0 DUP4 PUSH20 0xFFFFFFFFFFFFFFFFFFFFFFFFFFFFFFFFFFFFFFFF AND PUSH20 0xFFFFFFFFFFFFFFFFFFFFFFFFFFFFFFFFFFFFFFFF AND DUP2 MSTORE PUSH1 0x20 ADD SWAP1 DUP2 MSTORE PUSH1 0x20 ADD PUSH1 0x0 KECCAK256 PUSH1 0x0 ADD PUSH1 0x0 SWAP1 SLOAD SWAP1 PUSH2 0x100 EXP SWAP1 DIV PUSH1 0xFF AND ISZERO PUSH2 0x593 JUMPI PUSH1 0x40 MLOAD PUSH32 0x8C379A000000000000000000000000000000000000000000000000000000000 DUP2 MSTORE PUSH1 0x4 ADD PUSH2 0x58A SWAP1 PUSH2 0x1A8E JUMP JUMPDEST PUSH1 0x40 MLOAD DUP1 SWAP2 SUB SWAP1 REVERT JUMPDEST PUSH1 0x40 MLOAD DUP1 PUSH1 0x60 ADD PUSH1 0x40 MSTORE DUP1 PUSH1 0x1 ISZERO ISZERO DUP2 MSTORE PUSH1 0x20 ADD PUSH1 0x0 ISZERO ISZERO DUP2 MSTORE PUSH1 0x20 ADD PUSH1 0x0 PUSH20 0xFFFFFFFFFFFFFFFFFFFFFFFFFFFFFFFFFFFFFFFF AND DUP2 MSTORE POP PUSH1 0x3 PUSH1 0x0 DUP5 PUSH20 0xFFFFFFFFFFFFFFFFFFFFFFFFFFFFFFFFFFFFFFFF AND PUSH20 0xFFFFFFFFFFFFFFFFFFFFFFFFFFFFFFFFFFFFFFFF AND DUP2 MSTORE PUSH1 0x20 ADD SWAP1 DUP2 MSTORE PUSH1 0x20 ADD PUSH1 0x0 KECCAK256 PUSH1 0x0 DUP3 ADD MLOAD DUP2 PUSH1 0x0 ADD PUSH1 0x0 PUSH2 0x100 EXP DUP2 SLOAD DUP2 PUSH1 0xFF MUL NOT AND SWAP1 DUP4 ISZERO ISZERO MUL OR SWAP1 SSTORE POP PUSH1 0x20 DUP3 ADD MLOAD DUP2 PUSH1 0x0 ADD PUSH1 0x1 PUSH2 0x100 EXP DUP2 SLOAD DUP2 PUSH1 0xFF MUL NOT AND SWAP1 DUP4 ISZERO ISZERO MUL OR SWAP1 SSTORE POP PUSH1 0x40 DUP3 ADD MLOAD DUP2 PUSH1 0x0 ADD PUSH1 0x2 PUSH2 0x100 EXP DUP2 SLOAD DUP2 PUSH20 0xFFFFFFFFFFFFFFFFFFFFFFFFFFFFFFFFFFFFFFFF MUL NOT AND SWAP1 DUP4 PUSH20 0xFFFFFFFFFFFFFFFFFFFFFFFFFFFFFFFFFFFFFFFF AND MUL OR SWAP1 SSTORE POP SWAP1 POP POP DUP2 PUSH20 0xFFFFFFFFFFFFFFFFFFFFFFFFFFFFFFFFFFFFFFFF AND PUSH32 0xB6BE2187D059CC2A55FE29E0E503B566E1E0F8C8780096E185429350ACFFD3DD PUSH1 0x40 MLOAD PUSH1 0x40 MLOAD DUP1 SWAP2 SUB SWAP1 LOG2 POP POP JUMP JUMPDEST PUSH2 0x6E3 PUSH2 0x13A8 JUMP JUMPDEST PUSH1 0x1 DUP1 PUSH1 0x2 DUP2 GT ISZERO PUSH2 0x6F8 JUMPI PUSH2 0x6F7 PUSH2 0x1401 JUMP JUMPDEST JUMPDEST PUSH1 0x1 PUSH1 0x14 SWAP1 SLOAD SWAP1 PUSH2 0x100 EXP SWAP1 DIV PUSH1 0xFF AND PUSH1 0x2 DUP2 GT ISZERO PUSH2 0x71A JUMPI PUSH2 0x719 PUSH2 0x1401 JUMP JUMPDEST JUMPDEST EQ PUSH2 0x75A JUMPI PUSH1 0x40 MLOAD PUSH32 0x8C379A000000000000000000000000000000000000000000000000000000000 DUP2 MSTORE PUSH1 0x4 ADD PUSH2 0x751 SWAP1 PUSH2 0x19B6 JUMP JUMPDEST PUSH1 0x40 MLOAD DUP1 SWAP2 SUB SWAP1 REVERT JUMPDEST PUSH1 0x3 PUSH1 0x0 CALLER PUSH20 0xFFFFFFFFFFFFFFFFFFFFFFFFFFFFFFFFFFFFFFFF AND PUSH20 0xFFFFFFFFFFFFFFFFFFFFFFFFFFFFFFFFFFFFFFFF AND DUP2 MSTORE PUSH1 0x20 ADD SWAP1 DUP2 MSTORE PUSH1 0x20 ADD PUSH1 0x0 KECCAK256 PUSH1 0x0 ADD PUSH1 0x0 SWAP1 SLOAD SWAP1 PUSH2 0x100 EXP SWAP1 DIV PUSH1 0xFF AND PUSH2 0x7E9 JUMPI PUSH1 0x40 MLOAD PUSH32 0x8C379A000000000000000000000000000000000000000000000000000000000 DUP2 MSTORE PUSH1 0x4 ADD PUSH2 0x7E0 SWAP1 PUSH2 0x1AFA JUMP JUMPDEST PUSH1 0x40 MLOAD DUP1 SWAP2 SUB SWAP1 REVERT JUMPDEST PUSH1 0x3 PUSH1 0x0 CALLER PUSH20 0xFFFFFFFFFFFFFFFFFFFFFFFFFFFFFFFFFFFFFFFF AND PUSH20 0xFFFFFFFFFFFFFFFFFFFFFFFFFFFFFFFFFFFFFFFF AND DUP2 MSTORE PUSH1 0x20 ADD SWAP1 DUP2 MSTORE PUSH1 0x20 ADD PUSH1 0x0 KECCAK256 PUSH1 0x0 ADD PUSH1 0x1 SWAP1 SLOAD SWAP1 PUSH2 0x100 EXP SWAP1 DIV PUSH1 0xFF AND ISZERO PUSH2 0x879 JUMPI PUSH1 0x40 MLOAD PUSH32 0x8C379A000000000000000000000000000000000000000000000000000000000 DUP2 MSTORE PUSH1 0x4 ADD PUSH2 0x870 SWAP1 PUSH2 0x1B66 JUMP JUMPDEST PUSH1 0x40 MLOAD DUP1 SWAP2 SUB SWAP1 REVERT JUMPDEST PUSH1 0x2 PUSH1 0x0 DUP4 PUSH20 0xFFFFFFFFFFFFFFFFFFFFFFFFFFFFFFFFFFFFFFFF AND PUSH20 0xFFFFFFFFFFFFFFFFFFFFFFFFFFFFFFFFFFFFFFFF AND DUP2 MSTORE PUSH1 0x20 ADD SWAP1 DUP2 MSTORE PUSH1 0x20 ADD PUSH1 0x0 KECCAK256 PUSH1 0x2 ADD PUSH1 0x0 SWAP1 SLOAD SWAP1 PUSH2 0x100 EXP SWAP1 DIV PUSH1 0xFF AND PUSH2 0x908 JUMPI PUSH1 0x40 MLOAD PUSH32 0x8C379A000000000000000000000000000000000000000000000000000000000 DUP2 MSTORE PUSH1 0x4 ADD PUSH2 0x8FF SWAP1 PUSH2 0x1BD2 JUMP JUMPDEST PUSH1 0x40 MLOAD DUP1 SWAP2 SUB SWAP1 REVERT JUMPDEST PUSH1 0x1 PUSH1 0x3 PUSH1 0x0 CALLER PUSH20 0xFFFFFFFFFFFFFFFFFFFFFFFFFFFFFFFFFFFFFFFF AND PUSH20 0xFFFFFFFFFFFFFFFFFFFFFFFFFFFFFFFFFFFFFFFF AND DUP2 MSTORE PUSH1 0x20 ADD SWAP1 DUP2 MSTORE PUSH1 0x20 ADD PUSH1 0x0 KECCAK256 PUSH1 0x0 ADD PUSH1 0x1 PUSH2 0x100 EXP DUP2 SLOAD DUP2 PUSH1 0xFF MUL NOT AND SWAP1 DUP4 ISZERO ISZERO MUL OR SWAP1 SSTORE POP DUP2 PUSH1 0x3 PUSH1 0x0 CALLER PUSH20 0xFFFFFFFFFFFFFFFFFFFFFFFFFFFFFFFFFFFFFFFF AND PUSH20 0xFFFFFFFFFFFFFFFFFFFFFFFFFFFFFFFFFFFFFFFF AND DUP2 MSTORE PUSH1 0x20 ADD SWAP1 DUP2 MSTORE PUSH1 0x20 ADD PUSH1 0x0 KECCAK256 PUSH1 0x0 ADD PUSH1 0x2 PUSH2 0x100 EXP DUP2 SLOAD DUP2 PUSH20 0xFFFFFFFFFFFFFFFFFFFFFFFFFFFFFFFFFFFFFFFF MUL NOT AND SWAP1 DUP4 PUSH20 0xFFFFFFFFFFFFFFFFFFFFFFFFFFFFFFFFFFFFFFFF AND MUL OR SWAP1 SSTORE POP PUSH1 0x2 PUSH1 0x0 DUP4 PUSH20 0xFFFFFFFFFFFFFFFFFFFFFFFFFFFFFFFFFFFFFFFF AND PUSH20 0xFFFFFFFFFFFFFFFFFFFFFFFFFFFFFFFFFFFFFFFF AND DUP2 MSTORE PUSH1 0x20 ADD SWAP1 DUP2 MSTORE PUSH1 0x20 ADD PUSH1 0x0 KECCAK256 PUSH1 0x1 ADD PUSH1 0x0 DUP2 SLOAD DUP1 SWAP3 SWAP2 SWAP1 PUSH2 0xA37 SWAP1 PUSH2 0x1C21 JUMP JUMPDEST SWAP2 SWAP1 POP SSTORE POP PUSH1 0x5 PUSH1 0x0 DUP2 SLOAD DUP1 SWAP3 SWAP2 SWAP1 PUSH2 0xA4F SWAP1 PUSH2 0x1C21 JUMP JUMPDEST SWAP2 SWAP1 POP SSTORE POP DUP2 PUSH20 0xFFFFFFFFFFFFFFFFFFFFFFFFFFFFFFFFFFFFFFFF AND CALLER PUSH20 0xFFFFFFFFFFFFFFFFFFFFFFFFFFFFFFFFFFFFFFFF AND PUSH32 0x113ED09B18BB8FE2635AF16F21D67464502D920FF1015ABFE08DBE9A2971A7E2 PUSH1 0x40 MLOAD PUSH1 0x40 MLOAD DUP1 SWAP2 SUB SWAP1 LOG3 POP PUSH2 0xAB7 PUSH2 0x13F7 JUMP JUMPDEST POP JUMP JUMPDEST PUSH1 0x2 PUSH1 0x20 MSTORE DUP1 PUSH1 0x0 MSTORE PUSH1 0x40 PUSH1 0x0 KECCAK256 PUSH1 0x0 SWAP2 POP SWAP1 POP DUP1 PUSH1 0x0 ADD DUP1 SLOAD PUSH2 0xADD SWAP1 PUSH2 0x1C98 JUMP JUMPDEST DUP1 PUSH1 0x1F ADD PUSH1 0x20 DUP1 SWAP2 DIV MUL PUSH1 0x20 ADD PUSH1 0x40 MLOAD SWAP1 DUP2 ADD PUSH1 0x40 MSTORE DUP1 SWAP3 SWAP2 SWAP1 DUP2 DUP2 MSTORE PUSH1 0x20 ADD DUP3 DUP1 SLOAD PUSH2 0xB09 SWAP1 PUSH2 0x1C98 JUMP JUMPDEST DUP1 ISZERO PUSH2 0xB56 JUMPI DUP1 PUSH1 0x1F LT PUSH2 0xB2B JUMPI PUSH2 0x100 DUP1 DUP4 SLOAD DIV MUL DUP4 MSTORE SWAP2 PUSH1 0x20 ADD SWAP2 PUSH2 0xB56 JUMP JUMPDEST DUP3 ADD SWAP2 SWAP1 PUSH1 0x0 MSTORE PUSH1 0x20 PUSH1 0x0 KECCAK256 SWAP1 JUMPDEST DUP2 SLOAD DUP2 MSTORE SWAP1 PUSH1 0x1 ADD SWAP1 PUSH1 0x20 ADD DUP1 DUP4 GT PUSH2 0xB39 JUMPI DUP3 SWAP1 SUB PUSH1 0x1F AND DUP3 ADD SWAP2 JUMPDEST POP POP POP POP POP SWAP1 DUP1 PUSH1 0x1 ADD SLOAD SWAP1 DUP1 PUSH1 0x2 ADD PUSH1 0x0 SWAP1 SLOAD SWAP1 PUSH2 0x100 EXP SWAP1 DIV PUSH1 0xFF AND SWAP1 POP DUP4 JUMP JUMPDEST PUSH1 0x0 PUSH1 0x60 PUSH1 0x0 PUSH1 0x2 DUP1 PUSH1 0x2 DUP2 GT ISZERO PUSH2 0xB94 JUMPI PUSH2 0xB93 PUSH2 0x1401 JUMP JUMPDEST JUMPDEST PUSH1 0x1 PUSH1 0x14 SWAP1 SLOAD SWAP1 PUSH2 0x100 EXP SWAP1 DIV PUSH1 0xFF AND PUSH1 0x2 DUP2 GT ISZERO PUSH2 0xBB6 JUMPI PUSH2 0xBB5 PUSH2 0x1401 JUMP JUMPDEST JUMPDEST EQ PUSH2 0xBF6 JUMPI PUSH1 0x40 MLOAD PUSH32 0x8C379A000000000000000000000000000000000000000000000000000000000 DUP2 MSTORE PUSH1 0x4 ADD PUSH2 0xBED SWAP1 PUSH2 0x19B6 JUMP JUMPDEST PUSH1 0x40 MLOAD DUP1 SWAP2 SUB SWAP1 REVERT JUMPDEST PUSH1 0x0 PUSH1 0x5 SLOAD GT PUSH2 0xC3B JUMPI PUSH1 0x40 MLOAD PUSH32 0x8C379A000000000000000000000000000000000000000000000000000000000 DUP2 MSTORE PUSH1 0x4 ADD PUSH2 0xC32 SWAP1 PUSH2 0x1D15 JUMP JUMPDEST PUSH1 0x40 MLOAD DUP1 SWAP2 SUB SWAP1 REVERT JUMPDEST PUSH1 0x0 DUP1 JUMPDEST PUSH1 0x4 DUP1 SLOAD SWAP1 POP DUP2 LT ISZERO PUSH2 0xDA6 JUMPI DUP2 PUSH1 0x2 PUSH1 0x0 PUSH1 0x4 DUP5 DUP2 SLOAD DUP2 LT PUSH2 0xC65 JUMPI PUSH2 0xC64 PUSH2 0x1D35 JUMP JUMPDEST JUMPDEST SWAP1 PUSH1 0x0 MSTORE PUSH1 0x20 PUSH1 0x0 KECCAK256 ADD PUSH1 0x0 SWAP1 SLOAD SWAP1 PUSH2 0x100 EXP SWAP1 DIV PUSH20 0xFFFFFFFFFFFFFFFFFFFFFFFFFFFFFFFFFFFFFFFF AND PUSH20 0xFFFFFFFFFFFFFFFFFFFFFFFFFFFFFFFFFFFFFFFF AND PUSH20 0xFFFFFFFFFFFFFFFFFFFFFFFFFFFFFFFFFFFFFFFF AND DUP2 MSTORE PUSH1 0x20 ADD SWAP1 DUP2 MSTORE PUSH1 0x20 ADD PUSH1 0x0 KECCAK256 PUSH1 0x1 ADD SLOAD GT ISZERO PUSH2 0xD99 JUMPI PUSH1 0x2 PUSH1 0x0 PUSH1 0x4 DUP4 DUP2 SLOAD DUP2 LT PUSH2 0xCEC JUMPI PUSH2 0xCEB PUSH2 0x1D35 JUMP JUMPDEST JUMPDEST SWAP1 PUSH1 0x0 MSTORE PUSH1 0x20 PUSH1 0x0 KECCAK256 ADD PUSH1 0x0 SWAP1 SLOAD SWAP1 PUSH2 0x100 EXP SWAP1 DIV PUSH20 0xFFFFFFFFFFFFFFFFFFFFFFFFFFFFFFFFFFFFFFFF AND PUSH20 0xFFFFFFFFFFFFFFFFFFFFFFFFFFFFFFFFFFFFFFFF AND PUSH20 0xFFFFFFFFFFFFFFFFFFFFFFFFFFFFFFFFFFFFFFFF AND DUP2 MSTORE PUSH1 0x20 ADD SWAP1 DUP2 MSTORE PUSH1 0x20 ADD PUSH1 0x0 KECCAK256 PUSH1 0x1 ADD SLOAD SWAP2 POP PUSH1 0x4 DUP2 DUP2 SLOAD DUP2 LT PUSH2 0xD6B JUMPI PUSH2 0xD6A PUSH2 0x1D35 JUMP JUMPDEST JUMPDEST SWAP1 PUSH1 0x0 MSTORE PUSH1 0x20 PUSH1 0x0 KECCAK256 ADD PUSH1 0x0 SWAP1 SLOAD SWAP1 PUSH2 0x100 EXP SWAP1 DIV PUSH20 0xFFFFFFFFFFFFFFFFFFFFFFFFFFFFFFFFFFFFFFFF AND SWAP6 POP JUMPDEST DUP1 DUP1 PUSH1 0x1 ADD SWAP2 POP POP PUSH2 0xC3F JUMP JUMPDEST POP DUP5 PUSH1 0x2 PUSH1 0x0 DUP8 PUSH20 0xFFFFFFFFFFFFFFFFFFFFFFFFFFFFFFFFFFFFFFFF AND PUSH20 0xFFFFFFFFFFFFFFFFFFFFFFFFFFFFFFFFFFFFFFFF AND DUP2 MSTORE PUSH1 0x20 ADD SWAP1 DUP2 MSTORE PUSH1 0x20 ADD PUSH1 0x0 KECCAK256 PUSH1 0x0 ADD DUP3 DUP2 DUP1 SLOAD PUSH2 0xDF7 SWAP1 PUSH2 0x1C98 JUMP JUMPDEST DUP1 PUSH1 0x1F ADD PUSH1 0x20 DUP1 SWAP2 DIV MUL PUSH1 0x20 ADD PUSH1 0x40 MLOAD SWAP1 DUP2 ADD PUSH1 0x40 MSTORE DUP1 SWAP3 SWAP2 SWAP1 DUP2 DUP2 MSTORE PUSH1 0x20 ADD DUP3 DUP1 SLOAD PUSH2 0xE23 SWAP1 PUSH2 0x1C98 JUMP JUMPDEST DUP1 ISZERO PUSH2 0xE70 JUMPI DUP1 PUSH1 0x1F LT PUSH2 0xE45 JUMPI PUSH2 0x100 DUP1 DUP4 SLOAD DIV MUL DUP4 MSTORE SWAP2 PUSH1 0x20 ADD SWAP2 PUSH2 0xE70 JUMP JUMPDEST DUP3 ADD SWAP2 SWAP1 PUSH1 0x0 MSTORE PUSH1 0x20 PUSH1 0x0 KECCAK256 SWAP1 JUMPDEST DUP2 SLOAD DUP2 MSTORE SWAP1 PUSH1 0x1 ADD SWAP1 PUSH1 0x20 ADD DUP1 DUP4 GT PUSH2 0xE53 JUMPI DUP3 SWAP1 SUB PUSH1 0x1F AND DUP3 ADD SWAP2 JUMPDEST POP POP POP POP POP SWAP2 POP SWAP5 POP SWAP5 POP SWAP5 POP POP POP SWAP1 SWAP2 SWAP3 JUMP JUMPDEST PUSH1 0x3 PUSH1 0x20 MSTORE DUP1 PUSH1 0x0 MSTORE PUSH1 0x40 PUSH1 0x0 KECCAK256 PUSH1 0x0 SWAP2 POP SWAP1 POP DUP1 PUSH1 0x0 ADD PUSH1 0x0 SWAP1 SLOAD SWAP1 PUSH2 0x100 EXP SWAP1 DIV PUSH1 0xFF AND SWAP1 DUP1 PUSH1 0x0 ADD PUSH1 0x1 SWAP1 SLOAD SWAP1 PUSH2 0x100 EXP SWAP1 DIV PUSH1 0xFF AND SWAP1 DUP1 PUSH1 0x0 ADD PUSH1 0x2 SWAP1 SLOAD SWAP1 PUSH2 0x100 EXP SWAP1 DIV PUSH20 0xFFFFFFFFFFFFFFFFFFFFFFFFFFFFFFFFFFFFFFFF AND SWAP1 POP DUP4 JUMP JUMPDEST PUSH1 0x1 PUSH1 0x0 SWAP1 SLOAD SWAP1 PUSH2 0x100 EXP SWAP1 DIV PUSH20 0xFFFFFFFFFFFFFFFFFFFFFFFFFFFFFFFFFFFFFFFF AND PUSH20 0xFFFFFFFFFFFFFFFFFFFFFFFFFFFFFFFFFFFFFFFF AND CALLER PUSH20 0xFFFFFFFFFFFFFFFFFFFFFFFFFFFFFFFFFFFFFFFF AND EQ PUSH2 0xF78 JUMPI PUSH1 0x40 MLOAD PUSH32 0x8C379A000000000000000000000000000000000000000000000000000000000 DUP2 MSTORE PUSH1 0x4 ADD PUSH2 0xF6F SWAP1 PUSH2 0x194A JUMP JUMPDEST PUSH1 0x40 MLOAD DUP1 SWAP2 SUB SWAP1 REVERT JUMPDEST PUSH1 0x0 DUP1 PUSH1 0x2 DUP2 GT ISZERO PUSH2 0xF8D JUMPI PUSH2 0xF8C PUSH2 0x1401 JUMP JUMPDEST JUMPDEST PUSH1 0x1 PUSH1 0x14 SWAP1 SLOAD SWAP1 PUSH2 0x100 EXP SWAP1 DIV PUSH1 0xFF AND PUSH1 0x2 DUP2 GT ISZERO PUSH2 0xFAF JUMPI PUSH2 0xFAE PUSH2 0x1401 JUMP JUMPDEST JUMPDEST EQ PUSH2 0xFEF JUMPI PUSH1 0x40 MLOAD PUSH32 0x8C379A000000000000000000000000000000000000000000000000000000000 DUP2 MSTORE PUSH1 0x4 ADD PUSH2 0xFE6 SWAP1 PUSH2 0x19B6 JUMP JUMPDEST PUSH1 0x40 MLOAD DUP1 SWAP2 SUB SWAP1 REVERT JUMPDEST PUSH1 0x2 PUSH1 0x0 DUP5 PUSH20 0xFFFFFFFFFFFFFFFFFFFFFFFFFFFFFFFFFFFFFFFF AND PUSH20 0xFFFFFFFFFFFFFFFFFFFFFFFFFFFFFFFFFFFFFFFF AND DUP2 MSTORE PUSH1 0x20 ADD SWAP1 DUP2 MSTORE PUSH1 0x20 ADD PUSH1 0x0 KECCAK256 PUSH1 0x2 ADD PUSH1 0x0 SWAP1 SLOAD SWAP1 PUSH2 0x100 EXP SWAP1 DIV PUSH1 0xFF AND ISZERO PUSH2 0x107F JUMPI PUSH1 0x40 MLOAD PUSH32 0x8C379A000000000000000000000000000000000000000000000000000000000 DUP2 MSTORE PUSH1 0x4 ADD PUSH2 0x1076 SWAP1 PUSH2 0x1DB0 JUMP JUMPDEST PUSH1 0x40 MLOAD DUP1 SWAP2 SUB SWAP1 REVERT JUMPDEST PUSH1 0x40 MLOAD DUP1 PUSH1 0x60 ADD PUSH1 0x40 MSTORE DUP1 DUP4 DUP2 MSTORE PUSH1 0x20 ADD PUSH1 0x0 DUP2 MSTORE PUSH1 0x20 ADD PUSH1 0x1 ISZERO ISZERO DUP2 MSTORE POP PUSH1 0x2 PUSH1 0x0 DUP6 PUSH20 0xFFFFFFFFFFFFFFFFFFFFFFFFFFFFFFFFFFFFFFFF AND PUSH20 0xFFFFFFFFFFFFFFFFFFFFFFFFFFFFFFFFFFFFFFFF AND DUP2 MSTORE PUSH1 0x20 ADD SWAP1 DUP2 MSTORE PUSH1 0x20 ADD PUSH1 0x0 KECCAK256 PUSH1 0x0 DUP3 ADD MLOAD DUP2 PUSH1 0x0 ADD SWAP1 DUP2 PUSH2 0x10F2 SWAP2 SWAP1 PUSH2 0x1F7C JUMP JUMPDEST POP PUSH1 0x20 DUP3 ADD MLOAD DUP2 PUSH1 0x1 ADD SSTORE PUSH1 0x40 DUP3 ADD MLOAD DUP2 PUSH1 0x2 ADD PUSH1 0x0 PUSH2 0x100 EXP DUP2 SLOAD DUP2 PUSH1 0xFF MUL NOT AND SWAP1 DUP4 ISZERO ISZERO MUL OR SWAP1 SSTORE POP SWAP1 POP POP PUSH1 0x4 DUP4 SWAP1 DUP1 PUSH1 0x1 DUP2 SLOAD ADD DUP1 DUP3 SSTORE DUP1 SWAP2 POP POP PUSH1 0x1 SWAP1 SUB SWAP1 PUSH1 0x0 MSTORE PUSH1 0x20 PUSH1 0x0 KECCAK256 ADD PUSH1 0x0 SWAP1 SWAP2 SWAP1 SWAP2 SWAP1 SWAP2 PUSH2 0x100 EXP DUP2 SLOAD DUP2 PUSH20 0xFFFFFFFFFFFFFFFFFFFFFFFFFFFFFFFFFFFFFFFF MUL NOT AND SWAP1 DUP4 PUSH20 0xFFFFFFFFFFFFFFFFFFFFFFFFFFFFFFFFFFFFFFFF AND MUL OR SWAP1 SSTORE POP DUP3 PUSH20 0xFFFFFFFFFFFFFFFFFFFFFFFFFFFFFFFFFFFFFFFF AND PUSH32 0xF7D573E0E0F72259D79708EF22494ECDC00DD3605DE228FF1A79063D7547B7C2 DUP4 PUSH1 0x40 MLOAD PUSH2 0x11C9 SWAP2 SWAP1 PUSH2 0x204E JUMP JUMPDEST PUSH1 0x40 MLOAD DUP1 SWAP2 SUB SWAP1 LOG2 POP POP POP JUMP JUMPDEST PUSH1 0x4 DUP2 DUP2 SLOAD DUP2 LT PUSH2 0x11E6 JUMPI PUSH1 0x0 DUP1 REVERT JUMPDEST SWAP1 PUSH1 0x0 MSTORE PUSH1 0x20 PUSH1 0x0 KECCAK256 ADD PUSH1 0x0 SWAP2 POP SLOAD SWAP1 PUSH2 0x100 EXP SWAP1 DIV PUSH20 0xFFFFFFFFFFFFFFFFFFFFFFFFFFFFFFFFFFFFFFFF AND DUP2 JUMP JUMPDEST PUSH1 0x1 PUSH1 0x0 SWAP1 SLOAD SWAP1 PUSH2 0x100 EXP SWAP1 DIV PUSH20 0xFFFFFFFFFFFFFFFFFFFFFFFFFFFFFFFFFFFFFFFF AND PUSH20 0xFFFFFFFFFFFFFFFFFFFFFFFFFFFFFFFFFFFFFFFF AND CALLER PUSH20 0xFFFFFFFFFFFFFFFFFFFFFFFFFFFFFFFFFFFFFFFF AND EQ PUSH2 0x12A5 JUMPI PUSH1 0x40 MLOAD PUSH32 0x8C379A000000000000000000000000000000000000000000000000000000000 DUP2 MSTORE PUSH1 0x4 ADD PUSH2 0x129C SWAP1 PUSH2 0x194A JUMP JUMPDEST PUSH1 0x40 MLOAD DUP1 SWAP2 SUB SWAP1 REVERT JUMPDEST PUSH1 0x1 DUP1 PUSH1 0x2 DUP2 GT ISZERO PUSH2 0x12BA JUMPI PUSH2 0x12B9 PUSH2 0x1401 JUMP JUMPDEST JUMPDEST PUSH1 0x1 PUSH1 0x14 SWAP1 SLOAD SWAP1 PUSH2 0x100 EXP SWAP1 DIV PUSH1 0xFF AND PUSH1 0x2 DUP2 GT ISZERO PUSH2 0x12DC JUMPI PUSH2 0x12DB PUSH2 0x1401 JUMP JUMPDEST JUMPDEST EQ PUSH2 0x131C JUMPI PUSH1 0x40 MLOAD PUSH32 0x8C379A000000000000000000000000000000000000000000000000000000000 DUP2 MSTORE PUSH1 0x4 ADD PUSH2 0x1313 SWAP1 PUSH2 0x19B6 JUMP JUMPDEST PUSH1 0x40 MLOAD DUP1 SWAP2 SUB SWAP1 REVERT JUMPDEST PUSH1 0x2 PUSH1 0x1 PUSH1 0x14 PUSH2 0x100 EXP DUP2 SLOAD DUP2 PUSH1 0xFF MUL NOT AND SWAP1 DUP4 PUSH1 0x2 DUP2 GT ISZERO PUSH2 0x1342 JUMPI PUSH2 0x1341 PUSH2 0x1401 JUMP JUMPDEST JUMPDEST MUL OR SWAP1 SSTORE POP PUSH32 0xA6DCC92F45DF25789D5639B7A0C97BA1EDF3BB1C0B5DD3376FD96A0DB87C4642 PUSH1 0x2 PUSH1 0x40 MLOAD PUSH2 0x1377 SWAP2 SWAP1 PUSH2 0x1478 JUMP JUMPDEST PUSH1 0x40 MLOAD DUP1 SWAP2 SUB SWAP1 LOG1 POP JUMP JUMPDEST PUSH1 0x1 PUSH1 0x0 SWAP1 SLOAD SWAP1 PUSH2 0x100 EXP SWAP1 DIV PUSH20 0xFFFFFFFFFFFFFFFFFFFFFFFFFFFFFFFFFFFFFFFF AND DUP2 JUMP JUMPDEST PUSH1 0x2 PUSH1 0x0 SLOAD SUB PUSH2 0x13ED JUMPI PUSH1 0x40 MLOAD PUSH32 0x8C379A000000000000000000000000000000000000000000000000000000000 DUP2 MSTORE PUSH1 0x4 ADD PUSH2 0x13E4 SWAP1 PUSH2 0x20BC JUMP JUMPDEST PUSH1 0x40 MLOAD DUP1 SWAP2 SUB SWAP1 REVERT JUMPDEST PUSH1 0x2 PUSH1 0x0 DUP2 SWAP1 SSTORE POP JUMP JUMPDEST PUSH1 0x1 PUSH1 0x0 DUP2 SWAP1 SSTORE POP JUMP JUMPDEST PUSH32 0x4E487B7100000000000000000000000000000000000000000000000000000000 PUSH1 0x0 MSTORE PUSH1 0x21 PUSH1 0x4 MSTORE PUSH1 0x24 PUSH1 0x0 REVERT JUMPDEST PUSH1 0x3 DUP2 LT PUSH2 0x1441 JUMPI PUSH2 0x1440 PUSH2 0x1401 JUMP JUMPDEST JUMPDEST POP JUMP JUMPDEST PUSH1 0x0 DUP2 SWAP1 POP PUSH2 0x1452 DUP3 PUSH2 0x1430 JUMP JUMPDEST SWAP2 SWAP1 POP JUMP JUMPDEST PUSH1 0x0 PUSH2 0x1462 DUP3 PUSH2 0x1444 JUMP JUMPDEST SWAP1 POP SWAP2 SWAP1 POP JUMP JUMPDEST PUSH2 0x1472 DUP2 PUSH2 0x1457 JUMP JUMPDEST DUP3 MSTORE POP POP JUMP JUMPDEST PUSH1 0x0 PUSH1 0x20 DUP3 ADD SWAP1 POP PUSH2 0x148D PUSH1 0x0 DUP4 ADD DUP5 PUSH2 0x1469 JUMP JUMPDEST SWAP3 SWAP2 POP POP JUMP JUMPDEST PUSH1 0x0 DUP2 SWAP1 POP SWAP2 SWAP1 POP JUMP JUMPDEST PUSH2 0x14A6 DUP2 PUSH2 0x1493 JUMP JUMPDEST DUP3 MSTORE POP POP JUMP JUMPDEST PUSH1 0x0 PUSH1 0x20 DUP3 ADD SWAP1 POP PUSH2 0x14C1 PUSH1 0x0 DUP4 ADD DUP5 PUSH2 0x149D JUMP JUMPDEST SWAP3 SWAP2 POP POP JUMP JUMPDEST PUSH1 0x0 PUSH1 0x40 MLOAD SWAP1 POP SWAP1 JUMP JUMPDEST PUSH1 0x0 DUP1 REVERT JUMPDEST PUSH1 0x0 DUP1 REVERT JUMPDEST PUSH1 0x0 PUSH20 0xFFFFFFFFFFFFFFFFFFFFFFFFFFFFFFFFFFFFFFFF DUP3 AND SWAP1 POP SWAP2 SWAP1 POP JUMP JUMPDEST PUSH1 0x0 PUSH2 0x1506 DUP3 PUSH2 0x14DB JUMP JUMPDEST SWAP1 POP SWAP2 SWAP1 POP JUMP JUMPDEST PUSH2 0x1516 DUP2 PUSH2 0x14FB JUMP JUMPDEST DUP2 EQ PUSH2 0x1521 JUMPI PUSH1 0x0 DUP1 REVERT JUMPDEST POP JUMP JUMPDEST PUSH1 0x0 DUP2 CALLDATALOAD SWAP1 POP PUSH2 0x1533 DUP2 PUSH2 0x150D JUMP JUMPDEST SWAP3 SWAP2 POP POP JUMP JUMPDEST PUSH1 0x0 PUSH1 0x20 DUP3 DUP5 SUB SLT ISZERO PUSH2 0x154F JUMPI PUSH2 0x154E PUSH2 0x14D1 JUMP JUMPDEST JUMPDEST PUSH1 0x0 PUSH2 0x155D DUP5 DUP3 DUP6 ADD PUSH2 0x1524 JUMP JUMPDEST SWAP2 POP POP SWAP3 SWAP2 POP POP JUMP JUMPDEST PUSH1 0x0 DUP2 MLOAD SWAP1 POP SWAP2 SWAP1 POP JUMP JUMPDEST PUSH1 0x0 DUP3 DUP3 MSTORE PUSH1 0x20 DUP3 ADD SWAP1 POP SWAP3 SWAP2 POP POP JUMP JUMPDEST PUSH1 0x0 JUMPDEST DUP4 DUP2 LT ISZERO PUSH2 0x15A0 JUMPI DUP1 DUP3 ADD MLOAD DUP2 DUP5 ADD MSTORE PUSH1 0x20 DUP2 ADD SWAP1 POP PUSH2 0x1585 JUMP JUMPDEST PUSH1 0x0 DUP5 DUP5 ADD MSTORE POP POP POP POP JUMP JUMPDEST PUSH1 0x0 PUSH1 0x1F NOT PUSH1 0x1F DUP4 ADD AND SWAP1 POP SWAP2 SWAP1 POP JUMP JUMPDEST PUSH1 0x0 PUSH2 0x15C8 DUP3 PUSH2 0x1566 JUMP JUMPDEST PUSH2 0x15D2 DUP2 DUP6 PUSH2 0x1571 JUMP JUMPDEST SWAP4 POP PUSH2 0x15E2 DUP2 DUP6 PUSH1 0x20 DUP7 ADD PUSH2 0x1582 JUMP JUMPDEST PUSH2 0x15EB DUP2 PUSH2 0x15AC JUMP JUMPDEST DUP5 ADD SWAP2 POP POP SWAP3 SWAP2 POP POP JUMP JUMPDEST PUSH1 0x0 DUP2 ISZERO ISZERO SWAP1 POP SWAP2 SWAP1 POP JUMP JUMPDEST PUSH2 0x160B DUP2 PUSH2 0x15F6 JUMP JUMPDEST DUP3 MSTORE POP POP JUMP JUMPDEST PUSH1 0x0 PUSH1 0x60 DUP3 ADD SWAP1 POP DUP2 DUP2 SUB PUSH1 0x0 DUP4 ADD MSTORE PUSH2 0x162B DUP2 DUP7 PUSH2 0x15BD JUMP JUMPDEST SWAP1 POP PUSH2 0x163A PUSH1 0x20 DUP4 ADD DUP6 PUSH2 0x149D JUMP JUMPDEST PUSH2 0x1647 PUSH1 0x40 DUP4 ADD DUP5 PUSH2 0x1602 JUMP JUMPDEST SWAP5 SWAP4 POP POP POP POP JUMP JUMPDEST PUSH2 0x1658 DUP2 PUSH2 0x14FB JUMP JUMPDEST DUP3 MSTORE POP POP JUMP JUMPDEST PUSH1 0x0 PUSH1 0x60 DUP3 ADD SWAP1 POP PUSH2 0x1673 PUSH1 0x0 DUP4 ADD DUP7 PUSH2 0x164F JUMP JUMPDEST DUP2 DUP2 SUB PUSH1 0x20 DUP4 ADD MSTORE PUSH2 0x1685 DUP2 DUP6 PUSH2 0x15BD JUMP JUMPDEST SWAP1 POP PUSH2 0x1694 PUSH1 0x40 DUP4 ADD DUP5 PUSH2 0x149D JUMP JUMPDEST SWAP5 SWAP4 POP POP POP POP JUMP JUMPDEST PUSH1 0x0 PUSH1 0x60 DUP3 ADD SWAP1 POP PUSH2 0x16B1 PUSH1 0x0 DUP4 ADD DUP7 PUSH2 0x1602 JUMP JUMPDEST PUSH2 0x16BE PUSH1 0x20 DUP4 ADD DUP6 PUSH2 0x1602 JUMP JUMPDEST PUSH2 0x16CB PUSH1 0x40 DUP4 ADD DUP5 PUSH2 0x164F JUMP JUMPDEST SWAP5 SWAP4 POP POP POP POP JUMP JUMPDEST PUSH1 0x0 DUP1 REVERT JUMPDEST PUSH1 0x0 DUP1 REVERT JUMPDEST PUSH32 0x4E487B7100000000000000000000000000000000000000000000000000000000 PUSH1 0x0 MSTORE PUSH1 0x41 PUSH1 0x4 MSTORE PUSH1 0x24 PUSH1 0x0 REVERT JUMPDEST PUSH2 0x1715 DUP3 PUSH2 0x15AC JUMP JUMPDEST DUP2 ADD DUP2 DUP2 LT PUSH8 0xFFFFFFFFFFFFFFFF DUP3 GT OR ISZERO PUSH2 0x1734 JUMPI PUSH2 0x1733 PUSH2 0x16DD JUMP JUMPDEST JUMPDEST DUP1 PUSH1 0x40 MSTORE POP POP POP JUMP JUMPDEST PUSH1 0x0 PUSH2 0x1747 PUSH2 0x14C7 JUMP JUMPDEST SWAP1 POP PUSH2 0x1753 DUP3 DUP3 PUSH2 0x170C JUMP JUMPDEST SWAP2 SWAP1 POP JUMP JUMPDEST PUSH1 0x0 PUSH8 0xFFFFFFFFFFFFFFFF DUP3 GT ISZERO PUSH2 0x1773 JUMPI PUSH2 0x1772 PUSH2 0x16DD JUMP JUMPDEST JUMPDEST PUSH2 0x177C DUP3 PUSH2 0x15AC JUMP JUMPDEST SWAP1 POP PUSH1 0x20 DUP2 ADD SWAP1 POP SWAP2 SWAP1 POP JUMP JUMPDEST DUP3 DUP2 DUP4 CALLDATACOPY PUSH1 0x0 DUP4 DUP4 ADD MSTORE POP POP POP JUMP JUMPDEST PUSH1 0x0 PUSH2 0x17AB PUSH2 0x17A6 DUP5 PUSH2 0x1758 JUMP JUMPDEST PUSH2 0x173D JUMP JUMPDEST SWAP1 POP DUP3 DUP2 MSTORE PUSH1 0x20 DUP2 ADD DUP5 DUP5 DUP5 ADD GT ISZERO PUSH2 0x17C7 JUMPI PUSH2 0x17C6 PUSH2 0x16D8 JUMP JUMPDEST JUMPDEST PUSH2 0x17D2 DUP5 DUP3 DUP6 PUSH2 0x1789 JUMP JUMPDEST POP SWAP4 SWAP3 POP POP POP JUMP JUMPDEST PUSH1 0x0 DUP3 PUSH1 0x1F DUP4 ADD SLT PUSH2 0x17EF JUMPI PUSH2 0x17EE PUSH2 0x16D3 JUMP JUMPDEST JUMPDEST DUP2 CALLDATALOAD PUSH2 0x17FF DUP5 DUP3 PUSH1 0x20 DUP7 ADD PUSH2 0x1798 JUMP JUMPDEST SWAP2 POP POP SWAP3 SWAP2 POP POP JUMP JUMPDEST PUSH1 0x0 DUP1 PUSH1 0x40 DUP4 DUP6 SUB SLT ISZERO PUSH2 0x181F JUMPI PUSH2 0x181E PUSH2 0x14D1 JUMP JUMPDEST JUMPDEST PUSH1 0x0 PUSH2 0x182D DUP6 DUP3 DUP7 ADD PUSH2 0x1524 JUMP JUMPDEST SWAP3 POP POP PUSH1 0x20 DUP4 ADD CALLDATALOAD PUSH8 0xFFFFFFFFFFFFFFFF DUP2 GT ISZERO PUSH2 0x184E JUMPI PUSH2 0x184D PUSH2 0x14D6 JUMP JUMPDEST JUMPDEST PUSH2 0x185A DUP6 DUP3 DUP7 ADD PUSH2 0x17DA JUMP JUMPDEST SWAP2 POP POP SWAP3 POP SWAP3 SWAP1 POP JUMP JUMPDEST PUSH2 0x186D DUP2 PUSH2 0x1493 JUMP JUMPDEST DUP2 EQ PUSH2 0x1878 JUMPI PUSH1 0x0 DUP1 REVERT JUMPDEST POP JUMP JUMPDEST PUSH1 0x0 DUP2 CALLDATALOAD SWAP1 POP PUSH2 0x188A DUP2 PUSH2 0x1864 JUMP JUMPDEST SWAP3 SWAP2 POP POP JUMP JUMPDEST PUSH1 0x0 PUSH1 0x20 DUP3 DUP5 SUB SLT ISZERO PUSH2 0x18A6 JUMPI PUSH2 0x18A5 PUSH2 0x14D1 JUMP JUMPDEST JUMPDEST PUSH1 0x0 PUSH2 0x18B4 DUP5 DUP3 DUP6 ADD PUSH2 0x187B JUMP JUMPDEST SWAP2 POP POP SWAP3 SWAP2 POP POP JUMP JUMPDEST PUSH1 0x0 PUSH1 0x20 DUP3 ADD SWAP1 POP PUSH2 0x18D2 PUSH1 0x0 DUP4 ADD DUP5 PUSH2 0x164F JUMP JUMPDEST SWAP3 SWAP2 POP POP JUMP JUMPDEST PUSH32 0x4F6E6C792061646D696E2063616E20706572666F726D20746869732061637469 PUSH1 0x0 DUP3 ADD MSTORE PUSH32 0x6F6E000000000000000000000000000000000000000000000000000000000000 PUSH1 0x20 DUP3 ADD MSTORE POP JUMP JUMPDEST PUSH1 0x0 PUSH2 0x1934 PUSH1 0x22 DUP4 PUSH2 0x1571 JUMP JUMPDEST SWAP2 POP PUSH2 0x193F DUP3 PUSH2 0x18D8 JUMP JUMPDEST PUSH1 0x40 DUP3 ADD SWAP1 POP SWAP2 SWAP1 POP JUMP JUMPDEST PUSH1 0x0 PUSH1 0x20 DUP3 ADD SWAP1 POP DUP2 DUP2 SUB PUSH1 0x0 DUP4 ADD MSTORE PUSH2 0x1963 DUP2 PUSH2 0x1927 JUMP JUMPDEST SWAP1 POP SWAP2 SWAP1 POP JUMP JUMPDEST PUSH32 0x416374696F6E206E6F7420616C6C6F77656420696E2074686973207068617365 PUSH1 0x0 DUP3 ADD MSTORE POP JUMP JUMPDEST PUSH1 0x0 PUSH2 0x19A0 PUSH1 0x20 DUP4 PUSH2 0x1571 JUMP JUMPDEST SWAP2 POP PUSH2 0x19AB DUP3 PUSH2 0x196A JUMP JUMPDEST PUSH1 0x20 DUP3 ADD SWAP1 POP SWAP2 SWAP1 POP JUMP JUMPDEST PUSH1 0x0 PUSH1 0x20 DUP3 ADD SWAP1 POP DUP2 DUP2 SUB PUSH1 0x0 DUP4 ADD MSTORE PUSH2 0x19CF DUP2 PUSH2 0x1993 JUMP JUMPDEST SWAP1 POP SWAP2 SWAP1 POP JUMP JUMPDEST PUSH32 0x4174206C65617374206F6E652063616E64696461746520726571756972656400 PUSH1 0x0 DUP3 ADD MSTORE POP JUMP JUMPDEST PUSH1 0x0 PUSH2 0x1A0C PUSH1 0x1F DUP4 PUSH2 0x1571 JUMP JUMPDEST SWAP2 POP PUSH2 0x1A17 DUP3 PUSH2 0x19D6 JUMP JUMPDEST PUSH1 0x20 DUP3 ADD SWAP1 POP SWAP2 SWAP1 POP JUMP JUMPDEST PUSH1 0x0 PUSH1 0x20 DUP3 ADD SWAP1 POP DUP2 DUP2 SUB PUSH1 0x0 DUP4 ADD MSTORE PUSH2 0x1A3B DUP2 PUSH2 0x19FF JUMP JUMPDEST SWAP1 POP SWAP2 SWAP1 POP JUMP JUMPDEST PUSH32 0x566F74657220616C726561647920726567697374657265640000000000000000 PUSH1 0x0 DUP3 ADD MSTORE POP JUMP JUMPDEST PUSH1 0x0 PUSH2 0x1A78 PUSH1 0x18 DUP4 PUSH2 0x1571 JUMP JUMPDEST SWAP2 POP PUSH2 0x1A83 DUP3 PUSH2 0x1A42 JUMP JUMPDEST PUSH1 0x20 DUP3 ADD SWAP1 POP SWAP2 SWAP1 POP JUMP JUMPDEST PUSH1 0x0 PUSH1 0x20 DUP3 ADD SWAP1 POP DUP2 DUP2 SUB PUSH1 0x0 DUP4 ADD MSTORE PUSH2 0x1AA7 DUP2 PUSH2 0x1A6B JUMP JUMPDEST SWAP1 POP SWAP2 SWAP1 POP JUMP JUMPDEST PUSH32 0x596F7520617265206E6F74207265676973746572656420746F20766F74650000 PUSH1 0x0 DUP3 ADD MSTORE POP JUMP JUMPDEST PUSH1 0x0 PUSH2 0x1AE4 PUSH1 0x1E DUP4 PUSH2 0x1571 JUMP JUMPDEST SWAP2 POP PUSH2 0x1AEF DUP3 PUSH2 0x1AAE JUMP JUMPDEST PUSH1 0x20 DUP3 ADD SWAP1 POP SWAP2 SWAP1 POP JUMP JUMPDEST PUSH1 0x0 PUSH1 0x20 DUP3 ADD SWAP1 POP DUP2 DUP2 SUB PUSH1 0x0 DUP4 ADD MSTORE PUSH2 0x1B13 DUP2 PUSH2 0x1AD7 JUMP JUMPDEST SWAP1 POP SWAP2 SWAP1 POP JUMP JUMPDEST PUSH32 0x596F75206861766520616C726561647920766F74656400000000000000000000 PUSH1 0x0 DUP3 ADD MSTORE POP JUMP JUMPDEST PUSH1 0x0 PUSH2 0x1B50 PUSH1 0x16 DUP4 PUSH2 0x1571 JUMP JUMPDEST SWAP2 POP PUSH2 0x1B5B DUP3 PUSH2 0x1B1A JUMP JUMPDEST PUSH1 0x20 DUP3 ADD SWAP1 POP SWAP2 SWAP1 POP JUMP JUMPDEST PUSH1 0x0 PUSH1 0x20 DUP3 ADD SWAP1 POP DUP2 DUP2 SUB PUSH1 0x0 DUP4 ADD MSTORE PUSH2 0x1B7F DUP2 PUSH2 0x1B43 JUMP JUMPDEST SWAP1 POP SWAP2 SWAP1 POP JUMP JUMPDEST PUSH32 0x496E76616C69642063616E646964617465000000000000000000000000000000 PUSH1 0x0 DUP3 ADD MSTORE POP JUMP JUMPDEST PUSH1 0x0 PUSH2 0x1BBC PUSH1 0x11 DUP4 PUSH2 0x1571 JUMP JUMPDEST SWAP2 POP PUSH2 0x1BC7 DUP3 PUSH2 0x1B86 JUMP JUMPDEST PUSH1 0x20 DUP3 ADD SWAP1 POP SWAP2 SWAP1 POP JUMP JUMPDEST PUSH1 0x0 PUSH1 0x20 DUP3 ADD SWAP1 POP DUP2 DUP2 SUB PUSH1 0x0 DUP4 ADD MSTORE PUSH2 0x1BEB DUP2 PUSH2 0x1BAF JUMP JUMPDEST SWAP1 POP SWAP2 SWAP1 POP JUMP JUMPDEST PUSH32 0x4E487B7100000000000000000000000000000000000000000000000000000000 PUSH1 0x0 MSTORE PUSH1 0x11 PUSH1 0x4 MSTORE PUSH1 0x24 PUSH1 0x0 REVERT JUMPDEST PUSH1 0x0 PUSH2 0x1C2C DUP3 PUSH2 0x1493 JUMP JUMPDEST SWAP2 POP PUSH32 0xFFFFFFFFFFFFFFFFFFFFFFFFFFFFFFFFFFFFFFFFFFFFFFFFFFFFFFFFFFFFFFFF DUP3 SUB PUSH2 0x1C5E JUMPI PUSH2 0x1C5D PUSH2 0x1BF2 JUMP JUMPDEST JUMPDEST PUSH1 0x1 DUP3 ADD SWAP1 POP SWAP2 SWAP1 POP JUMP JUMPDEST PUSH32 0x4E487B7100000000000000000000000000000000000000000000000000000000 PUSH1 0x0 MSTORE PUSH1 0x22 PUSH1 0x4 MSTORE PUSH1 0x24 PUSH1 0x0 REVERT JUMPDEST PUSH1 0x0 PUSH1 0x2 DUP3 DIV SWAP1 POP PUSH1 0x1 DUP3 AND DUP1 PUSH2 0x1CB0 JUMPI PUSH1 0x7F DUP3 AND SWAP2 POP JUMPDEST PUSH1 0x20 DUP3 LT DUP2 SUB PUSH2 0x1CC3 JUMPI PUSH2 0x1CC2 PUSH2 0x1C69 JUMP JUMPDEST JUMPDEST POP SWAP2 SWAP1 POP JUMP JUMPDEST PUSH32 0x4E6F20766F746573206361737400000000000000000000000000000000000000 PUSH1 0x0 DUP3 ADD MSTORE POP JUMP JUMPDEST PUSH1 0x0 PUSH2 0x1CFF PUSH1 0xD DUP4 PUSH2 0x1571 JUMP JUMPDEST SWAP2 POP PUSH2 0x1D0A DUP3 PUSH2 0x1CC9 JUMP JUMPDEST PUSH1 0x20 DUP3 ADD SWAP1 POP SWAP2 SWAP1 POP JUMP JUMPDEST PUSH1 0x0 PUSH1 0x20 DUP3 ADD SWAP1 POP DUP2 DUP2 SUB PUSH1 0x0 DUP4 ADD MSTORE PUSH2 0x1D2E DUP2 PUSH2 0x1CF2 JUMP JUMPDEST SWAP1 POP SWAP2 SWAP1 POP JUMP JUMPDEST PUSH32 0x4E487B7100000000000000000000000000000000000000000000000000000000 PUSH1 0x0 MSTORE PUSH1 0x32 PUSH1 0x4 MSTORE PUSH1 0x24 PUSH1 0x0 REVERT JUMPDEST PUSH32 0x43616E64696461746520616C7265616479207265676973746572656400000000 PUSH1 0x0 DUP3 ADD MSTORE POP JUMP JUMPDEST PUSH1 0x0 PUSH2 0x1D9A PUSH1 0x1C DUP4 PUSH2 0x1571 JUMP JUMPDEST SWAP2 POP PUSH2 0x1DA5 DUP3 PUSH2 0x1D64 JUMP JUMPDEST PUSH1 0x20 DUP3 ADD SWAP1 POP SWAP2 SWAP1 POP JUMP JUMPDEST PUSH1 0x0 PUSH1 0x20 DUP3 ADD SWAP1 POP DUP2 DUP2 SUB PUSH1 0x0 DUP4 ADD MSTORE PUSH2 0x1DC9 DUP2 PUSH2 0x1D8D JUMP JUMPDEST SWAP1 POP SWAP2 SWAP1 POP JUMP JUMPDEST PUSH1 0x0 DUP2 SWAP1 POP DUP2 PUSH1 0x0 MSTORE PUSH1 0x20 PUSH1 0x0 KECCAK256 SWAP1 POP SWAP2 SWAP1 POP JUMP JUMPDEST PUSH1 0x0 PUSH1 0x20 PUSH1 0x1F DUP4 ADD DIV SWAP1 POP SWAP2 SWAP1 POP JUMP JUMPDEST PUSH1 0x0 DUP3 DUP3 SHL SWAP1 POP SWAP3 SWAP2 POP POP JUMP JUMPDEST PUSH1 0x0 PUSH1 0x8 DUP4 MUL PUSH2 0x1E32 PUSH32 0xFFFFFFFFFFFFFFFFFFFFFFFFFFFFFFFFFFFFFFFFFFFFFFFFFFFFFFFFFFFFFFFF DUP3 PUSH2 0x1DF5 JUMP JUMPDEST PUSH2 0x1E3C DUP7 DUP4 PUSH2 0x1DF5 JUMP JUMPDEST SWAP6 POP DUP1 NOT DUP5 AND SWAP4 POP DUP1 DUP7 AND DUP5 OR SWAP3 POP POP POP SWAP4 SWAP3 POP POP POP JUMP JUMPDEST PUSH1 0x0 DUP2 SWAP1 POP SWAP2 SWAP1 POP JUMP JUMPDEST PUSH1 0x0 PUSH2 0x1E79 PUSH2 0x1E74 PUSH2 0x1E6F DUP5 PUSH2 0x1493 JUMP JUMPDEST PUSH2 0x1E54 JUMP JUMPDEST PUSH2 0x1493 JUMP JUMPDEST SWAP1 POP SWAP2 SWAP1 POP JUMP JUMPDEST PUSH1 0x0 DUP2 SWAP1 POP SWAP2 SWAP1 POP JUMP JUMPDEST PUSH2 0x1E93 DUP4 PUSH2 0x1E5E JUMP JUMPDEST PUSH2 0x1EA7 PUSH2 0x1E9F DUP3 PUSH2 0x1E80 JUMP JUMPDEST DUP5 DUP5 SLOAD PUSH2 0x1E02 JUMP JUMPDEST DUP3 SSTORE POP POP POP POP JUMP JUMPDEST PUSH1 0x0 SWAP1 JUMP JUMPDEST PUSH2 0x1EBC PUSH2 0x1EAF JUMP JUMPDEST PUSH2 0x1EC7 DUP2 DUP5 DUP5 PUSH2 0x1E8A JUMP JUMPDEST POP POP POP JUMP JUMPDEST JUMPDEST DUP2 DUP2 LT ISZERO PUSH2 0x1EEB JUMPI PUSH2 0x1EE0 PUSH1 0x0 DUP3 PUSH2 0x1EB4 JUMP JUMPDEST PUSH1 0x1 DUP2 ADD SWAP1 POP PUSH2 0x1ECD JUMP JUMPDEST POP POP JUMP JUMPDEST PUSH1 0x1F DUP3 GT ISZERO PUSH2 0x1F30 JUMPI PUSH2 0x1F01 DUP2 PUSH2 0x1DD0 JUMP JUMPDEST PUSH2 0x1F0A DUP5 PUSH2 0x1DE5 JUMP JUMPDEST DUP2 ADD PUSH1 0x20 DUP6 LT ISZERO PUSH2 0x1F19 JUMPI DUP2 SWAP1 POP JUMPDEST PUSH2 0x1F2D PUSH2 0x1F25 DUP6 PUSH2 0x1DE5 JUMP JUMPDEST DUP4 ADD DUP3 PUSH2 0x1ECC JUMP JUMPDEST POP POP JUMPDEST POP POP POP JUMP JUMPDEST PUSH1 0x0 DUP3 DUP3 SHR SWAP1 POP SWAP3 SWAP2 POP POP JUMP JUMPDEST PUSH1 0x0 PUSH2 0x1F53 PUSH1 0x0 NOT DUP5 PUSH1 0x8 MUL PUSH2 0x1F35 JUMP JUMPDEST NOT DUP1 DUP4 AND SWAP2 POP POP SWAP3 SWAP2 POP POP JUMP JUMPDEST PUSH1 0x0 PUSH2 0x1F6C DUP4 DUP4 PUSH2 0x1F42 JUMP JUMPDEST SWAP2 POP DUP3 PUSH1 0x2 MUL DUP3 OR SWAP1 POP SWAP3 SWAP2 POP POP JUMP JUMPDEST PUSH2 0x1F85 DUP3 PUSH2 0x1566 JUMP JUMPDEST PUSH8 0xFFFFFFFFFFFFFFFF DUP2 GT ISZERO PUSH2 0x1F9E JUMPI PUSH2 0x1F9D PUSH2 0x16DD JUMP JUMPDEST JUMPDEST PUSH2 0x1FA8 DUP3 SLOAD PUSH2 0x1C98 JUMP JUMPDEST PUSH2 0x1FB3 DUP3 DUP3 DUP6 PUSH2 0x1EEF JUMP JUMPDEST PUSH1 0x0 PUSH1 0x20 SWAP1 POP PUSH1 0x1F DUP4 GT PUSH1 0x1 DUP2 EQ PUSH2 0x1FE6 JUMPI PUSH1 0x0 DUP5 ISZERO PUSH2 0x1FD4 JUMPI DUP3 DUP8 ADD MLOAD SWAP1 POP JUMPDEST PUSH2 0x1FDE DUP6 DUP3 PUSH2 0x1F60 JUMP JUMPDEST DUP7 SSTORE POP PUSH2 0x2046 JUMP JUMPDEST PUSH1 0x1F NOT DUP5 AND PUSH2 0x1FF4 DUP7 PUSH2 0x1DD0 JUMP JUMPDEST PUSH1 0x0 JUMPDEST DUP3 DUP2 LT ISZERO PUSH2 0x201C JUMPI DUP5 DUP10 ADD MLOAD DUP3 SSTORE PUSH1 0x1 DUP3 ADD SWAP2 POP PUSH1 0x20 DUP6 ADD SWAP5 POP PUSH1 0x20 DUP2 ADD SWAP1 POP PUSH2 0x1FF7 JUMP JUMPDEST DUP7 DUP4 LT ISZERO PUSH2 0x2039 JUMPI DUP5 DUP10 ADD MLOAD PUSH2 0x2035 PUSH1 0x1F DUP10 AND DUP3 PUSH2 0x1F42 JUMP JUMPDEST DUP4 SSTORE POP JUMPDEST PUSH1 0x1 PUSH1 0x2 DUP9 MUL ADD DUP9 SSTORE POP POP POP JUMPDEST POP POP POP POP POP POP JUMP JUMPDEST PUSH1 0x0 PUSH1 0x20 DUP3 ADD SWAP1 POP DUP2 DUP2 SUB PUSH1 0x0 DUP4 ADD MSTORE PUSH2 0x2068 DUP2 DUP5 PUSH2 0x15BD JUMP JUMPDEST SWAP1 POP SWAP3 SWAP2 POP POP JUMP JUMPDEST PUSH32 0x5265656E7472616E637947756172643A207265656E7472616E742063616C6C00 PUSH1 0x0 DUP3 ADD MSTORE POP JUMP JUMPDEST PUSH1 0x0 PUSH2 0x20A6 PUSH1 0x1F DUP4 PUSH2 0x1571 JUMP JUMPDEST SWAP2 POP PUSH2 0x20B1 DUP3 PUSH2 0x2070 JUMP JUMPDEST PUSH1 0x20 DUP3 ADD SWAP1 POP SWAP2 SWAP1 POP JUMP JUMPDEST PUSH1 0x0 PUSH1 0x20 DUP3 ADD SWAP1 POP DUP2 DUP2 SUB PUSH1 0x0 DUP4 ADD MSTORE PUSH2 0x20D5 DUP2 PUSH2 0x2099 JUMP JUMPDEST SWAP1 POP SWAP2 SWAP1 POP JUMP INVALID LOG2 PUSH5 0x6970667358 0x22 SLT KECCAK256 0xC3 STATICCALL LOG4 PUSH13 0xE3BC348E85704823745CF2F111 KECCAK256 KECCAK256 DUP14 PUSH0 0xE JUMPI BASEFEE 0xA5 PUSH3 0x8C88C TLOAD SWAP3 0xED PUSH5 0x736F6C6343 STOP ADDMOD BYTE STOP CALLER "
				},
				"gasEstimates": {
					"creation": {
						"codeDepositCost": "1693200",
						"executionCost": "72507",
						"totalCost": "1765707"
					},
					"external": {
						"admin()": "2624",
						"candidateList(uint256)": "5022",
						"candidates(address)": "infinite",
						"currentPhase()": "2611",
						"endVoting()": "30291",
						"getWinner()": "infinite",
						"registerCandidate(address,string)": "infinite",
						"registerVoter(address)": "81512",
						"startVoting()": "32379",
						"totalVotes()": "2452",
						"vote(address)": "infinite",
						"voters(address)": "infinite"
					}
				},
				"methodIdentifiers": {
					"admin()": "f851a440",
					"candidateList(uint256)": "b13c744b",
					"candidates(address)": "8ab66a90",
					"currentPhase()": "055ad42e",
					"endVoting()": "c3403ddf",
					"getWinner()": "8e7ea5b2",
					"registerCandidate(address,string)": "b0d30d2f",
					"registerVoter(address)": "38db6dd3",
					"startVoting()": "1ec6b60a",
					"totalVotes()": "0d15fd77",
					"vote(address)": "6dd7d8ea",
					"voters(address)": "a3ec138d"
				}
			},
			"storageLayout": {
				"storage": [
					{
						"astId": 10,
						"contract": "voting_system.sol:SecureVotingSystem",
						"label": "_status",
						"offset": 0,
						"slot": "0",
						"type": "t_uint256"
					},
					{
						"astId": 71,
						"contract": "voting_system.sol:SecureVotingSystem",
						"label": "admin",
						"offset": 0,
						"slot": "1",
						"type": "t_address"
					},
					{
						"astId": 78,
						"contract": "voting_system.sol:SecureVotingSystem",
						"label": "currentPhase",
						"offset": 20,
						"slot": "1",
						"type": "t_enum(VotingPhase)75"
					},
					{
						"astId": 97,
						"contract": "voting_system.sol:SecureVotingSystem",
						"label": "candidates",
						"offset": 0,
						"slot": "2",
						"type": "t_mapping(t_address,t_struct(Candidate)85_storage)"
					},
					{
						"astId": 102,
						"contract": "voting_system.sol:SecureVotingSystem",
						"label": "voters",
						"offset": 0,
						"slot": "3",
						"type": "t_mapping(t_address,t_struct(Voter)92_storage)"
					},
					{
						"astId": 105,
						"contract": "voting_system.sol:SecureVotingSystem",
						"label": "candidateList",
						"offset": 0,
						"slot": "4",
						"type": "t_array(t_address)dyn_storage"
					},
					{
						"astId": 107,
						"contract": "voting_system.sol:SecureVotingSystem",
						"label": "totalVotes",
						"offset": 0,
						"slot": "5",
						"type": "t_uint256"
					}
				],
				"types": {
					"t_address": {
						"encoding": "inplace",
						"label": "address",
						"numberOfBytes": "20"
					},
					"t_array(t_address)dyn_storage": {
						"base": "t_address",
						"encoding": "dynamic_array",
						"label": "address[]",
						"numberOfBytes": "32"
					},
					"t_bool": {
						"encoding": "inplace",
						"label": "bool",
						"numberOfBytes": "1"
					},
					"t_enum(VotingPhase)75": {
						"encoding": "inplace",
						"label": "enum SecureVotingSystem.VotingPhase",
						"numberOfBytes": "1"
					},
					"t_mapping(t_address,t_struct(Candidate)85_storage)": {
						"encoding": "mapping",
						"key": "t_address",
						"label": "mapping(address => struct SecureVotingSystem.Candidate)",
						"numberOfBytes": "32",
						"value": "t_struct(Candidate)85_storage"
					},
					"t_mapping(t_address,t_struct(Voter)92_storage)": {
						"encoding": "mapping",
						"key": "t_address",
						"label": "mapping(address => struct SecureVotingSystem.Voter)",
						"numberOfBytes": "32",
						"value": "t_struct(Voter)92_storage"
					},
					"t_string_storage": {
						"encoding": "bytes",
						"label": "string",
						"numberOfBytes": "32"
					},
					"t_struct(Candidate)85_storage": {
						"encoding": "inplace",
						"label": "struct SecureVotingSystem.Candidate",
						"members": [
							{
								"astId": 80,
								"contract": "voting_system.sol:SecureVotingSystem",
								"label": "name",
								"offset": 0,
								"slot": "0",
								"type": "t_string_storage"
							},
							{
								"astId": 82,
								"contract": "voting_system.sol:SecureVotingSystem",
								"label": "voteCount",
								"offset": 0,
								"slot": "1",
								"type": "t_uint256"
							},
							{
								"astId": 84,
								"contract": "voting_system.sol:SecureVotingSystem",
								"label": "exists",
								"offset": 0,
								"slot": "2",
								"type": "t_bool"
							}
						],
						"numberOfBytes": "96"
					},
					"t_struct(Voter)92_storage": {
						"encoding": "inplace",
						"label": "struct SecureVotingSystem.Voter",
						"members": [
							{
								"astId": 87,
								"contract": "voting_system.sol:SecureVotingSystem",
								"label": "isRegistered",
								"offset": 0,
								"slot": "0",
								"type": "t_bool"
							},
							{
								"astId": 89,
								"contract": "voting_system.sol:SecureVotingSystem",
								"label": "hasVoted",
								"offset": 1,
								"slot": "0",
								"type": "t_bool"
							},
							{
								"astId": 91,
								"contract": "voting_system.sol:SecureVotingSystem",
								"label": "votedCandidate",
								"offset": 2,
								"slot": "0",
								"type": "t_address"
							}
						],
						"numberOfBytes": "32"
					},
					"t_uint256": {
						"encoding": "inplace",
						"label": "uint256",
						"numberOfBytes": "32"
					}
				}
			},
			"userdoc": {
				"kind": "user",
				"methods": {},
				"version": 1
			}
		}
	}
}