{
  "_format": "hh-sol-artifact-1",
  "contractName": "OrderCalculator",
  "sourceName": "contracts/OrderCalculator.sol",
  "abi": [
    {
      "inputs": [],
      "name": "calculateDiscountedAmount",
      "outputs": [
        {
          "internalType": "uint256",
          "name": "",
          "type": "uint256"
        }
      ],
      "stateMutability": "view",
      "type": "function"
    },
    {
      "inputs": [],
      "name": "calculateTotalAmount",
      "outputs": [
        {
          "internalType": "uint256",
          "name": "",
          "type": "uint256"
        }
      ],
      "stateMutability": "view",
      "type": "function"
    },
    {
      "inputs": [],
      "name": "couponValue",
      "outputs": [
        {
          "internalType": "uint256",
          "name": "",
          "type": "uint256"
        }
      ],
      "stateMutability": "view",
      "type": "function"
    },
    {
      "inputs": [],
      "name": "orderAmount",
      "outputs": [
        {
          "internalType": "uint256",
          "name": "",
          "type": "uint256"
        }
      ],
      "stateMutability": "view",
      "type": "function"
    },
    {
      "inputs": [
        {
          "internalType": "uint256",
          "name": "_orderAmount",
          "type": "uint256"
        },
        {
          "internalType": "uint256",
          "name": "_taxAmount",
          "type": "uint256"
        },
        {
          "internalType": "uint256",
          "name": "_couponValue",
          "type": "uint256"
        }
      ],
      "name": "setOrderDetails",
      "outputs": [],
      "stateMutability": "nonpayable",
      "type": "function"
    },
    {
      "inputs": [],
      "name": "taxAmount",
      "outputs": [
        {
          "internalType": "uint256",
          "name": "",
          "type": "uint256"
        }
      ],
      "stateMutability": "view",
      "type": "function"
    }
  ],
  "bytecode": "0x6080604052348015600f57600080fd5b506103188061001f6000396000f3fe608060405234801561001057600080fd5b50600436106100625760003560e01c80632064f50e1461006757806336819267146100855780634f9a7f2e146100a3578063ac3b92e5146100c1578063ad5ea36f146100dd578063b95d95a6146100fb575b600080fd5b61006f610119565b60405161007c91906101ac565b60405180910390f35b61008d61013a565b60405161009a91906101ac565b60405180910390f35b6100ab610167565b6040516100b891906101ac565b60405180910390f35b6100db60048036038101906100d691906101f8565b61016d565b005b6100e5610187565b6040516100f291906101ac565b60405180910390f35b61010361018d565b60405161011091906101ac565b60405180910390f35b60008061012461013a565b905060015481610134919061027a565b91505090565b6000600254600054111561015f5760025460005461015891906102ae565b9050610164565b600090505b90565b60005481565b826000819055508160018190555080600281905550505050565b60015481565b60025481565b6000819050919050565b6101a681610193565b82525050565b60006020820190506101c1600083018461019d565b92915050565b600080fd5b6101d581610193565b81146101e057600080fd5b50565b6000813590506101f2816101cc565b92915050565b600080600060608486031215610211576102106101c7565b5b600061021f868287016101e3565b9350506020610230868287016101e3565b9250506040610241868287016101e3565b9150509250925092565b7f4e487b7100000000000000000000000000000000000000000000000000000000600052601160045260246000fd5b600061028582610193565b915061029083610193565b92508282019050808211156102a8576102a761024b565b5b92915050565b60006102b982610193565b91506102c483610193565b92508282039050818111156102dc576102db61024b565b5b9291505056fea264697066735822122041ef183c06a877ab3da68b2c98d0e8a3bee79dffc2866bbefeb534bcc171c4a064736f6c634300081c0033",
  "linkReferences": {},
  "deployedLinkReferences": {}
}